{
  "contractName": "Users",
  "abi": [
    {
      "constant": true,
      "inputs": [],
      "name": "userCount",
      "outputs": [
        {
          "internalType": "uint256",
          "name": "",
          "type": "uint256"
        }
      ],
      "payable": false,
      "stateMutability": "view",
      "type": "function"
    },
    {
      "constant": false,
      "inputs": [
        {
          "internalType": "string",
          "name": "username",
          "type": "string"
        },
        {
          "internalType": "string",
          "name": "password",
          "type": "string"
        }
      ],
      "name": "createNewUser",
      "outputs": [],
      "payable": false,
      "stateMutability": "nonpayable",
      "type": "function"
    }
  ],
  "bytecode": "0x60806040526000805534801561001457600080fd5b50610318806100246000396000f3fe608060405234801561001057600080fd5b50600436106100365760003560e01c806307973ccf1461003b5780634dfa3f1814610059575b600080fd5b6100436101ab565b6040518082815260200191505060405180910390f35b6101a96004803603604081101561006f57600080fd5b810190808035906020019064010000000081111561008c57600080fd5b82018360208201111561009e57600080fd5b803590602001918460018302840111640100000000831117156100c057600080fd5b91908080601f016020809104026020016040519081016040528093929190818152602001838380828437600081840152601f19601f8201169050808301925050505050505091929192908035906020019064010000000081111561012357600080fd5b82018360208201111561013557600080fd5b8035906020019184600183028401116401000000008311171561015757600080fd5b91908080601f016020809104026020016040519081016040528093929190818152602001838380828437600081840152601f19601f8201169050808301925050505050505091929192905050506101b1565b005b60005481565b60008081548092919060010191905055506040518060600160405280600054815260200183815260200182815250600160008054815260200190815260200160002060008201518160000155602082015181600101908051906020019061021992919061023e565b50604082015181600201908051906020019061023692919061023e565b509050505050565b828054600181600116156101000203166002900490600052602060002090601f016020900481019282601f1061027f57805160ff19168380011785556102ad565b828001600101855582156102ad579182015b828111156102ac578251825591602001919060010190610291565b5b5090506102ba91906102be565b5090565b6102e091905b808211156102dc5760008160009055506001016102c4565b5090565b9056fea265627a7a7231582059aa336d4d3cca774cb38fa919834419399ac59fa345a961ee3afbd7eaf47d0864736f6c63430005100032",
  "source": "pragma solidity >=0.4.22 <0.9.0;\n\ncontract Users{\n    struct User{\n        uint id;\n        string username;\n        string password;\n    }\n\n    uint public userCount = 0;\n\n    mapping(uint => User) users;\n\n    function createNewUser(string memory username, string memory password) public {\n        userCount++;\n        users[userCount] = User(userCount, username,password);\n    }\n\n}",
  "sourcePath": "/Users/sid/Desktop/projects/FYP21050/blockchain/contracts/Users.sol",
  "compiler": {
    "name": "solc",
    "version": "0.5.16+commit.9c3226ce.Emscripten.clang"
  },
  "schemaVersion": "3.3.4",
  "updatedAt": "2022-01-04T14:05:15.410Z",
  "networkType": "ethereum",
  "devdoc": {
    "methods": {}
  },
  "userdoc": {
    "methods": {}
  }
}