{
  "contractName": "CredVerify",
  "abi": [
    {
      "inputs": [],
      "name": "userCount",
      "outputs": [
        {
          "internalType": "uint256",
          "name": "",
          "type": "uint256"
        }
      ],
      "stateMutability": "view",
      "type": "function",
      "constant": true
    },
    {
      "inputs": [
        {
          "internalType": "string",
          "name": "userAddress",
          "type": "string"
        },
        {
          "internalType": "string",
          "name": "email",
          "type": "string"
        }
      ],
      "name": "createNewUser",
      "outputs": [],
      "stateMutability": "nonpayable",
      "type": "function"
    },
    {
      "inputs": [
        {
          "internalType": "string",
          "name": "userAddress",
          "type": "string"
        },
        {
          "internalType": "string",
          "name": "credential_hash",
          "type": "string"
        }
      ],
      "name": "addCredentialToUser",
      "outputs": [],
      "stateMutability": "nonpayable",
      "type": "function"
    },
    {
      "inputs": [
        {
          "internalType": "string",
          "name": "userAddress",
          "type": "string"
        }
      ],
      "name": "getUserByAddress",
      "outputs": [
        {
          "components": [
            {
              "internalType": "string",
              "name": "email",
              "type": "string"
            },
            {
              "internalType": "string[]",
              "name": "credentialIds",
              "type": "string[]"
            }
          ],
          "internalType": "struct CredVerify.User",
          "name": "",
          "type": "tuple"
        }
      ],
      "stateMutability": "view",
      "type": "function",
      "constant": true
    },
    {
      "inputs": [
        {
          "internalType": "string",
          "name": "credential_hash",
          "type": "string"
        },
        {
          "internalType": "string",
          "name": "createdBy",
          "type": "string"
        },
        {
          "internalType": "string",
          "name": "createdAt",
          "type": "string"
        },
        {
          "internalType": "string",
          "name": "data",
          "type": "string"
        },
        {
          "internalType": "string[]",
          "name": "viewers",
          "type": "string[]"
        }
      ],
      "name": "addCredential",
      "outputs": [
        {
          "components": [
            {
              "internalType": "string[]",
              "name": "owners",
              "type": "string[]"
            },
            {
              "internalType": "string[]",
              "name": "viewers",
              "type": "string[]"
            },
            {
              "internalType": "string",
              "name": "createdAt",
              "type": "string"
            },
            {
              "internalType": "string",
              "name": "data",
              "type": "string"
            },
            {
              "internalType": "string",
              "name": "issuedBy",
              "type": "string"
            }
          ],
          "internalType": "struct CredVerify.Credential",
          "name": "",
          "type": "tuple"
        }
      ],
      "stateMutability": "nonpayable",
      "type": "function"
    },
    {
      "inputs": [
        {
          "internalType": "string",
          "name": "id",
          "type": "string"
        }
      ],
      "name": "getCredentialById",
      "outputs": [
        {
          "components": [
            {
              "internalType": "string[]",
              "name": "owners",
              "type": "string[]"
            },
            {
              "internalType": "string[]",
              "name": "viewers",
              "type": "string[]"
            },
            {
              "internalType": "string",
              "name": "createdAt",
              "type": "string"
            },
            {
              "internalType": "string",
              "name": "data",
              "type": "string"
            },
            {
              "internalType": "string",
              "name": "issuedBy",
              "type": "string"
            }
          ],
          "internalType": "struct CredVerify.Credential",
          "name": "",
          "type": "tuple"
        }
      ],
      "stateMutability": "view",
      "type": "function",
      "constant": true
    },
    {
      "inputs": [
        {
          "internalType": "string",
          "name": "id",
          "type": "string"
        }
      ],
      "name": "getCredentialHeaders",
      "outputs": [
        {
          "components": [
            {
              "internalType": "string[]",
              "name": "owners",
              "type": "string[]"
            },
            {
              "internalType": "string[]",
              "name": "viewers",
              "type": "string[]"
            },
            {
              "internalType": "string",
              "name": "createdAt",
              "type": "string"
            },
            {
              "internalType": "string",
              "name": "data",
              "type": "string"
            },
            {
              "internalType": "string",
              "name": "issuedBy",
              "type": "string"
            }
          ],
          "internalType": "struct CredVerify.Credential",
          "name": "",
          "type": "tuple"
        }
      ],
      "stateMutability": "view",
      "type": "function",
      "constant": true
    },
    {
      "inputs": [
        {
          "internalType": "string",
          "name": "id",
          "type": "string"
        },
        {
          "internalType": "string[]",
          "name": "viewers",
          "type": "string[]"
        }
      ],
      "name": "addViewersToCredential",
      "outputs": [],
      "stateMutability": "nonpayable",
      "type": "function"
    }
  ],
  "bytecode": "0x6080604052600060015534801561001557600080fd5b50611579806100256000396000f3fe608060405234801561001057600080fd5b50600436106100a5576000357c0100000000000000000000000000000000000000000000000000000000900480639585b125116100785780639585b1251461011b578063bef1986e1461012e578063dcb0d6e014610141578063e8b21a4d1461015457600080fd5b806307973ccf146100aa5780634aa7ce27146100c65780634dfa3f18146100e6578063833df40b146100fb575b600080fd5b6100b360015481565b6040519081526020015b60405180910390f35b6100d96100d4366004610fb8565b610167565b6040516100bd9190611099565b6100f96100f43660046110db565b610315565b005b61010e610109366004610fb8565b61038f565b6040516100bd919061113f565b61010e61012936600461126f565b61074f565b61010e61013c366004610fb8565b610b88565b6100f961014f366004611341565b610d83565b6100f96101623660046110db565b610df9565b604080518082019091526060808252602082015260038260405161018b919061139b565b90815260200160405180910390206040518060400160405290816000820180546101b4906113b7565b80601f01602080910402602001604051908101604052809291908181526020018280546101e0906113b7565b801561022d5780601f106102025761010080835404028352916020019161022d565b820191906000526020600020905b81548152906001019060200180831161021057829003601f168201915b5050505050815260200160018201805480602002602001604051908101604052809291908181526020016000905b8282101561030757838290600052602060002001805461027a906113b7565b80601f01602080910402602001604051908101604052809291908181526020018280546102a6906113b7565b80156102f35780601f106102c8576101008083540402835291602001916102f3565b820191906000526020600020905b8154815290600101906020018083116102d657829003601f168201915b50505050508152602001906001019061025b565b505050915250909392505050565b60018054906000610325836113f4565b91905055506060604051806040016040528083815260200182815250600384604051610351919061139b565b9081526040519081900360200190208151819061036e9082611464565b5060208281015180516103879260018501920190610e39565b505050505050565b6103c16040518060a0016040528060608152602001606081526020016060815260200160608152602001606081525090565b6002826040516103d1919061139b565b908152604080519182900360209081018320805460c09281028501830190935260a084018381529092849284919060009085015b828210156104b1578382906000526020600020018054610424906113b7565b80601f0160208091040260200160405190810160405280929190818152602001828054610450906113b7565b801561049d5780601f106104725761010080835404028352916020019161049d565b820191906000526020600020905b81548152906001019060200180831161048057829003601f168201915b505050505081526020019060010190610405565b50505050815260200160018201805480602002602001604051908101604052809291908181526020016000905b8282101561058a5783829060005260206000200180546104fd906113b7565b80601f0160208091040260200160405190810160405280929190818152602001828054610529906113b7565b80156105765780601f1061054b57610100808354040283529160200191610576565b820191906000526020600020905b81548152906001019060200180831161055957829003601f168201915b5050505050815260200190600101906104de565b5050505081526020016002820180546105a2906113b7565b80601f01602080910402602001604051908101604052809291908181526020018280546105ce906113b7565b801561061b5780601f106105f05761010080835404028352916020019161061b565b820191906000526020600020905b8154815290600101906020018083116105fe57829003601f168201915b50505050508152602001600382018054610634906113b7565b80601f0160208091040260200160405190810160405280929190818152602001828054610660906113b7565b80156106ad5780601f10610682576101008083540402835291602001916106ad565b820191906000526020600020905b81548152906001019060200180831161069057829003601f168201915b505050505081526020016004820180546106c6906113b7565b80601f01602080910402602001604051908101604052809291908181526020018280546106f2906113b7565b801561073f5780601f106107145761010080835404028352916020019161073f565b820191906000526020600020905b81548152906001019060200180831161072257829003601f168201915b5050505050815250509050919050565b6107816040518060a0016040528060608152602001606081526020016060815260200160608152602001606081525090565b6000600287604051610793919061139b565b9081526040519081900360200190209050600481016107b28782611464565b50600281016107c18682611464565b508054600181018255600082815260209020016107de8782611464565b50600381016107ed8582611464565b5082516108039060018301906020860190610e39565b5061080e8688610df9565b60408051825460c0602082028301810190935260a08201818152919284928492909184919060009085015b828210156108e5578382906000526020600020018054610858906113b7565b80601f0160208091040260200160405190810160405280929190818152602001828054610884906113b7565b80156108d15780601f106108a6576101008083540402835291602001916108d1565b820191906000526020600020905b8154815290600101906020018083116108b457829003601f168201915b505050505081526020019060010190610839565b50505050815260200160018201805480602002602001604051908101604052809291908181526020016000905b828210156109be578382906000526020600020018054610931906113b7565b80601f016020809104026020016040519081016040528092919081815260200182805461095d906113b7565b80156109aa5780601f1061097f576101008083540402835291602001916109aa565b820191906000526020600020905b81548152906001019060200180831161098d57829003601f168201915b505050505081526020019060010190610912565b5050505081526020016002820180546109d6906113b7565b80601f0160208091040260200160405190810160405280929190818152602001828054610a02906113b7565b8015610a4f5780601f10610a2457610100808354040283529160200191610a4f565b820191906000526020600020905b815481529060010190602001808311610a3257829003601f168201915b50505050508152602001600382018054610a68906113b7565b80601f0160208091040260200160405190810160405280929190818152602001828054610a94906113b7565b8015610ae15780601f10610ab657610100808354040283529160200191610ae1565b820191906000526020600020905b815481529060010190602001808311610ac457829003601f168201915b50505050508152602001600482018054610afa906113b7565b80601f0160208091040260200160405190810160405280929190818152602001828054610b26906113b7565b8015610b735780601f10610b4857610100808354040283529160200191610b73565b820191906000526020600020905b815481529060010190602001808311610b5657829003601f168201915b50505050508152505091505095945050505050565b610bba6040518060a0016040528060608152602001606081526020016060815260200160608152602001606081525090565b600282604051610bca919061139b565b908152604080519182900360209081018320805460c09281028501830190935260a084018381529092849284919060009085015b82821015610caa578382906000526020600020018054610c1d906113b7565b80601f0160208091040260200160405190810160405280929190818152602001828054610c49906113b7565b8015610c965780601f10610c6b57610100808354040283529160200191610c96565b820191906000526020600020905b815481529060010190602001808311610c7957829003601f168201915b505050505081526020019060010190610bfe565b50505050815260200160018201805480602002602001604051908101604052809291908181526020016000905b8282101561058a578382906000526020600020018054610cf6906113b7565b80601f0160208091040260200160405190810160405280929190818152602001828054610d22906113b7565b8015610d6f5780601f10610d4457610100808354040283529160200191610d6f565b820191906000526020600020905b815481529060010190602001808311610d5257829003601f168201915b505050505081526020019060010190610cd7565b60005b8151811015610df4576000828281518110610da357610da361152a565b60200260200101519050600284604051610dbd919061139b565b9081526040516020918190038201902060019081018054918201815560009081529190912001610ded8282611464565b5050610d86565b505050565b600382604051610e09919061139b565b9081526040516020918190038201902060019081018054918201815560009081529190912001610df48282611464565b828054828255906000526020600020908101928215610e7f579160200282015b82811115610e7f5782518290610e6f9082611464565b5091602001919060010190610e59565b50610e8b929150610e8f565b5090565b80821115610e8b576000610ea38282610eac565b50600101610e8f565b508054610eb8906113b7565b6000825580601f10610ec8575050565b601f016020900490600052602060002090810190610ee69190610ee9565b50565b5b80821115610e8b5760008155600101610eea565b60e060020a634e487b7102600052604160045260246000fd5b604051601f8201601f1916810167ffffffffffffffff81118282101715610f4057610f40610efe565b604052919050565b600082601f830112610f5957600080fd5b813567ffffffffffffffff811115610f7357610f73610efe565b610f86601f8201601f1916602001610f17565b818152846020838601011115610f9b57600080fd5b816020850160208301376000918101602001919091529392505050565b600060208284031215610fca57600080fd5b813567ffffffffffffffff811115610fe157600080fd5b610fed84828501610f48565b949350505050565b60005b83811015611010578181015183820152602001610ff8565b50506000910152565b60008151808452611031816020860160208601610ff5565b601f01601f19169290920160200192915050565b600081518084526020808501808196508284028101915082860160005b8581101561108c57828403895261107a848351611019565b98850198935090840190600101611062565b5091979650505050505050565b6020815260008251604060208401526110b56060840182611019565b90506020840151601f198483030160408501526110d28282611045565b95945050505050565b600080604083850312156110ee57600080fd5b823567ffffffffffffffff8082111561110657600080fd5b61111286838701610f48565b9350602085013591508082111561112857600080fd5b5061113585828601610f48565b9150509250929050565b602081526000825160a0602084015261115b60c0840182611045565b90506020840151601f19808584030160408601526111798383611045565b925060408601519150808584030160608601526111968383611019565b925060608601519150808584030160808601526111b38383611019565b925060808601519150808584030160a0860152506110d28282611019565b600082601f8301126111e257600080fd5b8135602067ffffffffffffffff808311156111ff576111ff610efe565b81830261120d838201610f17565b938452858101830193838101908886111561122757600080fd5b84880192505b85831015611263578235848111156112455760008081fd5b6112538a87838c0101610f48565b835250918401919084019061122d565b98975050505050505050565b600080600080600060a0868803121561128757600080fd5b853567ffffffffffffffff8082111561129f57600080fd5b6112ab89838a01610f48565b965060208801359150808211156112c157600080fd5b6112cd89838a01610f48565b955060408801359150808211156112e357600080fd5b6112ef89838a01610f48565b9450606088013591508082111561130557600080fd5b61131189838a01610f48565b9350608088013591508082111561132757600080fd5b50611334888289016111d1565b9150509295509295909350565b6000806040838503121561135457600080fd5b823567ffffffffffffffff8082111561136c57600080fd5b61137886838701610f48565b9350602085013591508082111561138e57600080fd5b50611135858286016111d1565b600082516113ad818460208701610ff5565b9190910192915050565b6002810460018216806113cb57607f821691505b6020821081036113ee5760e060020a634e487b7102600052602260045260246000fd5b50919050565b6000600182016114175760e060020a634e487b7102600052601160045260246000fd5b5060010190565b601f821115610df4576000818152602081206020601f860104810160208610156114455750805b6020601f860104820191505b8181101561038757828155600101611451565b815167ffffffffffffffff81111561147e5761147e610efe565b6114928161148c84546113b7565b8461141e565b602080601f8311600181146114cb57600084156114af5750858301515b60028086026008870290910a6000190419821617865550610387565b600085815260208120601f198616915b828110156114fa578886015182559484019460019091019084016114db565b508582101561151a57878501516008601f88160260020a60001904191681555b5050505050600202600101905550565b60e060020a634e487b7102600052603260045260246000fdfea2646970667358221220d4fed5379a861ad83c06c2a0ced6abecf53b793414ae23807d32fc29f49ab0c964736f6c63430008130033",
  "immutableReferences": {},
  "source": "pragma solidity >=0.4.22 <0.9.0;\n\nimport '../node_modules/@openzeppelin/contracts/token/ERC721/ERC721.sol';\nimport '../node_modules/@openzeppelin/contracts/utils/Counters.sol';\n\ncontract CredVerify{\n    // User struct\n    // User ID, Username, Credential IDs\n    struct User {\n        // string username; // Does it need to be stored in a contract?\n        string email;\n        string[] credentialIds;\n    }\n\n    // Credential struct\n    struct Credential {\n        string[] owners;\n        string[] viewers;\n        string createdAt;\n        string data;\n        string issuedBy;\n    }\n\n    using Counters for Counters.Counter;\n    Counters.Counter private _credentialIds;\n    uint public userCount = 0;\n    mapping(string => Credential) private credentials;\n    mapping(string => User) private users;\n\n    // ************** User functions ************** //\n    // * Register new user\n    function createNewUser(string memory userAddress, string memory email) public {\n        userCount++;\n        string[] memory credentialIds;\n        users[userAddress] = User(email, credentialIds);\n    }\n    // * Add credential to user's credentials list \n    function addCredentialToUser(string memory userAddress, string memory credential_hash) public {\n        users[userAddress].credentialIds.push(credential_hash);\n    }\n    //  * Remove credential from user's credentials list\n    // function removeCredentialFromUser(string memory userAddress, string memory credentialId) public {\n    //     uint256 i = 0;\n    //     for(i; i < users[userAddress].credentialIds.length; i++){\n    //         if(users[userAddress].credentialIds[i] == credentialId){\n    //             users[userAddress].credentialIds[i] = users[userAddress].credentialIds[users[userAddress].credentialIds.length - 1];\n    //             delete users[userAddress].credentialIds[users[userAddress].credentialIds.length-1];\n    //             users[userAddress].credentialIds.pop();\n    //         }\n    //     }\n    // }\n    // * Fetch user by Id\n    function getUserByAddress(string memory userAddress) public view returns (User memory){\n        return users[userAddress];\n    }\n    // * Fetch user by username\n    // function getUserByUsername(string memory username) public view returns (User memory){\n    //     uint i = 0;\n    //     for(i; i<=userCount; i++){\n    //         if(keccak256(abi.encodePacked(users[i].username)) == keccak256(abi.encodePacked(username))){\n    //             return users[i];\n    //         }\n    //     }\n    //     revert(\"Not found\");\n    // }\n    \n    //  **************  Credential functions  ************** //\n    // * Add credential to credential List and user Credentials\n    function addCredential(string memory credential_hash, string memory createdBy, string memory createdAt, string memory data, string[] memory viewers) public returns (Credential memory){\n        Credential storage credential = credentials[credential_hash];\n        credential.issuedBy = createdBy;\n        credential.createdAt = createdAt;\n        credential.owners.push(createdBy);\n        credential.data = data;\n        credential.viewers = viewers;\n        addCredentialToUser(createdBy, credential_hash);\n        return credential;\n    }\n    // * Fetch credential by credentialId\n    function getCredentialById(string memory id) public view returns (Credential memory){\n        return credentials[id];\n    }\n    function getCredentialHeaders(string memory id) public view returns (Credential memory) {\n        return credentials[id];\n    }\n    // * Transfer credential from FROM to TO\n    // function transferCredential(uint256 id, uint256 fromId, uint256 toId, CredentialData memory data, Permissions memory permissions) public { \n    //     uint i = 0;\n    //     bool flag = false;\n    //     Viewer[] memory viewers = credentials[id].viewers;\n    //     while(i < viewers.length){\n    //         Viewer memory viewer = credentials[id].viewers[i];\n    //         if(viewer.id == fromId && viewer.permissions.transfer){\n    //             credentials[id].currentOwner = toId;\n    //             credentials[id].viewers.push(Viewer(toId, data, permissions));\n    //             addCredentialToUser(toId, id);\n    //             flag = true;\n    //             break;\n    //         }\n    //         i++;\n    //     }\n    //     if(!flag){\n    //         revert(\"User does not have correct permissions\");\n    //     }\n    // }\n    // // * Revoke Credential status\n    // function revokeCredential(uint256 id, uint256 fromId, string memory reason) public {\n    //     uint i = 0;\n    //     bool flag = false;\n    //     Viewer[] memory viewers = credentials[id].viewers;\n    //     while(i < viewers.length){\n    //         Viewer memory viewer = credentials[id].viewers[i];\n    //         if(viewer.id == fromId && viewer.permissions.revoke){\n    //             credentials[id].isValid = false;\n    //             credentials[id].revocationReason = reason;\n    //             flag = true;\n    //             break;\n    //         }\n    //         i++;\n    //     }\n    //     if(!flag){\n    //         revert(\"User does not have correct permissions\");\n    //     }\n    // }\n    // * Add viewer to list of viewers\n    function addViewersToCredential(string memory id, string[] memory viewers) public {\n        uint i = 0;\n        while(i < viewers.length){\n            string memory viewer = viewers[i];\n            // allow user to add a viewer only if fromId is an owner   \n            credentials[id].viewers.push(viewer);\n        }\n    }\n}",
  "sourcePath": "/Users/siddharthagarwal/Desktop/Desktop - Siddharths MacBook Pro/Projects/FYP21050/server/blockchain/contracts/CredVerify.sol",
  "compiler": {
    "name": "solc",
    "version": "0.8.19+commit.7dd6d404.Emscripten.clang"
  },
  "schemaVersion": "3.4.6",
  "updatedAt": "2023-05-01T10:56:21.043Z",
  "networkType": "ethereum",
  "devdoc": {
    "kind": "dev",
    "methods": {},
    "version": 1
  },
  "userdoc": {
    "kind": "user",
    "methods": {},
    "version": 1
  }
}