{
  "contractName": "Credentials",
  "abi": [
    {
      "inputs": [
        {
          "internalType": "uint256",
          "name": "",
          "type": "uint256"
        }
      ],
      "name": "credentials",
      "outputs": [
        {
          "internalType": "uint256",
          "name": "id",
          "type": "uint256"
        },
        {
          "internalType": "string",
          "name": "createdBy",
          "type": "string"
        },
        {
          "components": [
            {
              "internalType": "string",
              "name": "assetHash",
              "type": "string"
            },
            {
              "internalType": "string",
              "name": "metadataUrl",
              "type": "string"
            }
          ],
          "internalType": "struct Credentials.CredentialData",
          "name": "data",
          "type": "tuple"
        },
        {
          "internalType": "string",
          "name": "currentOwner",
          "type": "string"
        },
        {
          "internalType": "bool",
          "name": "isValid",
          "type": "bool"
        },
        {
          "internalType": "string",
          "name": "revocationReason",
          "type": "string"
        },
        {
          "internalType": "string",
          "name": "createdAt",
          "type": "string"
        }
      ],
      "stateMutability": "view",
      "type": "function",
      "constant": true
    },
    {
      "inputs": [
        {
          "internalType": "string",
          "name": "createdBy",
          "type": "string"
        },
        {
          "components": [
            {
              "internalType": "string",
              "name": "assetHash",
              "type": "string"
            },
            {
              "internalType": "string",
              "name": "metadataUrl",
              "type": "string"
            }
          ],
          "internalType": "struct Credentials.CredentialData",
          "name": "data",
          "type": "tuple"
        },
        {
          "internalType": "string",
          "name": "createdAt",
          "type": "string"
        },
        {
          "internalType": "string[]",
          "name": "viewers",
          "type": "string[]"
        }
      ],
      "name": "addCredential",
      "outputs": [],
      "stateMutability": "nonpayable",
      "type": "function"
    },
    {
      "inputs": [
        {
          "internalType": "uint256",
          "name": "id",
          "type": "uint256"
        }
      ],
      "name": "getCredentialById",
      "outputs": [
        {
          "components": [
            {
              "internalType": "uint256",
              "name": "id",
              "type": "uint256"
            },
            {
              "internalType": "string",
              "name": "createdBy",
              "type": "string"
            },
            {
              "components": [
                {
                  "internalType": "string",
                  "name": "assetHash",
                  "type": "string"
                },
                {
                  "internalType": "string",
                  "name": "metadataUrl",
                  "type": "string"
                }
              ],
              "internalType": "struct Credentials.CredentialData",
              "name": "data",
              "type": "tuple"
            },
            {
              "internalType": "string",
              "name": "currentOwner",
              "type": "string"
            },
            {
              "internalType": "bool",
              "name": "isValid",
              "type": "bool"
            },
            {
              "internalType": "string",
              "name": "revocationReason",
              "type": "string"
            },
            {
              "internalType": "string",
              "name": "createdAt",
              "type": "string"
            },
            {
              "internalType": "string[]",
              "name": "viewers",
              "type": "string[]"
            }
          ],
          "internalType": "struct Credentials.Credential",
          "name": "",
          "type": "tuple"
        }
      ],
      "stateMutability": "view",
      "type": "function",
      "constant": true
    }
  ],
  "bytecode": "0x608060405234801561001057600080fd5b5061115b806100206000396000f3fe608060405234801561001057600080fd5b506004361061005d577c010000000000000000000000000000000000000000000000000000000060003504633ef39e2a81146100625780635fcb9e731461008b578063e0574e3f146100a0575b600080fd5b610075610070366004610bf1565b6100c6565b6040516100829190610ce5565b60405180910390f35b61009e610099366004610f56565b610562565b005b6100b36100ae366004610bf1565b6106b2565b6040516100829796959493929190611055565b6100ce610a43565b6000828152600160208181526040928390208351610100810190945280548452918201805491840191610100906110d2565b80601f016020809104026020016040519081016040528092919081815260200182805461012c906110d2565b80156101795780601f1061014e57610100808354040283529160200191610179565b820191906000526020600020905b81548152906001019060200180831161015c57829003601f168201915b50505050508152602001600282016040518060400160405290816000820180546101a2906110d2565b80601f01602080910402602001604051908101604052809291908181526020018280546101ce906110d2565b801561021b5780601f106101f05761010080835404028352916020019161021b565b820191906000526020600020905b8154815290600101906020018083116101fe57829003601f168201915b50505050508152602001600182018054610234906110d2565b80601f0160208091040260200160405190810160405280929190818152602001828054610260906110d2565b80156102ad5780601f10610282576101008083540402835291602001916102ad565b820191906000526020600020905b81548152906001019060200180831161029057829003601f168201915b50505050508152505081526020016004820180546102ca906110d2565b80601f01602080910402602001604051908101604052809291908181526020018280546102f6906110d2565b80156103435780601f1061031857610100808354040283529160200191610343565b820191906000526020600020905b81548152906001019060200180831161032657829003601f168201915b5050509183525050600582015460ff161515602082015260068201805460409092019161036f906110d2565b80601f016020809104026020016040519081016040528092919081815260200182805461039b906110d2565b80156103e85780601f106103bd576101008083540402835291602001916103e8565b820191906000526020600020905b8154815290600101906020018083116103cb57829003601f168201915b50505050508152602001600782018054610401906110d2565b80601f016020809104026020016040519081016040528092919081815260200182805461042d906110d2565b801561047a5780601f1061044f5761010080835404028352916020019161047a565b820191906000526020600020905b81548152906001019060200180831161045d57829003601f168201915b5050505050815260200160088201805480602002602001604051908101604052809291908181526020016000905b828210156105545783829060005260206000200180546104c7906110d2565b80601f01602080910402602001604051908101604052809291908181526020018280546104f3906110d2565b80156105405780601f1061051557610100808354040283529160200191610540565b820191906000526020600020905b81548152906001019060200180831161052357829003601f168201915b5050505050815260200190600101906104a8565b505050915250909392505050565b610570600080546001019055565b6000805460408051610100810182528281526020808201898152828401899052606083018a90526001608084018190528451808401865287815260a085015260c0840189905260e084018890528587528083529390952082518155945180519495929492936105e793908501929190910190610aa5565b50604082015180518051600284019161060591839160200190610aa5565b50602082810151805161061e9260018501920190610aa5565b5050506060820151805161063c916004840191602090910190610aa5565b50608082015160058201805460ff191691151591909117905560a08201518051610670916006840191602090910190610aa5565b5060c0820151805161068c916007840191602090910190610aa5565b5060e082015180516106a8916008840191602090910190610b29565b5050505050505050565b6001602081905260009182526040909120805491810180546106d3906110d2565b80601f01602080910402602001604051908101604052809291908181526020018280546106ff906110d2565b801561074c5780601f106107215761010080835404028352916020019161074c565b820191906000526020600020905b81548152906001019060200180831161072f57829003601f168201915b50505050509080600201604051806040016040529081600082018054610771906110d2565b80601f016020809104026020016040519081016040528092919081815260200182805461079d906110d2565b80156107ea5780601f106107bf576101008083540402835291602001916107ea565b820191906000526020600020905b8154815290600101906020018083116107cd57829003601f168201915b50505050508152602001600182018054610803906110d2565b80601f016020809104026020016040519081016040528092919081815260200182805461082f906110d2565b801561087c5780601f106108515761010080835404028352916020019161087c565b820191906000526020600020905b81548152906001019060200180831161085f57829003601f168201915b50505050508152505090806004018054610895906110d2565b80601f01602080910402602001604051908101604052809291908181526020018280546108c1906110d2565b801561090e5780601f106108e35761010080835404028352916020019161090e565b820191906000526020600020905b8154815290600101906020018083116108f157829003601f168201915b5050506005840154600685018054949560ff909216949193509150610932906110d2565b80601f016020809104026020016040519081016040528092919081815260200182805461095e906110d2565b80156109ab5780601f10610980576101008083540402835291602001916109ab565b820191906000526020600020905b81548152906001019060200180831161098e57829003601f168201915b5050505050908060070180546109c0906110d2565b80601f01602080910402602001604051908101604052809291908181526020018280546109ec906110d2565b8015610a395780601f10610a0e57610100808354040283529160200191610a39565b820191906000526020600020905b815481529060010190602001808311610a1c57829003601f168201915b5050505050905087565b6040518061010001604052806000815260200160608152602001610a7a604051806040016040528060608152602001606081525090565b8152602001606081526020016000151581526020016060815260200160608152602001606081525090565b828054610ab1906110d2565b90600052602060002090601f016020900481019282610ad35760008555610b19565b82601f10610aec57805160ff1916838001178555610b19565b82800160010185558215610b19579182015b82811115610b19578251825591602001919060010190610afe565b50610b25929150610b82565b5090565b828054828255906000526020600020908101928215610b76579160200282015b82811115610b765782518051610b66918491602090910190610aa5565b5091602001919060010190610b49565b50610b25929150610b97565b5b80821115610b255760008155600101610b83565b80821115610b25576000610bab8282610bb4565b50600101610b97565b508054610bc0906110d2565b6000825580601f10610bd0575050565b601f016020900490600052602060002090810190610bee9190610b82565b50565b600060208284031215610c0357600080fd5b5035919050565b6000815180845260005b81811015610c3057602081850181015186830182015201610c14565b81811115610c42576000602083870101525b50601f01601f19169290920160200192915050565b6000815160408452610c6c6040850182610c0a565b905060208301518482036020860152610c858282610c0a565b95945050505050565b6000828251808552602080860195508081830284010181860160005b84811015610cd857601f19868403018952610cc6838351610c0a565b98840198925090830190600101610caa565b5090979650505050505050565b602081528151602082015260006020830151610100806040850152610d0e610120850183610c0a565b91506040850151601f1980868503016060870152610d2c8483610c57565b93506060870151915080868503016080870152610d498483610c0a565b935060808701519150610d6060a087018315159052565b60a08701519150808685030160c0870152610d7b8483610c0a565b935060c08701519150808685030160e0870152610d988483610c0a565b935060e0870151915080868503018387015250610db58382610c8e565b9695505050505050565b7f4e487b7100000000000000000000000000000000000000000000000000000000600052604160045260246000fd5b6040805190810167ffffffffffffffff81118282101715610e1157610e11610dbf565b60405290565b604051601f8201601f1916810167ffffffffffffffff81118282101715610e4057610e40610dbf565b604052919050565b600082601f830112610e5957600080fd5b813567ffffffffffffffff811115610e7357610e73610dbf565b610e86601f8201601f1916602001610e17565b818152846020838601011115610e9b57600080fd5b816020850160208301376000918101602001919091529392505050565b600082601f830112610ec957600080fd5b8135602067ffffffffffffffff80831115610ee657610ee6610dbf565b818302610ef4838201610e17565b9384528581018301938381019088861115610f0e57600080fd5b84880192505b85831015610f4a57823584811115610f2c5760008081fd5b610f3a8a87838c0101610e48565b8352509184019190840190610f14565b98975050505050505050565b60008060008060808587031215610f6c57600080fd5b843567ffffffffffffffff80821115610f8457600080fd5b610f9088838901610e48565b95506020870135915080821115610fa657600080fd5b9086019060408289031215610fba57600080fd5b610fc2610dee565b823582811115610fd157600080fd5b610fdd8a828601610e48565b825250602083013582811115610ff257600080fd5b610ffe8a828601610e48565b6020830152509450604087013591508082111561101a57600080fd5b61102688838901610e48565b9350606087013591508082111561103c57600080fd5b5061104987828801610eb8565b91505092959194509250565b87815260e06020820152600061106e60e0830189610c0a565b82810360408401526110808189610c57565b905082810360608401526110948188610c0a565b9050851515608084015282810360a08401526110b08186610c0a565b905082810360c08401526110c48185610c0a565b9a9950505050505050505050565b6002810460018216806110e657607f821691505b60208210810361111f577f4e487b7100000000000000000000000000000000000000000000000000000000600052602260045260246000fd5b5091905056fea2646970667358221220ea6ccd9267b3843a5bcebb291c4dee1f06c1da330d66d2e62fe5de93725c360664736f6c634300080d0033",
  "immutableReferences": {},
  "source": "pragma solidity >=0.4.22 <0.9.0;\n\nimport '../node_modules/@openzeppelin/contracts/token/ERC721/ERC721.sol';\nimport '../node_modules/@openzeppelin/contracts/utils/Counters.sol';\n\ncontract Credentials{\n\n    struct CredentialData{\n        string assetHash;\n        string metadataUrl;\n    }\n\n    struct Credential{\n        uint id;\n        string createdBy;\n        CredentialData data;\n        string currentOwner;\n        bool isValid;\n        string revocationReason;\n        string createdAt;\n        string[] viewers;\n    }\n\n    using Counters for Counters.Counter;\n    Counters.Counter private _credentialIds;\n    mapping(uint256=>Credential) public credentials;\n\n    function addCredential(string memory createdBy, CredentialData memory data, string memory createdAt, string[] memory viewers) public{\n        _credentialIds.increment();\n        uint256 newItemId = _credentialIds.current();\n        credentials[newItemId] = Credential(newItemId, createdBy, data, createdBy, true, '', createdAt, viewers );\n    }\n\n    function getCredentialById(uint256 id) public view returns (Credential memory){\n        return credentials[id];\n    }\n}",
  "sourcePath": "/Users/siddharthagarwal/Desktop/Projects/FYP21050/server/blockchain/contracts/Credentials.sol",
  "compiler": {
    "name": "solc",
    "version": "0.8.13+commit.abaa5c0e.Emscripten.clang"
  },
  "schemaVersion": "3.4.6",
  "updatedAt": "2022-04-14T15:38:06.894Z",
  "networkType": "ethereum",
  "devdoc": {
    "kind": "dev",
    "methods": {},
    "version": 1
  },
  "userdoc": {
    "kind": "user",
    "methods": {},
    "version": 1
  }
}