{
  "contractName": "OneID",
  "abi": [
    {
      "inputs": [
        {
          "internalType": "uint256",
          "name": "",
          "type": "uint256"
        }
      ],
      "name": "credentials",
      "outputs": [
        {
          "internalType": "uint256",
          "name": "id",
          "type": "uint256"
        },
        {
          "internalType": "uint256",
          "name": "createdBy",
          "type": "uint256"
        },
        {
          "internalType": "uint256",
          "name": "currentOwner",
          "type": "uint256"
        },
        {
          "internalType": "bool",
          "name": "isValid",
          "type": "bool"
        },
        {
          "internalType": "string",
          "name": "revocationReason",
          "type": "string"
        },
        {
          "internalType": "string",
          "name": "createdAt",
          "type": "string"
        }
      ],
      "stateMutability": "view",
      "type": "function",
      "constant": true
    },
    {
      "inputs": [],
      "name": "userCount",
      "outputs": [
        {
          "internalType": "uint256",
          "name": "",
          "type": "uint256"
        }
      ],
      "stateMutability": "view",
      "type": "function",
      "constant": true
    },
    {
      "inputs": [
        {
          "internalType": "uint256",
          "name": "",
          "type": "uint256"
        }
      ],
      "name": "users",
      "outputs": [
        {
          "internalType": "uint256",
          "name": "id",
          "type": "uint256"
        },
        {
          "internalType": "string",
          "name": "username",
          "type": "string"
        },
        {
          "internalType": "address",
          "name": "walletAddress",
          "type": "address"
        },
        {
          "internalType": "string",
          "name": "publicKey",
          "type": "string"
        },
        {
          "internalType": "bool",
          "name": "isAdmin",
          "type": "bool"
        }
      ],
      "stateMutability": "view",
      "type": "function",
      "constant": true
    },
    {
      "inputs": [
        {
          "internalType": "string",
          "name": "username",
          "type": "string"
        },
        {
          "internalType": "address",
          "name": "walletAddress",
          "type": "address"
        },
        {
          "internalType": "string",
          "name": "publicKey",
          "type": "string"
        },
        {
          "internalType": "bool",
          "name": "isAdmin",
          "type": "bool"
        }
      ],
      "name": "createNewUser",
      "outputs": [],
      "stateMutability": "nonpayable",
      "type": "function"
    },
    {
      "inputs": [
        {
          "internalType": "uint256",
          "name": "id",
          "type": "uint256"
        },
        {
          "internalType": "uint256",
          "name": "credentialId",
          "type": "uint256"
        }
      ],
      "name": "addCredentialToUser",
      "outputs": [],
      "stateMutability": "nonpayable",
      "type": "function"
    },
    {
      "inputs": [
        {
          "internalType": "uint256",
          "name": "id",
          "type": "uint256"
        },
        {
          "internalType": "uint256",
          "name": "credentialId",
          "type": "uint256"
        }
      ],
      "name": "removeCredentialFromUser",
      "outputs": [],
      "stateMutability": "nonpayable",
      "type": "function"
    },
    {
      "inputs": [
        {
          "internalType": "uint256",
          "name": "id",
          "type": "uint256"
        }
      ],
      "name": "getUserById",
      "outputs": [
        {
          "components": [
            {
              "internalType": "uint256",
              "name": "id",
              "type": "uint256"
            },
            {
              "internalType": "string",
              "name": "username",
              "type": "string"
            },
            {
              "internalType": "address",
              "name": "walletAddress",
              "type": "address"
            },
            {
              "internalType": "uint256[]",
              "name": "credentialIds",
              "type": "uint256[]"
            },
            {
              "internalType": "string",
              "name": "publicKey",
              "type": "string"
            },
            {
              "internalType": "bool",
              "name": "isAdmin",
              "type": "bool"
            }
          ],
          "internalType": "struct OneID.User",
          "name": "",
          "type": "tuple"
        }
      ],
      "stateMutability": "view",
      "type": "function",
      "constant": true
    },
    {
      "inputs": [
        {
          "internalType": "string",
          "name": "username",
          "type": "string"
        }
      ],
      "name": "getUserByUsername",
      "outputs": [
        {
          "components": [
            {
              "internalType": "uint256",
              "name": "id",
              "type": "uint256"
            },
            {
              "internalType": "string",
              "name": "username",
              "type": "string"
            },
            {
              "internalType": "address",
              "name": "walletAddress",
              "type": "address"
            },
            {
              "internalType": "uint256[]",
              "name": "credentialIds",
              "type": "uint256[]"
            },
            {
              "internalType": "string",
              "name": "publicKey",
              "type": "string"
            },
            {
              "internalType": "bool",
              "name": "isAdmin",
              "type": "bool"
            }
          ],
          "internalType": "struct OneID.User",
          "name": "",
          "type": "tuple"
        }
      ],
      "stateMutability": "view",
      "type": "function",
      "constant": true
    },
    {
      "inputs": [
        {
          "internalType": "uint256",
          "name": "createdBy",
          "type": "uint256"
        },
        {
          "internalType": "string",
          "name": "createdAt",
          "type": "string"
        },
        {
          "components": [
            {
              "internalType": "uint256",
              "name": "id",
              "type": "uint256"
            },
            {
              "components": [
                {
                  "internalType": "string",
                  "name": "fileName",
                  "type": "string"
                },
                {
                  "internalType": "string",
                  "name": "assetHash",
                  "type": "string"
                },
                {
                  "internalType": "string",
                  "name": "metadataUrl",
                  "type": "string"
                }
              ],
              "internalType": "struct OneID.CredentialData",
              "name": "data",
              "type": "tuple"
            },
            {
              "components": [
                {
                  "internalType": "bool",
                  "name": "transfer",
                  "type": "bool"
                },
                {
                  "internalType": "bool",
                  "name": "revoke",
                  "type": "bool"
                },
                {
                  "internalType": "bool",
                  "name": "share",
                  "type": "bool"
                }
              ],
              "internalType": "struct OneID.Permissions",
              "name": "permissions",
              "type": "tuple"
            }
          ],
          "internalType": "struct OneID.Viewer[]",
          "name": "viewers",
          "type": "tuple[]"
        }
      ],
      "name": "addCredential",
      "outputs": [
        {
          "internalType": "uint256",
          "name": "",
          "type": "uint256"
        }
      ],
      "stateMutability": "nonpayable",
      "type": "function"
    },
    {
      "inputs": [
        {
          "internalType": "uint256",
          "name": "id",
          "type": "uint256"
        }
      ],
      "name": "getCredentialById",
      "outputs": [
        {
          "components": [
            {
              "internalType": "uint256",
              "name": "id",
              "type": "uint256"
            },
            {
              "internalType": "uint256",
              "name": "createdBy",
              "type": "uint256"
            },
            {
              "internalType": "uint256",
              "name": "currentOwner",
              "type": "uint256"
            },
            {
              "internalType": "bool",
              "name": "isValid",
              "type": "bool"
            },
            {
              "internalType": "string",
              "name": "revocationReason",
              "type": "string"
            },
            {
              "internalType": "string",
              "name": "createdAt",
              "type": "string"
            },
            {
              "components": [
                {
                  "internalType": "uint256",
                  "name": "id",
                  "type": "uint256"
                },
                {
                  "components": [
                    {
                      "internalType": "string",
                      "name": "fileName",
                      "type": "string"
                    },
                    {
                      "internalType": "string",
                      "name": "assetHash",
                      "type": "string"
                    },
                    {
                      "internalType": "string",
                      "name": "metadataUrl",
                      "type": "string"
                    }
                  ],
                  "internalType": "struct OneID.CredentialData",
                  "name": "data",
                  "type": "tuple"
                },
                {
                  "components": [
                    {
                      "internalType": "bool",
                      "name": "transfer",
                      "type": "bool"
                    },
                    {
                      "internalType": "bool",
                      "name": "revoke",
                      "type": "bool"
                    },
                    {
                      "internalType": "bool",
                      "name": "share",
                      "type": "bool"
                    }
                  ],
                  "internalType": "struct OneID.Permissions",
                  "name": "permissions",
                  "type": "tuple"
                }
              ],
              "internalType": "struct OneID.Viewer[]",
              "name": "viewers",
              "type": "tuple[]"
            }
          ],
          "internalType": "struct OneID.Credential",
          "name": "",
          "type": "tuple"
        }
      ],
      "stateMutability": "view",
      "type": "function",
      "constant": true
    },
    {
      "inputs": [
        {
          "internalType": "uint256",
          "name": "id",
          "type": "uint256"
        },
        {
          "internalType": "uint256",
          "name": "fromId",
          "type": "uint256"
        },
        {
          "internalType": "uint256",
          "name": "toId",
          "type": "uint256"
        },
        {
          "components": [
            {
              "internalType": "string",
              "name": "fileName",
              "type": "string"
            },
            {
              "internalType": "string",
              "name": "assetHash",
              "type": "string"
            },
            {
              "internalType": "string",
              "name": "metadataUrl",
              "type": "string"
            }
          ],
          "internalType": "struct OneID.CredentialData",
          "name": "data",
          "type": "tuple"
        },
        {
          "components": [
            {
              "internalType": "bool",
              "name": "transfer",
              "type": "bool"
            },
            {
              "internalType": "bool",
              "name": "revoke",
              "type": "bool"
            },
            {
              "internalType": "bool",
              "name": "share",
              "type": "bool"
            }
          ],
          "internalType": "struct OneID.Permissions",
          "name": "permissions",
          "type": "tuple"
        }
      ],
      "name": "transferCredential",
      "outputs": [],
      "stateMutability": "nonpayable",
      "type": "function"
    },
    {
      "inputs": [
        {
          "internalType": "uint256",
          "name": "id",
          "type": "uint256"
        },
        {
          "internalType": "uint256",
          "name": "fromId",
          "type": "uint256"
        },
        {
          "internalType": "string",
          "name": "reason",
          "type": "string"
        }
      ],
      "name": "revokeCredential",
      "outputs": [],
      "stateMutability": "nonpayable",
      "type": "function"
    },
    {
      "inputs": [
        {
          "internalType": "uint256",
          "name": "id",
          "type": "uint256"
        },
        {
          "internalType": "uint256",
          "name": "fromId",
          "type": "uint256"
        },
        {
          "components": [
            {
              "internalType": "uint256",
              "name": "id",
              "type": "uint256"
            },
            {
              "components": [
                {
                  "internalType": "string",
                  "name": "fileName",
                  "type": "string"
                },
                {
                  "internalType": "string",
                  "name": "assetHash",
                  "type": "string"
                },
                {
                  "internalType": "string",
                  "name": "metadataUrl",
                  "type": "string"
                }
              ],
              "internalType": "struct OneID.CredentialData",
              "name": "data",
              "type": "tuple"
            },
            {
              "components": [
                {
                  "internalType": "bool",
                  "name": "transfer",
                  "type": "bool"
                },
                {
                  "internalType": "bool",
                  "name": "revoke",
                  "type": "bool"
                },
                {
                  "internalType": "bool",
                  "name": "share",
                  "type": "bool"
                }
              ],
              "internalType": "struct OneID.Permissions",
              "name": "permissions",
              "type": "tuple"
            }
          ],
          "internalType": "struct OneID.Viewer[]",
          "name": "viewers",
          "type": "tuple[]"
        }
      ],
      "name": "addViewerToCredential",
      "outputs": [],
      "stateMutability": "nonpayable",
      "type": "function"
    }
  ],
  "bytecode": "0x6080604052600060015534801561001557600080fd5b50612f1b806100256000396000f3fe608060405234801561001057600080fd5b50600436106100ec576000357c01000000000000000000000000000000000000000000000000000000009004806370b58951116100a9578063b702a6bc11610083578063b702a6bc146101f3578063e0574e3f14610206578063ecd8bf2d1461022b578063fb42ae4c1461023e57600080fd5b806370b58951146101995780639f42af63146101ac578063ad25be98146101bf57600080fd5b806304197e92146100f157806307973ccf14610106578063192dd54714610122578063365b98b2146101355780633ef39e2a146101595780636ed6da9e14610179575b600080fd5b6101046100ff3660046125ca565b610251565b005b61010f60015481565b6040519081526020015b60405180910390f35b61010461013036600461282f565b61035b565b61014861014336600461287f565b6108ae565b6040516101199594939291906128f4565b61016c61016736600461287f565b6109ff565b6040516101199190612943565b61018c61018736600461287f565b610e2b565b6040516101199190612a98565b6101046101a7366004612b56565b610ffe565b61018c6101ba366004612bc2565b611654565b6101046101cd366004612bff565b600091825260036020818152604084209091018054600181018255908452922090910155565b610104610201366004612c21565b6118f2565b61021961021436600461287f565b611e5f565b60405161011996959493929190612c67565b610104610239366004612bff565b611fac565b61010f61024c366004612cb3565b612101565b6001805490600061026183612d2f565b90915550506040805160c081018252600180548083526020808401898152600160a060020a0389168587015260608581018190526080860189905287151560a087015260009384526003835295909220845181559151805192936102cd939085019291909101906123be565b50604082015160028201805473ffffffffffffffffffffffffffffffffffffffff1916600160a060020a039092169190911790556060820151805161031c916003840191602090910190612442565b50608082015180516103389160048401916020909101906123be565b5060a091909101516005909101805460ff19169115159190911790555050505050565b6000805b60008581526002602052604090206006015482101561087e57600085815260026020526040812060060180548490811061039b5761039b612d48565b906000526020600020906005020160405180606001604052908160008201548152602001600182016040518060600160405290816000820180546103de90612d61565b80601f016020809104026020016040519081016040528092919081815260200182805461040a90612d61565b80156104575780601f1061042c57610100808354040283529160200191610457565b820191906000526020600020905b81548152906001019060200180831161043a57829003601f168201915b5050505050815260200160018201805461047090612d61565b80601f016020809104026020016040519081016040528092919081815260200182805461049c90612d61565b80156104e95780601f106104be576101008083540402835291602001916104e9565b820191906000526020600020905b8154815290600101906020018083116104cc57829003601f168201915b5050505050815260200160028201805461050290612d61565b80601f016020809104026020016040519081016040528092919081815260200182805461052e90612d61565b801561057b5780601f106105505761010080835404028352916020019161057b565b820191906000526020600020905b81548152906001019060200180831161055e57829003601f168201915b505050919092525050508152604080516060810182526004939093015460ff80821615158552610100820481161515602086810191909152620100009092041615159184019190915201528051909150851480156105de57508060400151604001515b1561086b5760005b84518110156108645760026000888152602001908152602001600020600601604051806060016040528087848151811061062257610622612d48565b6020026020010151600001518152602001604051806060016040528089868151811061065057610650612d48565b60200260200101516020015160000151815260200189868151811061067757610677612d48565b60200260200101516020015160200151815260200189868151811061069e5761069e612d48565b60200260200101516020015160400151815250815260200160405180606001604052808986815181106106d3576106d3612d48565b60200260200101516040015160000151151581526020018986815181106106fc576106fc612d48565b602002602001015160400151602001511515815260200189868151811061072557610725612d48565b602090810291909101810151604090810151015115159091529152825460018181018555600094855293829020835160059092020190815582820151805180519495929491939285019261077e928492909101906123be565b50602082810151805161079792600185019201906123be565b50604082015180516107b39160028401916020909101906123be565b505050604091820151805160049092018054602083015192909401511515620100000262ff0000199215156101000261ff00199415159490941661ffff19909516949094179290921716919091179055845161084e9086908390811061081b5761081b612d48565b60200260200101516000015188600091825260036020818152604084209091018054600181018255908452922090910155565b8061085881612d2f565b915050600192506105e6565b505061087e565b8261087581612d2f565b9350505061035f565b806108a75760405160e560020a62461bcd02815260040161089e90612d9e565b60405180910390fd5b5050505050565b600360205260009081526040902080546001820180549192916108d090612d61565b80601f01602080910402602001604051908101604052809291908181526020018280546108fc90612d61565b80156109495780601f1061091e57610100808354040283529160200191610949565b820191906000526020600020905b81548152906001019060200180831161092c57829003601f168201915b50505060028401546004850180549495600160a060020a0390921694919350915061097390612d61565b80601f016020809104026020016040519081016040528092919081815260200182805461099f90612d61565b80156109ec5780601f106109c1576101008083540402835291602001916109ec565b820191906000526020600020905b8154815290600101906020018083116109cf57829003601f168201915b5050506005909301549192505060ff1685565b610a416040518060e001604052806000815260200160008152602001600081526020016000151581526020016060815260200160608152602001606081525090565b600082815260026020818152604092839020835160e081018552815481526001820154928101929092529182015492810192909252600381015460ff1615156060830152600481018054608084019190610a9a90612d61565b80601f0160208091040260200160405190810160405280929190818152602001828054610ac690612d61565b8015610b135780601f10610ae857610100808354040283529160200191610b13565b820191906000526020600020905b815481529060010190602001808311610af657829003601f168201915b50505050508152602001600582018054610b2c90612d61565b80601f0160208091040260200160405190810160405280929190818152602001828054610b5890612d61565b8015610ba55780601f10610b7a57610100808354040283529160200191610ba5565b820191906000526020600020905b815481529060010190602001808311610b8857829003601f168201915b5050505050815260200160068201805480602002602001604051908101604052809291908181526020016000905b82821015610e1d57838290600052602060002090600502016040518060600160405290816000820154815260200160018201604051806060016040529081600082018054610c2090612d61565b80601f0160208091040260200160405190810160405280929190818152602001828054610c4c90612d61565b8015610c995780601f10610c6e57610100808354040283529160200191610c99565b820191906000526020600020905b815481529060010190602001808311610c7c57829003601f168201915b50505050508152602001600182018054610cb290612d61565b80601f0160208091040260200160405190810160405280929190818152602001828054610cde90612d61565b8015610d2b5780601f10610d0057610100808354040283529160200191610d2b565b820191906000526020600020905b815481529060010190602001808311610d0e57829003601f168201915b50505050508152602001600282018054610d4490612d61565b80601f0160208091040260200160405190810160405280929190818152602001828054610d7090612d61565b8015610dbd5780601f10610d9257610100808354040283529160200191610dbd565b820191906000526020600020905b815481529060010190602001808311610da057829003601f168201915b505050919092525050508152604080516060810182526004939093015460ff808216151585526101008204811615156020868101919091526201000090920416151591840191909152908101919091529082526001929092019101610bd3565b505050915250909392505050565b610e3361247c565b600360008381526020019081526020016000206040518060c001604052908160008201548152602001600182018054610e6b90612d61565b80601f0160208091040260200160405190810160405280929190818152602001828054610e9790612d61565b8015610ee45780601f10610eb957610100808354040283529160200191610ee4565b820191906000526020600020905b815481529060010190602001808311610ec757829003601f168201915b50505091835250506002820154600160a060020a03166020808301919091526003830180546040805182850281018501825282815294019392830182828015610f4c57602002820191906000526020600020905b815481526020019060010190808311610f38575b50505050508152602001600482018054610f6590612d61565b80601f0160208091040260200160405190810160405280929190818152602001828054610f9190612d61565b8015610fde5780601f10610fb357610100808354040283529160200191610fde565b820191906000526020600020905b815481529060010190602001808311610fc157829003601f168201915b50505091835250506005919091015460ff16151560209091015292915050565b6000858152600260209081526040808320600601805482518185028101850190935280835284938493929190849084015b828210156112795783829060005260206000209060050201604051806060016040529081600082015481526020016001820160405180606001604052908160008201805461107c90612d61565b80601f01602080910402602001604051908101604052809291908181526020018280546110a890612d61565b80156110f55780601f106110ca576101008083540402835291602001916110f5565b820191906000526020600020905b8154815290600101906020018083116110d857829003601f168201915b5050505050815260200160018201805461110e90612d61565b80601f016020809104026020016040519081016040528092919081815260200182805461113a90612d61565b80156111875780601f1061115c57610100808354040283529160200191611187565b820191906000526020600020905b81548152906001019060200180831161116a57829003601f168201915b505050505081526020016002820180546111a090612d61565b80601f01602080910402602001604051908101604052809291908181526020018280546111cc90612d61565b80156112195780601f106111ee57610100808354040283529160200191611219565b820191906000526020600020905b8154815290600101906020018083116111fc57829003601f168201915b505050919092525050508152604080516060810182526004939093015460ff80821615158552610100820481161515602086810191909152620100009092041615159184019190915290810191909152908252600192909201910161102f565b5050505090505b805183101561162a5760008881526002602052604081206006018054859081106112ac576112ac612d48565b906000526020600020906005020160405180606001604052908160008201548152602001600182016040518060600160405290816000820180546112ef90612d61565b80601f016020809104026020016040519081016040528092919081815260200182805461131b90612d61565b80156113685780601f1061133d57610100808354040283529160200191611368565b820191906000526020600020905b81548152906001019060200180831161134b57829003601f168201915b5050505050815260200160018201805461138190612d61565b80601f01602080910402602001604051908101604052809291908181526020018280546113ad90612d61565b80156113fa5780601f106113cf576101008083540402835291602001916113fa565b820191906000526020600020905b8154815290600101906020018083116113dd57829003601f168201915b5050505050815260200160028201805461141390612d61565b80601f016020809104026020016040519081016040528092919081815260200182805461143f90612d61565b801561148c5780601f106114615761010080835404028352916020019161148c565b820191906000526020600020905b81548152906001019060200180831161146f57829003601f168201915b505050919092525050508152604080516060810182526004939093015460ff80821615158552610100820481161515602086810191909152620100009092041615159184019190915201528051909150881480156114ec57506040810151515b156116175760008981526002602081815260408084209283018b905580516060810182528b81528083018b81529181018a9052600690930180546001818101835591865294839020845160059096020194855590518051805194959491939285019261155d928492909101906123be565b50602082810151805161157692600185019201906123be565b50604082015180516115929160028401916020909101906123be565b505050604091820151805160049092018054602083015192909401511515620100000262ff0000199215156101000261ff00199415159490941661ffff1990951694909417929092171691909117905561160d878a600091825260036020818152604084209091018054600181018255908452922090910155565b600192505061162a565b8361162181612d2f565b94505050611280565b8161164a5760405160e560020a62461bcd02815260040161089e90612d9e565b5050505050505050565b61165c61247c565b60005b60015481116118a757826040516020016116799190612dfb565b60408051601f1981840301815282825280516020918201206000858152600383529290922091926116ae926001019101612e17565b604051602081830303815290604052805190602001200361189557600360008281526020019081526020016000206040518060c00160405290816000820154815260200160018201805461170190612d61565b80601f016020809104026020016040519081016040528092919081815260200182805461172d90612d61565b801561177a5780601f1061174f5761010080835404028352916020019161177a565b820191906000526020600020905b81548152906001019060200180831161175d57829003601f168201915b50505091835250506002820154600160a060020a031660208083019190915260038301805460408051828502810185018252828152940193928301828280156117e257602002820191906000526020600020905b8154815260200190600101908083116117ce575b505050505081526020016004820180546117fb90612d61565b80601f016020809104026020016040519081016040528092919081815260200182805461182790612d61565b80156118745780601f1061184957610100808354040283529160200191611874565b820191906000526020600020905b81548152906001019060200180831161185757829003601f168201915b50505091835250506005919091015460ff1615156020909101529392505050565b8061189f81612d2f565b91505061165f565b60405160e560020a62461bcd02815260206004820152600960248201527f4e6f7420666f756e640000000000000000000000000000000000000000000000604482015260640161089e565b6000838152600260209081526040808320600601805482518185028101850190935280835284938493929190849084015b82821015611b6d5783829060005260206000209060050201604051806060016040529081600082015481526020016001820160405180606001604052908160008201805461197090612d61565b80601f016020809104026020016040519081016040528092919081815260200182805461199c90612d61565b80156119e95780601f106119be576101008083540402835291602001916119e9565b820191906000526020600020905b8154815290600101906020018083116119cc57829003601f168201915b50505050508152602001600182018054611a0290612d61565b80601f0160208091040260200160405190810160405280929190818152602001828054611a2e90612d61565b8015611a7b5780601f10611a5057610100808354040283529160200191611a7b565b820191906000526020600020905b815481529060010190602001808311611a5e57829003601f168201915b50505050508152602001600282018054611a9490612d61565b80601f0160208091040260200160405190810160405280929190818152602001828054611ac090612d61565b8015611b0d5780601f10611ae257610100808354040283529160200191611b0d565b820191906000526020600020905b815481529060010190602001808311611af057829003601f168201915b505050919092525050508152604080516060810182526004939093015460ff808216151585526101008204811615156020868101919091526201000090920416151591840191909152908101919091529082526001929092019101611923565b5050505090505b8051831015611e37576000868152600260205260408120600601805485908110611ba057611ba0612d48565b90600052602060002090600502016040518060600160405290816000820154815260200160018201604051806060016040529081600082018054611be390612d61565b80601f0160208091040260200160405190810160405280929190818152602001828054611c0f90612d61565b8015611c5c5780601f10611c3157610100808354040283529160200191611c5c565b820191906000526020600020905b815481529060010190602001808311611c3f57829003601f168201915b50505050508152602001600182018054611c7590612d61565b80601f0160208091040260200160405190810160405280929190818152602001828054611ca190612d61565b8015611cee5780601f10611cc357610100808354040283529160200191611cee565b820191906000526020600020905b815481529060010190602001808311611cd157829003601f168201915b50505050508152602001600282018054611d0790612d61565b80601f0160208091040260200160405190810160405280929190818152602001828054611d3390612d61565b8015611d805780601f10611d5557610100808354040283529160200191611d80565b820191906000526020600020905b815481529060010190602001808311611d6357829003601f168201915b505050919092525050508152604080516060810182526004939093015460ff8082161515855261010082048116151560208681019190915262010000909204161515918401919091520152805190915086148015611de357508060400151602001515b15611e2457600087815260026020908152604090912060038101805460ff191690558651611e19926004909201918801906123be565b506001925050611e37565b83611e2e81612d2f565b94505050611b74565b81611e575760405160e560020a62461bcd02815260040161089e90612d9e565b505050505050565b600260208190526000918252604090912080546001820154928201546003830154600484018054939594929360ff9092169291611e9b90612d61565b80601f0160208091040260200160405190810160405280929190818152602001828054611ec790612d61565b8015611f145780601f10611ee957610100808354040283529160200191611f14565b820191906000526020600020905b815481529060010190602001808311611ef757829003601f168201915b505050505090806005018054611f2990612d61565b80601f0160208091040260200160405190810160405280929190818152602001828054611f5590612d61565b8015611fa25780601f10611f7757610100808354040283529160200191611fa2565b820191906000526020600020905b815481529060010190602001808311611f8557829003601f168201915b5050505050905086565b60005b600083815260036020819052604090912001548110156120fc5781600360008581526020019081526020016000206003018281548110611ff157611ff1612d48565b9060005260206000200154036120ea57600083815260036020819052604090912001805461202190600190612eb5565b8154811061203157612031612d48565b906000526020600020015460036000858152602001908152602001600020600301828154811061206357612063612d48565b60009182526020808320909101929092558481526003918290526040902001805461209090600190612eb5565b815481106120a0576120a0612d48565b9060005260206000200160009055600360008481526020019081526020016000206003018054806120d3576120d3612ecc565b600190038181906000526020600020016000905590555b806120f481612d2f565b915050611faf565b505050565b6000805460010180825580825260026020908152604083208551849261212e9160058401918901906123be565b5060018082018890556002820188905583825560038201805460ff191690911790556040805160208101918290526000908190526121709160048401916123be565b505b845182101561238f5780600601604051806060016040528087858151811061219c5761219c612d48565b602002602001015160000151815260200160405180606001604052808987815181106121ca576121ca612d48565b6020026020010151602001516000015181526020018987815181106121f1576121f1612d48565b60200260200101516020015160200151815260200189878151811061221857612218612d48565b602002602001015160200151604001518152508152602001604051806060016040528089878151811061224d5761224d612d48565b602002602001015160400151600001511515815260200189878151811061227657612276612d48565b602002602001015160400151602001511515815260200189878151811061229f5761229f612d48565b60209081029190910181015160409081015101511515909152915282546001818101855560009485529382902083516005909202019081558282015180518051949592949193928501926122f8928492909101906123be565b50602082810151805161231192600185019201906123be565b506040820151805161232d9160028401916020909101906123be565b505050604091820151805160049092018054602083015192909401511515620100000262ff0000199215156101000261ff00199415159490941661ffff199095169490941792909217169190911790558161238781612d2f565b925050612172565b600087815260036020818152604083209091018054600181018255908352912001839055509095945050505050565b8280546123ca90612d61565b90600052602060002090601f0160209004810192826123ec5760008555612432565b82601f1061240557805160ff1916838001178555612432565b82800160010185558215612432579182015b82811115612432578251825591602001919060010190612417565b5061243e9291506124bd565b5090565b8280548282559060005260206000209081019282156124325791602002820182811115612432578251825591602001919060010190612417565b6040518060c0016040528060008152602001606081526020016000600160a060020a0316815260200160608152602001606081526020016000151581525090565b5b8082111561243e57600081556001016124be565b60e060020a634e487b7102600052604160045260246000fd5b6040516060810167ffffffffffffffff8111828210171561250e5761250e6124d2565b60405290565b604051601f8201601f1916810167ffffffffffffffff8111828210171561253d5761253d6124d2565b604052919050565b600082601f83011261255657600080fd5b813567ffffffffffffffff811115612570576125706124d2565b612583601f8201601f1916602001612514565b81815284602083860101111561259857600080fd5b816020850160208301376000918101602001919091529392505050565b803580151581146125c557600080fd5b919050565b600080600080608085870312156125e057600080fd5b843567ffffffffffffffff808211156125f857600080fd5b61260488838901612545565b955060208701359150600160a060020a038216821461262257600080fd5b9093506040860135908082111561263857600080fd5b5061264587828801612545565b925050612654606086016125b5565b905092959194509250565b60006060828403121561267157600080fd5b6126796124eb565b9050813567ffffffffffffffff8082111561269357600080fd5b61269f85838601612545565b835260208401359150808211156126b557600080fd5b6126c185838601612545565b602084015260408401359150808211156126da57600080fd5b506126e784828501612545565b60408301525092915050565b60006060828403121561270557600080fd5b61270d6124eb565b9050612718826125b5565b8152612726602083016125b5565b6020820152612737604083016125b5565b604082015292915050565b600082601f83011261275357600080fd5b8135602067ffffffffffffffff80831115612770576127706124d2565b81830261277e838201612514565b938452858101830193838101908886111561279857600080fd5b84880192505b85831015612823578235848111156127b65760008081fd5b880160a0818b03601f190112156127cd5760008081fd5b6127d56124eb565b868201358152604080830135878111156127ef5760008081fd5b6127fd8d8a8387010161265f565b898401525061280f8c606085016126f3565b90820152835250918401919084019061279e565b98975050505050505050565b60008060006060848603121561284457600080fd5b8335925060208401359150604084013567ffffffffffffffff81111561286957600080fd5b61287586828701612742565b9150509250925092565b60006020828403121561289157600080fd5b5035919050565b60005b838110156128b357818101518382015260200161289b565b838111156128c2576000848401525b50505050565b600081518084526128e0816020860160208601612898565b601f01601f19169290920160200192915050565b85815260a06020820152600061290d60a08301876128c8565b600160a060020a0386166040840152828103606084015261292e81866128c8565b91505082151560808301529695505050505050565b6000602080835261010084518285015281850151604081818701528087015191506060828188015280880151925082151560808801526080880151925060a060e081890152612994858901856128c8565b935080890151601f1960c0818b880301818c01526129b287846128c8565b8c8201518c8203840160e08e015280518083529198508a019350898801908a810289018b0160005b82811015612a8557858b83030184528651805183528d810151898f85015280518b8b860152612a0b8f8601826128c8565b90508f820151609f1980878403018a880152612a2783836128c8565b92508e8401519350808784030160e08801525050612a4581836128c8565b9150508b8201519150815115158c8501528e82015115158b8501528b8201511515608085015280935050508c870196508c840193506001810190506129da565b509e9d5050505050505050505050505050565b600060208083528351818401528084015160c06040850152612abd60e08501826128c8565b9050600160a060020a0360408601511660608501526060850151601f198086840301608087015282825180855285850191508584019450600093505b80841015612b195784518252938501936001939093019290850190612af9565b5060808801519450818782030160a0880152612b3581866128c8565b94505050505060a0840151612b4e60c085018215159052565b509392505050565b600080600080600060e08688031215612b6e57600080fd5b853594506020860135935060408601359250606086013567ffffffffffffffff811115612b9a57600080fd5b612ba68882890161265f565b925050612bb687608088016126f3565b90509295509295909350565b600060208284031215612bd457600080fd5b813567ffffffffffffffff811115612beb57600080fd5b612bf784828501612545565b949350505050565b60008060408385031215612c1257600080fd5b50508035926020909101359150565b600080600060608486031215612c3657600080fd5b8335925060208401359150604084013567ffffffffffffffff811115612c5b57600080fd5b61287586828701612545565b868152856020820152846040820152831515606082015260c060808201526000612c9460c08301856128c8565b82810360a0840152612ca681856128c8565b9998505050505050505050565b600080600060608486031215612cc857600080fd5b83359250602084013567ffffffffffffffff80821115612ce757600080fd5b612cf387838801612545565b93506040860135915080821115612d0957600080fd5b5061287586828701612742565b60e060020a634e487b7102600052601160045260246000fd5b600060018201612d4157612d41612d16565b5060010190565b60e060020a634e487b7102600052603260045260246000fd5b600281046001821680612d7557607f821691505b602082108103612d985760e060020a634e487b7102600052602260045260246000fd5b50919050565b60208082526026908201527f5573657220646f6573206e6f74206861766520636f7272656374207065726d6960408201527f7373696f6e730000000000000000000000000000000000000000000000000000606082015260800190565b60008251612e0d818460208701612898565b9190910192915050565b8154600090819060028104600180831680612e3357607f831692505b60208084108203612e555760e060020a634e487b710286526022600452602486fd5b818015612e695760018114612e7a57612ea7565b60ff19861689528489019650612ea7565b60008a81526020902060005b86811015612e9f5781548b820152908501908301612e86565b505084890196505b509498975050505050505050565b600082821015612ec757612ec7612d16565b500390565b60e060020a634e487b7102600052603160045260246000fdfea2646970667358221220fadf338e8415fae155af1be9f3a90ccbb455afb4190e68e8b0d7718100fbddd764736f6c634300080d0033",
  "immutableReferences": {},
  "source": "pragma solidity >=0.4.22 <0.9.0;\n\nimport '../node_modules/@openzeppelin/contracts/token/ERC721/ERC721.sol';\nimport '../node_modules/@openzeppelin/contracts/utils/Counters.sol';\n\ncontract OneID{\n    struct User{\n        uint id;\n        string username;\n        address walletAddress;\n        uint256[] credentialIds;\n        string publicKey;\n        bool isAdmin;\n    }\n    struct CredentialData{\n        string fileName;\n        string assetHash;\n        string metadataUrl;\n    }\n    struct Viewer{\n        uint id;\n        CredentialData data;\n        Permissions permissions;\n    }\n    struct Permissions{\n        bool transfer;\n        bool revoke;\n        bool share;\n    }\n    struct Credential{\n        uint id;\n        uint256 createdBy;\n        uint256 currentOwner;\n        bool isValid;\n        string revocationReason;\n        string createdAt;\n        Viewer[] viewers;\n    }\n    using Counters for Counters.Counter;\n    Counters.Counter private _credentialIds;\n    uint public userCount = 0;\n    mapping(uint256 => Credential) public credentials;\n    mapping(uint => User) public users;\n\n    // ************** User functions ************** //\n    // * Register new user\n    function createNewUser(string memory username, address walletAddress, string memory publicKey, bool isAdmin) public {\n        userCount++;\n        uint256[] memory credentialIds;\n        users[userCount] = User(userCount, username, walletAddress, credentialIds, publicKey, isAdmin);\n    }\n    // * Add credential to user's credentials list \n    function addCredentialToUser(uint id, uint256 credentialId) public {\n        users[id].credentialIds.push(credentialId);\n    }\n    //  * Remove credential from user's credentials list\n    function removeCredentialFromUser(uint id, uint256 credentialId) public {\n        uint256 i = 0;\n        for(i; i < users[id].credentialIds.length; i++){\n            if(users[id].credentialIds[i] == credentialId){\n                users[id].credentialIds[i] = users[id].credentialIds[users[id].credentialIds.length - 1];\n                delete users[id].credentialIds[users[id].credentialIds.length-1];\n                users[id].credentialIds.pop();\n            }\n        }\n    }\n    // * Fetch user by Id\n    function getUserById(uint id) public view returns (User memory){\n        return users[id];\n    }\n    // * Fetch user by username\n    function getUserByUsername(string memory username) public view returns (User memory){\n        uint i = 0;\n        for(i; i<=userCount; i++){\n            if(keccak256(abi.encodePacked(users[i].username)) == keccak256(abi.encodePacked(username))){\n                return users[i];\n            }\n        }\n        revert(\"Not found\");\n    }\n    \n    //  **************  Credential functions  ************** //\n    // * Add credential to credential List and user Credentials\n    function addCredential(uint256 createdBy, string memory createdAt, Viewer[] memory viewers) public returns (uint256){\n        _credentialIds.increment();\n        uint256 newItemId = _credentialIds.current();\n        uint i =0;\n        Credential storage credential = credentials[newItemId];\n        credential.createdAt = createdAt;\n        credential.createdBy = createdBy;\n        credential.currentOwner = createdBy;\n        credential.id = newItemId;\n        credential.isValid = true;\n        credential.revocationReason = '';\n        while(i<viewers.length){\n            credential.viewers.push(Viewer(viewers[i].id, CredentialData(viewers[i].data.fileName, viewers[i].data.assetHash, viewers[i].data.metadataUrl), Permissions(viewers[i].permissions.transfer, viewers[i].permissions.revoke, viewers[i].permissions.share)));\n            i++;\n        }\n        addCredentialToUser(createdBy, newItemId);\n        return newItemId;\n    }\n    // * Fetch credential by credentialId\n    function getCredentialById(uint256 id) public view returns (Credential memory){\n        return credentials[id];\n    }\n    // * Transfer credential from FROM to TO\n    function transferCredential(uint256 id, uint256 fromId, uint256 toId, CredentialData memory data, Permissions memory permissions) public { \n        uint i = 0;\n        bool flag = false;\n        Viewer[] memory viewers = credentials[id].viewers;\n        while(i < viewers.length){\n            Viewer memory viewer = credentials[id].viewers[i];\n            if(viewer.id == fromId && viewer.permissions.transfer){\n                credentials[id].currentOwner = toId;\n                credentials[id].viewers.push(Viewer(toId, data, permissions));\n                addCredentialToUser(toId, id);\n                flag = true;\n                break;\n            }\n            i++;\n        }\n        if(!flag){\n            revert(\"User does not have correct permissions\");\n        }\n    }\n    // * Revoke Credential status\n    function revokeCredential(uint256 id, uint256 fromId, string memory reason) public {\n        uint i = 0;\n        bool flag = false;\n        Viewer[] memory viewers = credentials[id].viewers;\n        while(i < viewers.length){\n            Viewer memory viewer = credentials[id].viewers[i];\n            if(viewer.id == fromId && viewer.permissions.revoke){\n                credentials[id].isValid = false;\n                credentials[id].revocationReason = reason;\n                flag = true;\n                break;\n            }\n            i++;\n        }\n        if(!flag){\n            revert(\"User does not have correct permissions\");\n        }\n    }\n    // * Add viewer to list of viewers\n    function addViewerToCredential(uint256 id, uint256 fromId, Viewer[] memory viewers) public {\n        uint i = 0;\n        bool flag = false;\n        while(i<credentials[id].viewers.length){\n            Viewer memory viewer = credentials[id].viewers[i];\n            if(viewer.id == fromId && viewer.permissions.share){\n                uint j = 0; \n                while(j < viewers.length){\n                    credentials[id].viewers.push(Viewer(viewers[j].id, CredentialData(viewers[j].data.fileName, viewers[j].data.assetHash, viewers[j].data.metadataUrl), Permissions(viewers[j].permissions.transfer, viewers[j].permissions.revoke, viewers[j].permissions.share)));\n                    addCredentialToUser(viewers[j].id, id);\n                    j++;\n                    flag = true;\n                }\n                break;\n            }\n            i++;\n        }\n        if(!flag){\n            revert(\"User does not have correct permissions\");\n        }\n    }\n}",
  "sourcePath": "/Users/siddharthagarwal/Desktop/Projects/FYP21050/server/blockchain/contracts/OneID.sol",
  "compiler": {
    "name": "solc",
    "version": "0.8.13+commit.abaa5c0e.Emscripten.clang"
  },
  "schemaVersion": "3.4.6",
  "updatedAt": "2022-04-18T14:20:56.486Z",
  "networkType": "ethereum",
  "devdoc": {
    "kind": "dev",
    "methods": {},
    "version": 1
  },
  "userdoc": {
    "kind": "user",
    "methods": {},
    "version": 1
  }
}