{
  "contractName": "OneID",
  "abi": [
    {
      "inputs": [
        {
          "internalType": "uint256",
          "name": "",
          "type": "uint256"
        }
      ],
      "name": "credentials",
      "outputs": [
        {
          "internalType": "uint256",
          "name": "id",
          "type": "uint256"
        },
        {
          "internalType": "uint256",
          "name": "createdBy",
          "type": "uint256"
        },
        {
          "internalType": "uint256",
          "name": "currentOwner",
          "type": "uint256"
        },
        {
          "internalType": "bool",
          "name": "isValid",
          "type": "bool"
        },
        {
          "internalType": "string",
          "name": "revocationReason",
          "type": "string"
        },
        {
          "internalType": "string",
          "name": "createdAt",
          "type": "string"
        }
      ],
      "stateMutability": "view",
      "type": "function",
      "constant": true
    },
    {
      "inputs": [],
      "name": "userCount",
      "outputs": [
        {
          "internalType": "uint256",
          "name": "",
          "type": "uint256"
        }
      ],
      "stateMutability": "view",
      "type": "function",
      "constant": true
    },
    {
      "inputs": [
        {
          "internalType": "uint256",
          "name": "",
          "type": "uint256"
        }
      ],
      "name": "users",
      "outputs": [
        {
          "internalType": "uint256",
          "name": "id",
          "type": "uint256"
        },
        {
          "internalType": "string",
          "name": "username",
          "type": "string"
        },
        {
          "internalType": "address",
          "name": "walletAddress",
          "type": "address"
        },
        {
          "internalType": "string",
          "name": "publicKey",
          "type": "string"
        },
        {
          "internalType": "bool",
          "name": "isAdmin",
          "type": "bool"
        }
      ],
      "stateMutability": "view",
      "type": "function",
      "constant": true
    },
    {
      "inputs": [
        {
          "internalType": "string",
          "name": "username",
          "type": "string"
        },
        {
          "internalType": "address",
          "name": "walletAddress",
          "type": "address"
        },
        {
          "internalType": "string",
          "name": "publicKey",
          "type": "string"
        },
        {
          "internalType": "bool",
          "name": "isAdmin",
          "type": "bool"
        }
      ],
      "name": "createNewUser",
      "outputs": [],
      "stateMutability": "nonpayable",
      "type": "function"
    },
    {
      "inputs": [
        {
          "internalType": "uint256",
          "name": "id",
          "type": "uint256"
        },
        {
          "internalType": "uint256",
          "name": "credentialId",
          "type": "uint256"
        }
      ],
      "name": "addCredentialToUser",
      "outputs": [],
      "stateMutability": "nonpayable",
      "type": "function"
    },
    {
      "inputs": [
        {
          "internalType": "uint256",
          "name": "id",
          "type": "uint256"
        },
        {
          "internalType": "uint256",
          "name": "credentialId",
          "type": "uint256"
        }
      ],
      "name": "removeCredentialFromUser",
      "outputs": [],
      "stateMutability": "nonpayable",
      "type": "function"
    },
    {
      "inputs": [
        {
          "internalType": "uint256",
          "name": "id",
          "type": "uint256"
        }
      ],
      "name": "getUserById",
      "outputs": [
        {
          "components": [
            {
              "internalType": "uint256",
              "name": "id",
              "type": "uint256"
            },
            {
              "internalType": "string",
              "name": "username",
              "type": "string"
            },
            {
              "internalType": "address",
              "name": "walletAddress",
              "type": "address"
            },
            {
              "internalType": "uint256[]",
              "name": "credentialIds",
              "type": "uint256[]"
            },
            {
              "internalType": "string",
              "name": "publicKey",
              "type": "string"
            },
            {
              "internalType": "bool",
              "name": "isAdmin",
              "type": "bool"
            }
          ],
          "internalType": "struct OneID.User",
          "name": "",
          "type": "tuple"
        }
      ],
      "stateMutability": "view",
      "type": "function",
      "constant": true
    },
    {
      "inputs": [
        {
          "internalType": "string",
          "name": "username",
          "type": "string"
        }
      ],
      "name": "getUserByUsername",
      "outputs": [
        {
          "components": [
            {
              "internalType": "uint256",
              "name": "id",
              "type": "uint256"
            },
            {
              "internalType": "string",
              "name": "username",
              "type": "string"
            },
            {
              "internalType": "address",
              "name": "walletAddress",
              "type": "address"
            },
            {
              "internalType": "uint256[]",
              "name": "credentialIds",
              "type": "uint256[]"
            },
            {
              "internalType": "string",
              "name": "publicKey",
              "type": "string"
            },
            {
              "internalType": "bool",
              "name": "isAdmin",
              "type": "bool"
            }
          ],
          "internalType": "struct OneID.User",
          "name": "",
          "type": "tuple"
        }
      ],
      "stateMutability": "view",
      "type": "function",
      "constant": true
    },
    {
      "inputs": [
        {
          "internalType": "uint256",
          "name": "createdBy",
          "type": "uint256"
        },
        {
          "internalType": "string",
          "name": "createdAt",
          "type": "string"
        },
        {
          "components": [
            {
              "internalType": "uint256",
              "name": "id",
              "type": "uint256"
            },
            {
              "components": [
                {
                  "internalType": "string",
                  "name": "fileName",
                  "type": "string"
                },
                {
                  "internalType": "string",
                  "name": "assetHash",
                  "type": "string"
                },
                {
                  "internalType": "string",
                  "name": "metadataUrl",
                  "type": "string"
                }
              ],
              "internalType": "struct OneID.CredentialData",
              "name": "data",
              "type": "tuple"
            },
            {
              "components": [
                {
                  "internalType": "bool",
                  "name": "transfer",
                  "type": "bool"
                },
                {
                  "internalType": "bool",
                  "name": "revoke",
                  "type": "bool"
                },
                {
                  "internalType": "bool",
                  "name": "share",
                  "type": "bool"
                }
              ],
              "internalType": "struct OneID.Permissions",
              "name": "permissions",
              "type": "tuple"
            }
          ],
          "internalType": "struct OneID.Viewer[]",
          "name": "viewers",
          "type": "tuple[]"
        }
      ],
      "name": "addCredential",
      "outputs": [
        {
          "internalType": "uint256",
          "name": "",
          "type": "uint256"
        }
      ],
      "stateMutability": "nonpayable",
      "type": "function"
    },
    {
      "inputs": [
        {
          "internalType": "uint256",
          "name": "id",
          "type": "uint256"
        }
      ],
      "name": "getCredentialById",
      "outputs": [
        {
          "components": [
            {
              "internalType": "uint256",
              "name": "id",
              "type": "uint256"
            },
            {
              "internalType": "uint256",
              "name": "createdBy",
              "type": "uint256"
            },
            {
              "internalType": "uint256",
              "name": "currentOwner",
              "type": "uint256"
            },
            {
              "internalType": "bool",
              "name": "isValid",
              "type": "bool"
            },
            {
              "internalType": "string",
              "name": "revocationReason",
              "type": "string"
            },
            {
              "internalType": "string",
              "name": "createdAt",
              "type": "string"
            },
            {
              "components": [
                {
                  "internalType": "uint256",
                  "name": "id",
                  "type": "uint256"
                },
                {
                  "components": [
                    {
                      "internalType": "string",
                      "name": "fileName",
                      "type": "string"
                    },
                    {
                      "internalType": "string",
                      "name": "assetHash",
                      "type": "string"
                    },
                    {
                      "internalType": "string",
                      "name": "metadataUrl",
                      "type": "string"
                    }
                  ],
                  "internalType": "struct OneID.CredentialData",
                  "name": "data",
                  "type": "tuple"
                },
                {
                  "components": [
                    {
                      "internalType": "bool",
                      "name": "transfer",
                      "type": "bool"
                    },
                    {
                      "internalType": "bool",
                      "name": "revoke",
                      "type": "bool"
                    },
                    {
                      "internalType": "bool",
                      "name": "share",
                      "type": "bool"
                    }
                  ],
                  "internalType": "struct OneID.Permissions",
                  "name": "permissions",
                  "type": "tuple"
                }
              ],
              "internalType": "struct OneID.Viewer[]",
              "name": "viewers",
              "type": "tuple[]"
            }
          ],
          "internalType": "struct OneID.Credential",
          "name": "",
          "type": "tuple"
        }
      ],
      "stateMutability": "view",
      "type": "function",
      "constant": true
    },
    {
      "inputs": [
        {
          "internalType": "uint256",
          "name": "id",
          "type": "uint256"
        },
        {
          "internalType": "uint256",
          "name": "fromId",
          "type": "uint256"
        },
        {
          "internalType": "uint256",
          "name": "toId",
          "type": "uint256"
        },
        {
          "components": [
            {
              "internalType": "string",
              "name": "fileName",
              "type": "string"
            },
            {
              "internalType": "string",
              "name": "assetHash",
              "type": "string"
            },
            {
              "internalType": "string",
              "name": "metadataUrl",
              "type": "string"
            }
          ],
          "internalType": "struct OneID.CredentialData",
          "name": "data",
          "type": "tuple"
        },
        {
          "components": [
            {
              "internalType": "bool",
              "name": "transfer",
              "type": "bool"
            },
            {
              "internalType": "bool",
              "name": "revoke",
              "type": "bool"
            },
            {
              "internalType": "bool",
              "name": "share",
              "type": "bool"
            }
          ],
          "internalType": "struct OneID.Permissions",
          "name": "permissions",
          "type": "tuple"
        }
      ],
      "name": "transferCredential",
      "outputs": [],
      "stateMutability": "nonpayable",
      "type": "function"
    },
    {
      "inputs": [
        {
          "internalType": "uint256",
          "name": "id",
          "type": "uint256"
        },
        {
          "internalType": "uint256",
          "name": "fromId",
          "type": "uint256"
        },
        {
          "internalType": "string",
          "name": "reason",
          "type": "string"
        }
      ],
      "name": "revokeCredential",
      "outputs": [],
      "stateMutability": "nonpayable",
      "type": "function"
    },
    {
      "inputs": [
        {
          "internalType": "uint256",
          "name": "id",
          "type": "uint256"
        },
        {
          "internalType": "uint256",
          "name": "fromId",
          "type": "uint256"
        },
        {
          "components": [
            {
              "internalType": "uint256",
              "name": "id",
              "type": "uint256"
            },
            {
              "components": [
                {
                  "internalType": "string",
                  "name": "fileName",
                  "type": "string"
                },
                {
                  "internalType": "string",
                  "name": "assetHash",
                  "type": "string"
                },
                {
                  "internalType": "string",
                  "name": "metadataUrl",
                  "type": "string"
                }
              ],
              "internalType": "struct OneID.CredentialData",
              "name": "data",
              "type": "tuple"
            },
            {
              "components": [
                {
                  "internalType": "bool",
                  "name": "transfer",
                  "type": "bool"
                },
                {
                  "internalType": "bool",
                  "name": "revoke",
                  "type": "bool"
                },
                {
                  "internalType": "bool",
                  "name": "share",
                  "type": "bool"
                }
              ],
              "internalType": "struct OneID.Permissions",
              "name": "permissions",
              "type": "tuple"
            }
          ],
          "internalType": "struct OneID.Viewer[]",
          "name": "viewers",
          "type": "tuple[]"
        }
      ],
      "name": "addViewerToCredential",
      "outputs": [],
      "stateMutability": "nonpayable",
      "type": "function"
    }
  ],
  "bytecode": "0x6080604052600060015534801561001557600080fd5b50612f30806100256000396000f3fe608060405234801561001057600080fd5b50600436106100ec576000357c01000000000000000000000000000000000000000000000000000000009004806370b58951116100a9578063b702a6bc11610083578063b702a6bc146101f3578063e0574e3f14610206578063ecd8bf2d1461022b578063fb42ae4c1461023e57600080fd5b806370b58951146101995780639f42af63146101ac578063ad25be98146101bf57600080fd5b806304197e92146100f157806307973ccf14610106578063192dd54714610122578063365b98b2146101355780633ef39e2a146101595780636ed6da9e14610179575b600080fd5b6101046100ff366004612505565b610251565b005b61010f60015481565b6040519081526020015b60405180910390f35b61010461013036600461276a565b61034f565b6101486101433660046127ba565b610891565b604051610119959493929190612823565b61016c6101673660046127ba565b6109e2565b6040516101199190612872565b61018c6101873660046127ba565b610e0e565b60405161011991906129c7565b6101046101a7366004612a85565b610fe1565b61018c6101ba366004612af1565b611626565b6101046101cd366004612b2e565b600091825260036020818152604084209091018054600181018255908452922090910155565b610104610201366004612b50565b6118c4565b6102196102143660046127ba565b611e27565b60405161011996959493929190612b96565b610104610239366004612b2e565b611f74565b61010f61024c366004612be2565b6120c9565b6001805490600061026183612c5e565b90915550506040805160c081018252600180548083526020808401898152600160a060020a0389168587015260608581018190526080860189905287151560a087015260009384526003909252949091208351815593519093918201906102c89082612cfa565b50604082015160028201805473ffffffffffffffffffffffffffffffffffffffff1916600160a060020a039092169190911790556060820151805161031791600384019160209091019061236c565b506080820151600482019061032c9082612cfa565b5060a091909101516005909101805460ff19169115159190911790555050505050565b6000805b60008581526002602052604090206006015482101561086157600085815260026020526040812060060180548490811061038f5761038f612dc0565b906000526020600020906005020160405180606001604052908160008201548152602001600182016040518060600160405290816000820180546103d290612c77565b80601f01602080910402602001604051908101604052809291908181526020018280546103fe90612c77565b801561044b5780601f106104205761010080835404028352916020019161044b565b820191906000526020600020905b81548152906001019060200180831161042e57829003601f168201915b5050505050815260200160018201805461046490612c77565b80601f016020809104026020016040519081016040528092919081815260200182805461049090612c77565b80156104dd5780601f106104b2576101008083540402835291602001916104dd565b820191906000526020600020905b8154815290600101906020018083116104c057829003601f168201915b505050505081526020016002820180546104f690612c77565b80601f016020809104026020016040519081016040528092919081815260200182805461052290612c77565b801561056f5780601f106105445761010080835404028352916020019161056f565b820191906000526020600020905b81548152906001019060200180831161055257829003601f168201915b505050919092525050508152604080516060810182526004939093015460ff80821615158552610100820481161515602086810191909152620100009092041615159184019190915201528051909150851480156105d257508060400151604001515b1561084e5760005b84518110156108475760026000888152602001908152602001600020600601604051806060016040528087848151811061061657610616612dc0565b6020026020010151600001518152602001604051806060016040528089868151811061064457610644612dc0565b60200260200101516020015160000151815260200189868151811061066b5761066b612dc0565b60200260200101516020015160200151815260200189868151811061069257610692612dc0565b60200260200101516020015160400151815250815260200160405180606001604052808986815181106106c7576106c7612dc0565b60200260200101516040015160000151151581526020018986815181106106f0576106f0612dc0565b602002602001015160400151602001511515815260200189868151811061071957610719612dc0565b6020908102919091018101516040908101510151151590915291528254600181810185556000948552938290208351600590920201908155908201518051929391929091830190819061076c9082612cfa565b50602082015160018201906107819082612cfa565b50604082015160028201906107969082612cfa565b505050604091820151805160049092018054602083015192909401511515620100000262ff0000199215156101000261ff00199415159490941661ffff199095169490941792909217169190911790558451610831908690839081106107fe576107fe612dc0565b60200260200101516000015188600091825260036020818152604084209091018054600181018255908452922090910155565b8061083b81612c5e565b915050600192506105da565b5050610861565b8261085881612c5e565b93505050610353565b8061088a5760405160e560020a62461bcd02815260040161088190612dd9565b60405180910390fd5b5050505050565b600360205260009081526040902080546001820180549192916108b390612c77565b80601f01602080910402602001604051908101604052809291908181526020018280546108df90612c77565b801561092c5780601f106109015761010080835404028352916020019161092c565b820191906000526020600020905b81548152906001019060200180831161090f57829003601f168201915b50505060028401546004850180549495600160a060020a0390921694919350915061095690612c77565b80601f016020809104026020016040519081016040528092919081815260200182805461098290612c77565b80156109cf5780601f106109a4576101008083540402835291602001916109cf565b820191906000526020600020905b8154815290600101906020018083116109b257829003601f168201915b5050506005909301549192505060ff1685565b610a246040518060e001604052806000815260200160008152602001600081526020016000151581526020016060815260200160608152602001606081525090565b600082815260026020818152604092839020835160e081018552815481526001820154928101929092529182015492810192909252600381015460ff1615156060830152600481018054608084019190610a7d90612c77565b80601f0160208091040260200160405190810160405280929190818152602001828054610aa990612c77565b8015610af65780601f10610acb57610100808354040283529160200191610af6565b820191906000526020600020905b815481529060010190602001808311610ad957829003601f168201915b50505050508152602001600582018054610b0f90612c77565b80601f0160208091040260200160405190810160405280929190818152602001828054610b3b90612c77565b8015610b885780601f10610b5d57610100808354040283529160200191610b88565b820191906000526020600020905b815481529060010190602001808311610b6b57829003601f168201915b5050505050815260200160068201805480602002602001604051908101604052809291908181526020016000905b82821015610e0057838290600052602060002090600502016040518060600160405290816000820154815260200160018201604051806060016040529081600082018054610c0390612c77565b80601f0160208091040260200160405190810160405280929190818152602001828054610c2f90612c77565b8015610c7c5780601f10610c5157610100808354040283529160200191610c7c565b820191906000526020600020905b815481529060010190602001808311610c5f57829003601f168201915b50505050508152602001600182018054610c9590612c77565b80601f0160208091040260200160405190810160405280929190818152602001828054610cc190612c77565b8015610d0e5780601f10610ce357610100808354040283529160200191610d0e565b820191906000526020600020905b815481529060010190602001808311610cf157829003601f168201915b50505050508152602001600282018054610d2790612c77565b80601f0160208091040260200160405190810160405280929190818152602001828054610d5390612c77565b8015610da05780601f10610d7557610100808354040283529160200191610da0565b820191906000526020600020905b815481529060010190602001808311610d8357829003601f168201915b505050919092525050508152604080516060810182526004939093015460ff808216151585526101008204811615156020868101919091526201000090920416151591840191909152908101919091529082526001929092019101610bb6565b505050915250909392505050565b610e166123b7565b600360008381526020019081526020016000206040518060c001604052908160008201548152602001600182018054610e4e90612c77565b80601f0160208091040260200160405190810160405280929190818152602001828054610e7a90612c77565b8015610ec75780601f10610e9c57610100808354040283529160200191610ec7565b820191906000526020600020905b815481529060010190602001808311610eaa57829003601f168201915b50505091835250506002820154600160a060020a03166020808301919091526003830180546040805182850281018501825282815294019392830182828015610f2f57602002820191906000526020600020905b815481526020019060010190808311610f1b575b50505050508152602001600482018054610f4890612c77565b80601f0160208091040260200160405190810160405280929190818152602001828054610f7490612c77565b8015610fc15780601f10610f9657610100808354040283529160200191610fc1565b820191906000526020600020905b815481529060010190602001808311610fa457829003601f168201915b50505091835250506005919091015460ff16151560209091015292915050565b6000858152600260209081526040808320600601805482518185028101850190935280835284938493929190849084015b8282101561125c5783829060005260206000209060050201604051806060016040529081600082015481526020016001820160405180606001604052908160008201805461105f90612c77565b80601f016020809104026020016040519081016040528092919081815260200182805461108b90612c77565b80156110d85780601f106110ad576101008083540402835291602001916110d8565b820191906000526020600020905b8154815290600101906020018083116110bb57829003601f168201915b505050505081526020016001820180546110f190612c77565b80601f016020809104026020016040519081016040528092919081815260200182805461111d90612c77565b801561116a5780601f1061113f5761010080835404028352916020019161116a565b820191906000526020600020905b81548152906001019060200180831161114d57829003601f168201915b5050505050815260200160028201805461118390612c77565b80601f01602080910402602001604051908101604052809291908181526020018280546111af90612c77565b80156111fc5780601f106111d1576101008083540402835291602001916111fc565b820191906000526020600020905b8154815290600101906020018083116111df57829003601f168201915b505050919092525050508152604080516060810182526004939093015460ff808216151585526101008204811615156020868101919091526201000090920416151591840191909152908101919091529082526001929092019101611012565b5050505090505b80518310156115fc57600088815260026020526040812060060180548590811061128f5761128f612dc0565b906000526020600020906005020160405180606001604052908160008201548152602001600182016040518060600160405290816000820180546112d290612c77565b80601f01602080910402602001604051908101604052809291908181526020018280546112fe90612c77565b801561134b5780601f106113205761010080835404028352916020019161134b565b820191906000526020600020905b81548152906001019060200180831161132e57829003601f168201915b5050505050815260200160018201805461136490612c77565b80601f016020809104026020016040519081016040528092919081815260200182805461139090612c77565b80156113dd5780601f106113b2576101008083540402835291602001916113dd565b820191906000526020600020905b8154815290600101906020018083116113c057829003601f168201915b505050505081526020016002820180546113f690612c77565b80601f016020809104026020016040519081016040528092919081815260200182805461142290612c77565b801561146f5780601f106114445761010080835404028352916020019161146f565b820191906000526020600020905b81548152906001019060200180831161145257829003601f168201915b505050919092525050508152604080516060810182526004939093015460ff80821615158552610100820481161515602086810191909152620100009092041615159184019190915201528051909150881480156114cf57506040810151515b156115e95760008981526002602081815260408084209283018b905580516060810182528b81528083018b81529181018a90526006909301805460018181018355918652929094208351600590930201918255518051929391929091830190819061153a9082612cfa565b506020820151600182019061154f9082612cfa565b50604082015160028201906115649082612cfa565b505050604091820151805160049092018054602083015192909401511515620100000262ff0000199215156101000261ff00199415159490941661ffff199095169490941792909217169190911790556115df878a600091825260036020818152604084209091018054600181018255908452922090910155565b60019250506115fc565b836115f381612c5e565b94505050611263565b8161161c5760405160e560020a62461bcd02815260040161088190612dd9565b5050505050505050565b61162e6123b7565b60005b6001548111611879578260405160200161164b9190612e36565b60408051601f198184030181528282528051602091820120600085815260038352929092209192611680926001019101612e52565b604051602081830303815290604052805190602001200361186757600360008281526020019081526020016000206040518060c0016040529081600082015481526020016001820180546116d390612c77565b80601f01602080910402602001604051908101604052809291908181526020018280546116ff90612c77565b801561174c5780601f106117215761010080835404028352916020019161174c565b820191906000526020600020905b81548152906001019060200180831161172f57829003601f168201915b50505091835250506002820154600160a060020a031660208083019190915260038301805460408051828502810185018252828152940193928301828280156117b457602002820191906000526020600020905b8154815260200190600101908083116117a0575b505050505081526020016004820180546117cd90612c77565b80601f01602080910402602001604051908101604052809291908181526020018280546117f990612c77565b80156118465780601f1061181b57610100808354040283529160200191611846565b820191906000526020600020905b81548152906001019060200180831161182957829003601f168201915b50505091835250506005919091015460ff1615156020909101529392505050565b8061187181612c5e565b915050611631565b60405160e560020a62461bcd02815260206004820152600960248201527f4e6f7420666f756e6400000000000000000000000000000000000000000000006044820152606401610881565b6000838152600260209081526040808320600601805482518185028101850190935280835284938493929190849084015b82821015611b3f5783829060005260206000209060050201604051806060016040529081600082015481526020016001820160405180606001604052908160008201805461194290612c77565b80601f016020809104026020016040519081016040528092919081815260200182805461196e90612c77565b80156119bb5780601f10611990576101008083540402835291602001916119bb565b820191906000526020600020905b81548152906001019060200180831161199e57829003601f168201915b505050505081526020016001820180546119d490612c77565b80601f0160208091040260200160405190810160405280929190818152602001828054611a0090612c77565b8015611a4d5780601f10611a2257610100808354040283529160200191611a4d565b820191906000526020600020905b815481529060010190602001808311611a3057829003601f168201915b50505050508152602001600282018054611a6690612c77565b80601f0160208091040260200160405190810160405280929190818152602001828054611a9290612c77565b8015611adf5780601f10611ab457610100808354040283529160200191611adf565b820191906000526020600020905b815481529060010190602001808311611ac257829003601f168201915b505050919092525050508152604080516060810182526004939093015460ff8082161515855261010082048116151560208681019190915262010000909204161515918401919091529081019190915290825260019290920191016118f5565b5050505090505b8051831015611dff576000868152600260205260408120600601805485908110611b7257611b72612dc0565b90600052602060002090600502016040518060600160405290816000820154815260200160018201604051806060016040529081600082018054611bb590612c77565b80601f0160208091040260200160405190810160405280929190818152602001828054611be190612c77565b8015611c2e5780601f10611c0357610100808354040283529160200191611c2e565b820191906000526020600020905b815481529060010190602001808311611c1157829003601f168201915b50505050508152602001600182018054611c4790612c77565b80601f0160208091040260200160405190810160405280929190818152602001828054611c7390612c77565b8015611cc05780601f10611c9557610100808354040283529160200191611cc0565b820191906000526020600020905b815481529060010190602001808311611ca357829003601f168201915b50505050508152602001600282018054611cd990612c77565b80601f0160208091040260200160405190810160405280929190818152602001828054611d0590612c77565b8015611d525780601f10611d2757610100808354040283529160200191611d52565b820191906000526020600020905b815481529060010190602001808311611d3557829003601f168201915b505050919092525050508152604080516060810182526004939093015460ff8082161515855261010082048116151560208681019190915262010000909204161515918401919091520152805190915086148015611db557508060400151602001515b15611dec57600087815260026020526040902060038101805460ff19169055600401611de18682612cfa565b506001925050611dff565b83611df681612c5e565b94505050611b46565b81611e1f5760405160e560020a62461bcd02815260040161088190612dd9565b505050505050565b600260208190526000918252604090912080546001820154928201546003830154600484018054939594929360ff9092169291611e6390612c77565b80601f0160208091040260200160405190810160405280929190818152602001828054611e8f90612c77565b8015611edc5780601f10611eb157610100808354040283529160200191611edc565b820191906000526020600020905b815481529060010190602001808311611ebf57829003601f168201915b505050505090806005018054611ef190612c77565b80601f0160208091040260200160405190810160405280929190818152602001828054611f1d90612c77565b8015611f6a5780601f10611f3f57610100808354040283529160200191611f6a565b820191906000526020600020905b815481529060010190602001808311611f4d57829003601f168201915b5050505050905086565b60005b600083815260036020819052604090912001548110156120c45781600360008581526020019081526020016000206003018281548110611fb957611fb9612dc0565b9060005260206000200154036120b2576000838152600360208190526040909120018054611fe990600190612ec8565b81548110611ff957611ff9612dc0565b906000526020600020015460036000858152602001908152602001600020600301828154811061202b5761202b612dc0565b60009182526020808320909101929092558481526003918290526040902001805461205890600190612ec8565b8154811061206857612068612dc0565b90600052602060002001600090556003600084815260200190815260200160002060030180548061209b5761209b612ee1565b600190038181906000526020600020016000905590555b806120bc81612c5e565b915050611f77565b505050565b600080546001018082558082526002602052604082208290600581016120ef8782612cfa565b5060018082018890556002820188905583825560038201805460ff19169091179055604080516020810190915260008152600482019061212f9082612cfa565b505b845182101561233d5780600601604051806060016040528087858151811061215b5761215b612dc0565b6020026020010151600001518152602001604051806060016040528089878151811061218957612189612dc0565b6020026020010151602001516000015181526020018987815181106121b0576121b0612dc0565b6020026020010151602001516020015181526020018987815181106121d7576121d7612dc0565b602002602001015160200151604001518152508152602001604051806060016040528089878151811061220c5761220c612dc0565b602002602001015160400151600001511515815260200189878151811061223557612235612dc0565b602002602001015160400151602001511515815260200189878151811061225e5761225e612dc0565b602090810291909101810151604090810151015115159091529152825460018181018555600094855293829020835160059092020190815590820151805192939192909183019081906122b19082612cfa565b50602082015160018201906122c69082612cfa565b50604082015160028201906122db9082612cfa565b505050604091820151805160049092018054602083015192909401511515620100000262ff0000199215156101000261ff00199415159490941661ffff199095169490941792909217169190911790558161233581612c5e565b925050612131565b600087815260036020818152604083209091018054600181018255908352912001839055509095945050505050565b8280548282559060005260206000209081019282156123a7579160200282015b828111156123a757825182559160200191906001019061238c565b506123b39291506123f8565b5090565b6040518060c0016040528060008152602001606081526020016000600160a060020a0316815260200160608152602001606081526020016000151581525090565b5b808211156123b357600081556001016123f9565b60e060020a634e487b7102600052604160045260246000fd5b6040516060810167ffffffffffffffff811182821017156124495761244961240d565b60405290565b604051601f8201601f1916810167ffffffffffffffff811182821017156124785761247861240d565b604052919050565b600082601f83011261249157600080fd5b813567ffffffffffffffff8111156124ab576124ab61240d565b6124be601f8201601f191660200161244f565b8181528460208386010111156124d357600080fd5b816020850160208301376000918101602001919091529392505050565b8035801515811461250057600080fd5b919050565b6000806000806080858703121561251b57600080fd5b843567ffffffffffffffff8082111561253357600080fd5b61253f88838901612480565b955060208701359150600160a060020a038216821461255d57600080fd5b9093506040860135908082111561257357600080fd5b5061258087828801612480565b92505061258f606086016124f0565b905092959194509250565b6000606082840312156125ac57600080fd5b6125b4612426565b9050813567ffffffffffffffff808211156125ce57600080fd5b6125da85838601612480565b835260208401359150808211156125f057600080fd5b6125fc85838601612480565b6020840152604084013591508082111561261557600080fd5b5061262284828501612480565b60408301525092915050565b60006060828403121561264057600080fd5b612648612426565b9050612653826124f0565b8152612661602083016124f0565b6020820152612672604083016124f0565b604082015292915050565b600082601f83011261268e57600080fd5b8135602067ffffffffffffffff808311156126ab576126ab61240d565b8183026126b983820161244f565b93845285810183019383810190888611156126d357600080fd5b84880192505b8583101561275e578235848111156126f15760008081fd5b880160a0818b03601f190112156127085760008081fd5b612710612426565b8682013581526040808301358781111561272a5760008081fd5b6127388d8a8387010161259a565b898401525061274a8c6060850161262e565b9082015283525091840191908401906126d9565b98975050505050505050565b60008060006060848603121561277f57600080fd5b8335925060208401359150604084013567ffffffffffffffff8111156127a457600080fd5b6127b08682870161267d565b9150509250925092565b6000602082840312156127cc57600080fd5b5035919050565b60005b838110156127ee5781810151838201526020016127d6565b50506000910152565b6000815180845261280f8160208601602086016127d3565b601f01601f19169290920160200192915050565b85815260a06020820152600061283c60a08301876127f7565b600160a060020a0386166040840152828103606084015261285d81866127f7565b91505082151560808301529695505050505050565b6000602080835261010084518285015281850151604081818701528087015191506060828188015280880151925082151560808801526080880151925060a060e0818901526128c3858901856127f7565b935080890151601f1960c0818b880301818c01526128e187846127f7565b8c8201518c8203840160e08e015280518083529198508a019350898801908a810289018b0160005b828110156129b457858b83030184528651805183528d810151898f85015280518b8b86015261293a8f8601826127f7565b90508f820151609f1980878403018a88015261295683836127f7565b92508e8401519350808784030160e0880152505061297481836127f7565b9150508b8201519150815115158c8501528e82015115158b8501528b8201511515608085015280935050508c870196508c84019350600181019050612909565b509e9d5050505050505050505050505050565b600060208083528351818401528084015160c060408501526129ec60e08501826127f7565b9050600160a060020a0360408601511660608501526060850151601f198086840301608087015282825180855285850191508584019450600093505b80841015612a485784518252938501936001939093019290850190612a28565b5060808801519450818782030160a0880152612a6481866127f7565b94505050505060a0840151612a7d60c085018215159052565b509392505050565b600080600080600060e08688031215612a9d57600080fd5b853594506020860135935060408601359250606086013567ffffffffffffffff811115612ac957600080fd5b612ad58882890161259a565b925050612ae5876080880161262e565b90509295509295909350565b600060208284031215612b0357600080fd5b813567ffffffffffffffff811115612b1a57600080fd5b612b2684828501612480565b949350505050565b60008060408385031215612b4157600080fd5b50508035926020909101359150565b600080600060608486031215612b6557600080fd5b8335925060208401359150604084013567ffffffffffffffff811115612b8a57600080fd5b6127b086828701612480565b868152856020820152846040820152831515606082015260c060808201526000612bc360c08301856127f7565b82810360a0840152612bd581856127f7565b9998505050505050505050565b600080600060608486031215612bf757600080fd5b83359250602084013567ffffffffffffffff80821115612c1657600080fd5b612c2287838801612480565b93506040860135915080821115612c3857600080fd5b506127b08682870161267d565b60e060020a634e487b7102600052601160045260246000fd5b600060018201612c7057612c70612c45565b5060010190565b600281046001821680612c8b57607f821691505b602082108103612cae5760e060020a634e487b7102600052602260045260246000fd5b50919050565b601f8211156120c4576000818152602081206020601f86010481016020861015612cdb5750805b6020601f860104820191505b81811015611e1f57828155600101612ce7565b815167ffffffffffffffff811115612d1457612d1461240d565b612d2881612d228454612c77565b84612cb4565b602080601f831160018114612d615760008415612d455750858301515b60028086026008870290910a6000190419821617865550611e1f565b600085815260208120601f198616915b82811015612d9057888601518255948401946001909101908401612d71565b5085821015612db057878501516008601f88160260020a60001904191681555b5050505050600202600101905550565b60e060020a634e487b7102600052603260045260246000fd5b60208082526026908201527f5573657220646f6573206e6f74206861766520636f7272656374207065726d6960408201527f7373696f6e730000000000000000000000000000000000000000000000000000606082015260800190565b60008251612e488184602087016127d3565b9190910192915050565b6000808354612e6081612c77565b60018281168015612e785760018114612e8d57612ebc565b60ff1984168752821515830287019450612ebc565b8760005260208060002060005b85811015612eb35781548a820152908401908201612e9a565b50505082870194505b50929695505050505050565b81810381811115612edb57612edb612c45565b92915050565b60e060020a634e487b7102600052603160045260246000fdfea264697066735822122067c6ff9d5fc91ea3925af8c14dfa865e6f9374b2ac64d6a3c5072b9cd4a61a9964736f6c63430008130033",
  "immutableReferences": {},
  "source": "pragma solidity >=0.4.22 <0.9.0;\n\nimport '../node_modules/@openzeppelin/contracts/token/ERC721/ERC721.sol';\nimport '../node_modules/@openzeppelin/contracts/utils/Counters.sol';\n\ncontract OneID{\n    // User struct\n    // User ID, Username, Wallet Address, Credential IDs, Public Key, Is Admin\n    struct User{\n        uint id;\n        string username;\n        address walletAddress;\n        uint256[] credentialIds;\n        string publicKey;\n        bool isAdmin;\n    }\n    struct CredentialData{\n        string fileName;\n        string assetHash;\n        string metadataUrl;\n    }\n    struct Viewer{\n        uint id;\n        CredentialData data;\n        Permissions permissions;\n    }\n    struct Permissions{\n        bool transfer;\n        bool revoke;\n        bool share;\n    }\n    struct Credential{\n        uint id;\n        uint256 createdBy;\n        uint256 currentOwner;\n        bool isValid;\n        string revocationReason;\n        string createdAt;\n        Viewer[] viewers;\n    }\n    using Counters for Counters.Counter;\n    Counters.Counter private _credentialIds;\n    uint public userCount = 0;\n    mapping(uint256 => Credential) public credentials;\n    mapping(uint => User) public users;\n\n    // ************** User functions ************** //\n    // * Register new user\n    function createNewUser(string memory username, address walletAddress, string memory publicKey, bool isAdmin) public {\n        userCount++;\n        uint256[] memory credentialIds;\n        users[userCount] = User(userCount, username, walletAddress, credentialIds, publicKey, isAdmin);\n    }\n    // * Add credential to user's credentials list \n    function addCredentialToUser(uint id, uint256 credentialId) public {\n        users[id].credentialIds.push(credentialId);\n    }\n    //  * Remove credential from user's credentials list\n    function removeCredentialFromUser(uint id, uint256 credentialId) public {\n        uint256 i = 0;\n        for(i; i < users[id].credentialIds.length; i++){\n            if(users[id].credentialIds[i] == credentialId){\n                users[id].credentialIds[i] = users[id].credentialIds[users[id].credentialIds.length - 1];\n                delete users[id].credentialIds[users[id].credentialIds.length-1];\n                users[id].credentialIds.pop();\n            }\n        }\n    }\n    // * Fetch user by Id\n    function getUserById(uint id) public view returns (User memory){\n        return users[id];\n    }\n    // * Fetch user by username\n    function getUserByUsername(string memory username) public view returns (User memory){\n        uint i = 0;\n        for(i; i<=userCount; i++){\n            if(keccak256(abi.encodePacked(users[i].username)) == keccak256(abi.encodePacked(username))){\n                return users[i];\n            }\n        }\n        revert(\"Not found\");\n    }\n    \n    //  **************  Credential functions  ************** //\n    // * Add credential to credential List and user Credentials\n    function addCredential(uint256 createdBy, string memory createdAt, Viewer[] memory viewers) public returns (uint256){\n        _credentialIds.increment();\n        uint256 newItemId = _credentialIds.current();\n        uint i =0;\n        Credential storage credential = credentials[newItemId];\n        credential.createdAt = createdAt;\n        credential.createdBy = createdBy;\n        credential.currentOwner = createdBy;\n        credential.id = newItemId;\n        credential.isValid = true;\n        credential.revocationReason = '';\n        while(i<viewers.length){\n            credential.viewers.push(Viewer(viewers[i].id, CredentialData(viewers[i].data.fileName, viewers[i].data.assetHash, viewers[i].data.metadataUrl), Permissions(viewers[i].permissions.transfer, viewers[i].permissions.revoke, viewers[i].permissions.share)));\n            i++;\n        }\n        addCredentialToUser(createdBy, newItemId);\n        return newItemId;\n    }\n    // * Fetch credential by credentialId\n    function getCredentialById(uint256 id) public view returns (Credential memory){\n        return credentials[id];\n    }\n    // * Transfer credential from FROM to TO\n    function transferCredential(uint256 id, uint256 fromId, uint256 toId, CredentialData memory data, Permissions memory permissions) public { \n        uint i = 0;\n        bool flag = false;\n        Viewer[] memory viewers = credentials[id].viewers;\n        while(i < viewers.length){\n            Viewer memory viewer = credentials[id].viewers[i];\n            if(viewer.id == fromId && viewer.permissions.transfer){\n                credentials[id].currentOwner = toId;\n                credentials[id].viewers.push(Viewer(toId, data, permissions));\n                addCredentialToUser(toId, id);\n                flag = true;\n                break;\n            }\n            i++;\n        }\n        if(!flag){\n            revert(\"User does not have correct permissions\");\n        }\n    }\n    // * Revoke Credential status\n    function revokeCredential(uint256 id, uint256 fromId, string memory reason) public {\n        uint i = 0;\n        bool flag = false;\n        Viewer[] memory viewers = credentials[id].viewers;\n        while(i < viewers.length){\n            Viewer memory viewer = credentials[id].viewers[i];\n            if(viewer.id == fromId && viewer.permissions.revoke){\n                credentials[id].isValid = false;\n                credentials[id].revocationReason = reason;\n                flag = true;\n                break;\n            }\n            i++;\n        }\n        if(!flag){\n            revert(\"User does not have correct permissions\");\n        }\n    }\n    // * Add viewer to list of viewers\n    function addViewerToCredential(uint256 id, uint256 fromId, Viewer[] memory viewers) public {\n        uint i = 0;\n        bool flag = false;\n        while(i<credentials[id].viewers.length){\n            Viewer memory viewer = credentials[id].viewers[i];\n            if(viewer.id == fromId && viewer.permissions.share){\n                uint j = 0; \n                while(j < viewers.length){\n                    credentials[id].viewers.push(Viewer(viewers[j].id, CredentialData(viewers[j].data.fileName, viewers[j].data.assetHash, viewers[j].data.metadataUrl), Permissions(viewers[j].permissions.transfer, viewers[j].permissions.revoke, viewers[j].permissions.share)));\n                    addCredentialToUser(viewers[j].id, id);\n                    j++;\n                    flag = true;\n                }\n                break;\n            }\n            i++;\n        }\n        if(!flag){\n            revert(\"User does not have correct permissions\");\n        }\n    }\n}",
  "sourcePath": "/Users/siddharthagarwal/Desktop/Desktop - Siddharths MacBook Pro/Projects/FYP21050/server/blockchain/contracts/OneID.sol",
  "compiler": {
    "name": "solc",
    "version": "0.8.19+commit.7dd6d404.Emscripten.clang"
  },
  "schemaVersion": "3.4.6",
  "updatedAt": "2023-05-01T10:56:20.931Z",
  "networkType": "ethereum",
  "devdoc": {
    "kind": "dev",
    "methods": {},
    "version": 1
  },
  "userdoc": {
    "kind": "user",
    "methods": {},
    "version": 1
  }
}