{
  "contractName": "UniqueAsset",
  "abi": [
    {
      "inputs": [],
      "stateMutability": "nonpayable",
      "type": "constructor"
    },
    {
      "anonymous": false,
      "inputs": [
        {
          "indexed": true,
          "internalType": "address",
          "name": "owner",
          "type": "address"
        },
        {
          "indexed": true,
          "internalType": "address",
          "name": "approved",
          "type": "address"
        },
        {
          "indexed": true,
          "internalType": "uint256",
          "name": "tokenId",
          "type": "uint256"
        }
      ],
      "name": "Approval",
      "type": "event"
    },
    {
      "anonymous": false,
      "inputs": [
        {
          "indexed": true,
          "internalType": "address",
          "name": "owner",
          "type": "address"
        },
        {
          "indexed": true,
          "internalType": "address",
          "name": "operator",
          "type": "address"
        },
        {
          "indexed": false,
          "internalType": "bool",
          "name": "approved",
          "type": "bool"
        }
      ],
      "name": "ApprovalForAll",
      "type": "event"
    },
    {
      "anonymous": false,
      "inputs": [
        {
          "indexed": true,
          "internalType": "address",
          "name": "from",
          "type": "address"
        },
        {
          "indexed": true,
          "internalType": "address",
          "name": "to",
          "type": "address"
        },
        {
          "indexed": true,
          "internalType": "uint256",
          "name": "tokenId",
          "type": "uint256"
        }
      ],
      "name": "Transfer",
      "type": "event"
    },
    {
      "inputs": [
        {
          "internalType": "address",
          "name": "to",
          "type": "address"
        },
        {
          "internalType": "uint256",
          "name": "tokenId",
          "type": "uint256"
        }
      ],
      "name": "approve",
      "outputs": [],
      "stateMutability": "nonpayable",
      "type": "function"
    },
    {
      "inputs": [
        {
          "internalType": "address",
          "name": "owner",
          "type": "address"
        }
      ],
      "name": "balanceOf",
      "outputs": [
        {
          "internalType": "uint256",
          "name": "",
          "type": "uint256"
        }
      ],
      "stateMutability": "view",
      "type": "function",
      "constant": true
    },
    {
      "inputs": [
        {
          "internalType": "uint256",
          "name": "tokenId",
          "type": "uint256"
        }
      ],
      "name": "getApproved",
      "outputs": [
        {
          "internalType": "address",
          "name": "",
          "type": "address"
        }
      ],
      "stateMutability": "view",
      "type": "function",
      "constant": true
    },
    {
      "inputs": [
        {
          "internalType": "address",
          "name": "owner",
          "type": "address"
        },
        {
          "internalType": "address",
          "name": "operator",
          "type": "address"
        }
      ],
      "name": "isApprovedForAll",
      "outputs": [
        {
          "internalType": "bool",
          "name": "",
          "type": "bool"
        }
      ],
      "stateMutability": "view",
      "type": "function",
      "constant": true
    },
    {
      "inputs": [],
      "name": "name",
      "outputs": [
        {
          "internalType": "string",
          "name": "",
          "type": "string"
        }
      ],
      "stateMutability": "view",
      "type": "function",
      "constant": true
    },
    {
      "inputs": [
        {
          "internalType": "uint256",
          "name": "tokenId",
          "type": "uint256"
        }
      ],
      "name": "ownerOf",
      "outputs": [
        {
          "internalType": "address",
          "name": "",
          "type": "address"
        }
      ],
      "stateMutability": "view",
      "type": "function",
      "constant": true
    },
    {
      "inputs": [
        {
          "internalType": "address",
          "name": "from",
          "type": "address"
        },
        {
          "internalType": "address",
          "name": "to",
          "type": "address"
        },
        {
          "internalType": "uint256",
          "name": "tokenId",
          "type": "uint256"
        }
      ],
      "name": "safeTransferFrom",
      "outputs": [],
      "stateMutability": "nonpayable",
      "type": "function"
    },
    {
      "inputs": [
        {
          "internalType": "address",
          "name": "from",
          "type": "address"
        },
        {
          "internalType": "address",
          "name": "to",
          "type": "address"
        },
        {
          "internalType": "uint256",
          "name": "tokenId",
          "type": "uint256"
        },
        {
          "internalType": "bytes",
          "name": "_data",
          "type": "bytes"
        }
      ],
      "name": "safeTransferFrom",
      "outputs": [],
      "stateMutability": "nonpayable",
      "type": "function"
    },
    {
      "inputs": [
        {
          "internalType": "address",
          "name": "operator",
          "type": "address"
        },
        {
          "internalType": "bool",
          "name": "approved",
          "type": "bool"
        }
      ],
      "name": "setApprovalForAll",
      "outputs": [],
      "stateMutability": "nonpayable",
      "type": "function"
    },
    {
      "inputs": [
        {
          "internalType": "bytes4",
          "name": "interfaceId",
          "type": "bytes4"
        }
      ],
      "name": "supportsInterface",
      "outputs": [
        {
          "internalType": "bool",
          "name": "",
          "type": "bool"
        }
      ],
      "stateMutability": "view",
      "type": "function",
      "constant": true
    },
    {
      "inputs": [],
      "name": "symbol",
      "outputs": [
        {
          "internalType": "string",
          "name": "",
          "type": "string"
        }
      ],
      "stateMutability": "view",
      "type": "function",
      "constant": true
    },
    {
      "inputs": [
        {
          "internalType": "uint256",
          "name": "tokenId",
          "type": "uint256"
        }
      ],
      "name": "tokenURI",
      "outputs": [
        {
          "internalType": "string",
          "name": "",
          "type": "string"
        }
      ],
      "stateMutability": "view",
      "type": "function",
      "constant": true
    },
    {
      "inputs": [
        {
          "internalType": "uint256",
          "name": "",
          "type": "uint256"
        }
      ],
      "name": "tokenURIs",
      "outputs": [
        {
          "internalType": "string",
          "name": "",
          "type": "string"
        }
      ],
      "stateMutability": "view",
      "type": "function",
      "constant": true
    },
    {
      "inputs": [
        {
          "internalType": "address",
          "name": "from",
          "type": "address"
        },
        {
          "internalType": "address",
          "name": "to",
          "type": "address"
        },
        {
          "internalType": "uint256",
          "name": "tokenId",
          "type": "uint256"
        }
      ],
      "name": "transferFrom",
      "outputs": [],
      "stateMutability": "nonpayable",
      "type": "function"
    },
    {
      "inputs": [
        {
          "internalType": "address",
          "name": "recipient",
          "type": "address"
        },
        {
          "internalType": "string",
          "name": "hash",
          "type": "string"
        },
        {
          "internalType": "string",
          "name": "metadata",
          "type": "string"
        }
      ],
      "name": "awardItem",
      "outputs": [
        {
          "internalType": "uint256",
          "name": "",
          "type": "uint256"
        }
      ],
      "stateMutability": "nonpayable",
      "type": "function"
    }
  ],
  "bytecode": "0x60806040523480156200001157600080fd5b50604080518082018252600b81527f556e69717565417373657400000000000000000000000000000000000000000060208083019182528351808501909452600384527f554e4100000000000000000000000000000000000000000000000000000000009084015281519192916200008c91600091620000ab565b508051620000a2906001906020840190620000ab565b505050620001a7565b828054620000b99062000151565b90600052602060002090601f016020900481019282620000dd576000855562000128565b82601f10620000f857805160ff191683800117855562000128565b8280016001018555821562000128579182015b82811115620001285782518255916020019190600101906200010b565b50620001369291506200013a565b5090565b5b808211156200013657600081556001016200013b565b6002810460018216806200016657607f821691505b60208210811415620001a1577f4e487b7100000000000000000000000000000000000000000000000000000000600052602260045260246000fd5b50919050565b61181280620001b76000396000f3fe608060405234801561001057600080fd5b5060043610610112576000357c0100000000000000000000000000000000000000000000000000000000900480636c8b703f116100b4578063a22cb46511610083578063a22cb4651461021c578063b88d4fde1461022f578063c87b56dd14610242578063e985e9c51461025557600080fd5b80636c8b703f146101cd57806370a08231146101e05780638bfaf1011461020157806395d89b411461021457600080fd5b8063095ea7b3116100f0578063095ea7b31461017f57806323b872dd1461019457806342842e0e146101a75780636352211e146101ba57600080fd5b806301ffc9a71461011757806306fdde031461013f578063081812fc14610154575b600080fd5b61012a610125366004611253565b610291565b60405190151581526020015b60405180910390f35b61014761032e565b60405161013691906112c8565b6101676101623660046112db565b6103c0565b604051600160a060020a039091168152602001610136565b61019261018d366004611310565b61046e565b005b6101926101a236600461133a565b6105a6565b6101926101b536600461133a565b6105da565b6101676101c83660046112db565b6105f5565b6101476101db3660046112db565b610683565b6101f36101ee366004611376565b61071d565b604051908152602001610136565b6101f361020f366004611440565b6107ba565b61014761080c565b61019261022a3660046114b4565b61081b565b61019261023d3660046114f0565b61082a565b6101476102503660046112db565b610865565b61012a61026336600461156c565b600160a060020a03918216600090815260056020908152604080832093909416825291909152205460ff1690565b6000600160e060020a031982167f80ac58cd0000000000000000000000000000000000000000000000000000000014806102f45750600160e060020a031982167f5b5e139f00000000000000000000000000000000000000000000000000000000145b8061032857507f01ffc9a700000000000000000000000000000000000000000000000000000000600160e060020a03198316145b92915050565b60606000805461033d9061159f565b80601f01602080910402602001604051908101604052809291908181526020018280546103699061159f565b80156103b65780601f1061038b576101008083540402835291602001916103b6565b820191906000526020600020905b81548152906001019060200180831161039957829003601f168201915b5050505050905090565b600081815260026020526040812054600160a060020a03166104525760405160e560020a62461bcd02815260206004820152602c60248201527f4552433732313a20617070726f76656420717565727920666f72206e6f6e657860448201527f697374656e7420746f6b656e000000000000000000000000000000000000000060648201526084015b60405180910390fd5b50600090815260046020526040902054600160a060020a031690565b6000610479826105f5565b905080600160a060020a031683600160a060020a031614156105065760405160e560020a62461bcd02815260206004820152602160248201527f4552433732313a20617070726f76616c20746f2063757272656e74206f776e6560448201527f72000000000000000000000000000000000000000000000000000000000000006064820152608401610449565b33600160a060020a038216148061052257506105228133610263565b6105975760405160e560020a62461bcd02815260206004820152603860248201527f4552433732313a20617070726f76652063616c6c6572206973206e6f74206f7760448201527f6e6572206e6f7220617070726f76656420666f7220616c6c00000000000000006064820152608401610449565b6105a1838361095e565b505050565b6105b033826109d9565b6105cf5760405160e560020a62461bcd028152600401610449906115dd565b6105a1838383610ae0565b6105a18383836040518060200160405280600081525061082a565b600081815260026020526040812054600160a060020a0316806103285760405160e560020a62461bcd02815260206004820152602960248201527f4552433732313a206f776e657220717565727920666f72206e6f6e657869737460448201527f656e7420746f6b656e00000000000000000000000000000000000000000000006064820152608401610449565b6007602052600090815260409020805461069c9061159f565b80601f01602080910402602001604051908101604052809291908181526020018280546106c89061159f565b80156107155780601f106106ea57610100808354040283529160200191610715565b820191906000526020600020905b8154815290600101906020018083116106f857829003601f168201915b505050505081565b6000600160a060020a03821661079e5760405160e560020a62461bcd02815260206004820152602a60248201527f4552433732313a2062616c616e636520717565727920666f7220746865207a6560448201527f726f2061646472657373000000000000000000000000000000000000000000006064820152608401610449565b50600160a060020a031660009081526003602052604090205490565b60006107ca600680546001019055565b60006107d560065490565b600081815260076020908152604090912085519293506107f99290918601906111a1565b506108048582610cc0565b949350505050565b60606001805461033d9061159f565b610826338383610e15565b5050565b61083433836109d9565b6108535760405160e560020a62461bcd028152600401610449906115dd565b61085f84848484610ee7565b50505050565b600081815260026020526040902054606090600160a060020a03166108f55760405160e560020a62461bcd02815260206004820152602f60248201527f4552433732314d657461646174613a2055524920717565727920666f72206e6f60448201527f6e6578697374656e7420746f6b656e00000000000000000000000000000000006064820152608401610449565b600061090c60408051602081019091526000815290565b9050600081511161092c5760405180602001604052806000815250610957565b8061093684610f1d565b60405160200161094792919061163a565b6040516020818303038152906040525b9392505050565b6000818152600460205260409020805473ffffffffffffffffffffffffffffffffffffffff1916600160a060020a03841690811790915581906109a0826105f5565b600160a060020a03167f8c5be1e5ebec7d5bd14f71427d1e84f3dd0314c0f7b2291e5b200ac8c7c3b92560405160405180910390a45050565b600081815260026020526040812054600160a060020a0316610a665760405160e560020a62461bcd02815260206004820152602c60248201527f4552433732313a206f70657261746f7220717565727920666f72206e6f6e657860448201527f697374656e7420746f6b656e00000000000000000000000000000000000000006064820152608401610449565b6000610a71836105f5565b905080600160a060020a031684600160a060020a03161480610aac575083600160a060020a0316610aa1846103c0565b600160a060020a0316145b806108045750600160a060020a0380821660009081526005602090815260408083209388168352929052205460ff16610804565b82600160a060020a0316610af3826105f5565b600160a060020a031614610b725760405160e560020a62461bcd02815260206004820152602960248201527f4552433732313a207472616e73666572206f6620746f6b656e2074686174206960448201527f73206e6f74206f776e00000000000000000000000000000000000000000000006064820152608401610449565b600160a060020a038216610bf05760405160e560020a62461bcd028152602060048201526024808201527f4552433732313a207472616e7366657220746f20746865207a65726f2061646460448201527f72657373000000000000000000000000000000000000000000000000000000006064820152608401610449565b610bfb60008261095e565b600160a060020a0383166000908152600360205260408120805460019290610c24908490611682565b9091555050600160a060020a0382166000908152600360205260408120805460019290610c52908490611699565b9091555050600081815260026020526040808220805473ffffffffffffffffffffffffffffffffffffffff1916600160a060020a0386811691821790925591518493918716917fddf252ad1be2c89b69c2b068fc378daa952ba7f163c4a11628f55a4df523b3ef91a4505050565b600160a060020a038216610d195760405160e560020a62461bcd02815260206004820181905260248201527f4552433732313a206d696e7420746f20746865207a65726f20616464726573736044820152606401610449565b600081815260026020526040902054600160a060020a031615610d815760405160e560020a62461bcd02815260206004820152601c60248201527f4552433732313a20746f6b656e20616c7265616479206d696e746564000000006044820152606401610449565b600160a060020a0382166000908152600360205260408120805460019290610daa908490611699565b9091555050600081815260026020526040808220805473ffffffffffffffffffffffffffffffffffffffff1916600160a060020a03861690811790915590518392907fddf252ad1be2c89b69c2b068fc378daa952ba7f163c4a11628f55a4df523b3ef908290a45050565b81600160a060020a031683600160a060020a03161415610e7a5760405160e560020a62461bcd02815260206004820152601960248201527f4552433732313a20617070726f766520746f2063616c6c6572000000000000006044820152606401610449565b600160a060020a03838116600081815260056020908152604080832094871680845294825291829020805460ff191686151590811790915591519182527f17307eab39ab6107e8899845ad3d59bd9653f200f220920489ca2b5937696c31910160405180910390a3505050565b610ef2848484610ae0565b610efe8484848461106e565b61085f5760405160e560020a62461bcd028152600401610449906116b1565b606081610f5d57505060408051808201909152600181527f3000000000000000000000000000000000000000000000000000000000000000602082015290565b8160005b8115610f875780610f718161170e565b9150610f809050600a83611742565b9150610f61565b60008167ffffffffffffffff811115610fa257610fa2611391565b6040519080825280601f01601f191660200182016040528015610fcc576020820181803683370190505b5090505b841561080457610fe1600183611682565b9150610fee600a86611756565b610ff9906030611699565b7f01000000000000000000000000000000000000000000000000000000000000000281838151811061102d5761102d61176a565b60200101907effffffffffffffffffffffffffffffffffffffffffffffffffffffffffffff1916908160001a905350611067600a86611742565b9450610fd0565b6000600160a060020a0384163b15611196576040517f150b7a02000000000000000000000000000000000000000000000000000000008152600160a060020a0385169063150b7a02906110cb903390899088908890600401611783565b6020604051808303816000875af1925050508015611106575060408051601f3d908101601f19168201909252611103918101906117bf565b60015b611163573d808015611134576040519150601f19603f3d011682016040523d82523d6000602084013e611139565b606091505b50805161115b5760405160e560020a62461bcd028152600401610449906116b1565b805181602001fd5b600160e060020a0319167f150b7a0200000000000000000000000000000000000000000000000000000000149050610804565b506001949350505050565b8280546111ad9061159f565b90600052602060002090601f0160209004810192826111cf5760008555611215565b82601f106111e857805160ff1916838001178555611215565b82800160010185558215611215579182015b828111156112155782518255916020019190600101906111fa565b50611221929150611225565b5090565b5b808211156112215760008155600101611226565b600160e060020a03198116811461125057600080fd5b50565b60006020828403121561126557600080fd5b81356109578161123a565b60005b8381101561128b578181015183820152602001611273565b8381111561085f5750506000910152565b600081518084526112b4816020860160208601611270565b601f01601f19169290920160200192915050565b602081526000610957602083018461129c565b6000602082840312156112ed57600080fd5b5035919050565b8035600160a060020a038116811461130b57600080fd5b919050565b6000806040838503121561132357600080fd5b61132c836112f4565b946020939093013593505050565b60008060006060848603121561134f57600080fd5b611358846112f4565b9250611366602085016112f4565b9150604084013590509250925092565b60006020828403121561138857600080fd5b610957826112f4565b60e060020a634e487b7102600052604160045260246000fd5b600067ffffffffffffffff808411156113c5576113c5611391565b604051601f8501601f19908116603f011681019082821181831017156113ed576113ed611391565b8160405280935085815286868601111561140657600080fd5b858560208301376000602087830101525050509392505050565b600082601f83011261143157600080fd5b610957838335602085016113aa565b60008060006060848603121561145557600080fd5b61145e846112f4565b9250602084013567ffffffffffffffff8082111561147b57600080fd5b61148787838801611420565b9350604086013591508082111561149d57600080fd5b506114aa86828701611420565b9150509250925092565b600080604083850312156114c757600080fd5b6114d0836112f4565b9150602083013580151581146114e557600080fd5b809150509250929050565b6000806000806080858703121561150657600080fd5b61150f856112f4565b935061151d602086016112f4565b925060408501359150606085013567ffffffffffffffff81111561154057600080fd5b8501601f8101871361155157600080fd5b611560878235602084016113aa565b91505092959194509250565b6000806040838503121561157f57600080fd5b611588836112f4565b9150611596602084016112f4565b90509250929050565b6002810460018216806115b357607f821691505b602082108114156115d75760e060020a634e487b7102600052602260045260246000fd5b50919050565b60208082526031908201527f4552433732313a207472616e736665722063616c6c6572206973206e6f74206f60408201527f776e6572206e6f7220617070726f766564000000000000000000000000000000606082015260800190565b6000835161164c818460208801611270565b835190830190611660818360208801611270565b01949350505050565b60e060020a634e487b7102600052601160045260246000fd5b60008282101561169457611694611669565b500390565b600082198211156116ac576116ac611669565b500190565b60208082526032908201527f4552433732313a207472616e7366657220746f206e6f6e20455243373231526560408201527f63656976657220696d706c656d656e7465720000000000000000000000000000606082015260800190565b600060001982141561172257611722611669565b5060010190565b60e060020a634e487b7102600052601260045260246000fd5b60008261175157611751611729565b500490565b60008261176557611765611729565b500690565b60e060020a634e487b7102600052603260045260246000fd5b6000600160a060020a038087168352808616602084015250836040830152608060608301526117b5608083018461129c565b9695505050505050565b6000602082840312156117d157600080fd5b81516109578161123a56fea2646970667358221220c1bc83368727cd118aee78b660c73fcec5f41b436139220c06767dbf48cbc59464736f6c634300080b0033",
  "immutableReferences": {},
  "source": "pragma solidity >=0.4.22 <0.9.0;\n\nimport '../node_modules/@openzeppelin/contracts/token/ERC721/ERC721.sol';\nimport '../node_modules/@openzeppelin/contracts/utils/Counters.sol';\n\ncontract UniqueAsset is ERC721{\n\n    using Counters for Counters.Counter;\n    Counters.Counter private _tokenIds;\n    mapping(uint256 => string) public tokenURIs;\n    \n\n    constructor() public ERC721(\"UniqueAsset\",\"UNA\"){}\n    \n    function awardItem(address recipient, string memory hash, string memory metadata) public returns (uint256){\n        _tokenIds.increment();\n        uint256 newItemId = _tokenIds.current();\n        tokenURIs[newItemId] = metadata;\n        _mint(recipient, newItemId);\n        return newItemId;\n    }\n\n}",
  "sourcePath": "/Users/sid/Desktop/projects/FYP21050/server/blockchain/contracts/UniqueAsset.sol",
  "compiler": {
    "name": "solc",
    "version": "0.8.11+commit.d7f03943.Emscripten.clang"
  },
  "schemaVersion": "3.3.4",
  "updatedAt": "2022-01-12T06:35:10.554Z",
  "networkType": "ethereum",
  "devdoc": {
    "kind": "dev",
    "methods": {
      "approve(address,uint256)": {
        "details": "See {IERC721-approve}."
      },
      "balanceOf(address)": {
        "details": "See {IERC721-balanceOf}."
      },
      "getApproved(uint256)": {
        "details": "See {IERC721-getApproved}."
      },
      "isApprovedForAll(address,address)": {
        "details": "See {IERC721-isApprovedForAll}."
      },
      "name()": {
        "details": "See {IERC721Metadata-name}."
      },
      "ownerOf(uint256)": {
        "details": "See {IERC721-ownerOf}."
      },
      "safeTransferFrom(address,address,uint256)": {
        "details": "See {IERC721-safeTransferFrom}."
      },
      "safeTransferFrom(address,address,uint256,bytes)": {
        "details": "See {IERC721-safeTransferFrom}."
      },
      "setApprovalForAll(address,bool)": {
        "details": "See {IERC721-setApprovalForAll}."
      },
      "supportsInterface(bytes4)": {
        "details": "See {IERC165-supportsInterface}."
      },
      "symbol()": {
        "details": "See {IERC721Metadata-symbol}."
      },
      "tokenURI(uint256)": {
        "details": "See {IERC721Metadata-tokenURI}."
      },
      "transferFrom(address,address,uint256)": {
        "details": "See {IERC721-transferFrom}."
      }
    },
    "version": 1
  },
  "userdoc": {
    "kind": "user",
    "methods": {},
    "version": 1
  }
}