{
  "contractName": "UniqueAsset",
  "abi": [
    {
      "inputs": [],
      "stateMutability": "nonpayable",
      "type": "constructor"
    },
    {
      "anonymous": false,
      "inputs": [
        {
          "indexed": true,
          "internalType": "address",
          "name": "owner",
          "type": "address"
        },
        {
          "indexed": true,
          "internalType": "address",
          "name": "approved",
          "type": "address"
        },
        {
          "indexed": true,
          "internalType": "uint256",
          "name": "tokenId",
          "type": "uint256"
        }
      ],
      "name": "Approval",
      "type": "event"
    },
    {
      "anonymous": false,
      "inputs": [
        {
          "indexed": true,
          "internalType": "address",
          "name": "owner",
          "type": "address"
        },
        {
          "indexed": true,
          "internalType": "address",
          "name": "operator",
          "type": "address"
        },
        {
          "indexed": false,
          "internalType": "bool",
          "name": "approved",
          "type": "bool"
        }
      ],
      "name": "ApprovalForAll",
      "type": "event"
    },
    {
      "anonymous": false,
      "inputs": [
        {
          "indexed": true,
          "internalType": "address",
          "name": "from",
          "type": "address"
        },
        {
          "indexed": true,
          "internalType": "address",
          "name": "to",
          "type": "address"
        },
        {
          "indexed": true,
          "internalType": "uint256",
          "name": "tokenId",
          "type": "uint256"
        }
      ],
      "name": "Transfer",
      "type": "event"
    },
    {
      "inputs": [
        {
          "internalType": "address",
          "name": "to",
          "type": "address"
        },
        {
          "internalType": "uint256",
          "name": "tokenId",
          "type": "uint256"
        }
      ],
      "name": "approve",
      "outputs": [],
      "stateMutability": "nonpayable",
      "type": "function"
    },
    {
      "inputs": [
        {
          "internalType": "address",
          "name": "owner",
          "type": "address"
        }
      ],
      "name": "balanceOf",
      "outputs": [
        {
          "internalType": "uint256",
          "name": "",
          "type": "uint256"
        }
      ],
      "stateMutability": "view",
      "type": "function",
      "constant": true
    },
    {
      "inputs": [
        {
          "internalType": "uint256",
          "name": "tokenId",
          "type": "uint256"
        }
      ],
      "name": "getApproved",
      "outputs": [
        {
          "internalType": "address",
          "name": "",
          "type": "address"
        }
      ],
      "stateMutability": "view",
      "type": "function",
      "constant": true
    },
    {
      "inputs": [
        {
          "internalType": "address",
          "name": "owner",
          "type": "address"
        },
        {
          "internalType": "address",
          "name": "operator",
          "type": "address"
        }
      ],
      "name": "isApprovedForAll",
      "outputs": [
        {
          "internalType": "bool",
          "name": "",
          "type": "bool"
        }
      ],
      "stateMutability": "view",
      "type": "function",
      "constant": true
    },
    {
      "inputs": [],
      "name": "name",
      "outputs": [
        {
          "internalType": "string",
          "name": "",
          "type": "string"
        }
      ],
      "stateMutability": "view",
      "type": "function",
      "constant": true
    },
    {
      "inputs": [
        {
          "internalType": "uint256",
          "name": "tokenId",
          "type": "uint256"
        }
      ],
      "name": "ownerOf",
      "outputs": [
        {
          "internalType": "address",
          "name": "",
          "type": "address"
        }
      ],
      "stateMutability": "view",
      "type": "function",
      "constant": true
    },
    {
      "inputs": [
        {
          "internalType": "address",
          "name": "from",
          "type": "address"
        },
        {
          "internalType": "address",
          "name": "to",
          "type": "address"
        },
        {
          "internalType": "uint256",
          "name": "tokenId",
          "type": "uint256"
        }
      ],
      "name": "safeTransferFrom",
      "outputs": [],
      "stateMutability": "nonpayable",
      "type": "function"
    },
    {
      "inputs": [
        {
          "internalType": "address",
          "name": "from",
          "type": "address"
        },
        {
          "internalType": "address",
          "name": "to",
          "type": "address"
        },
        {
          "internalType": "uint256",
          "name": "tokenId",
          "type": "uint256"
        },
        {
          "internalType": "bytes",
          "name": "_data",
          "type": "bytes"
        }
      ],
      "name": "safeTransferFrom",
      "outputs": [],
      "stateMutability": "nonpayable",
      "type": "function"
    },
    {
      "inputs": [
        {
          "internalType": "address",
          "name": "operator",
          "type": "address"
        },
        {
          "internalType": "bool",
          "name": "approved",
          "type": "bool"
        }
      ],
      "name": "setApprovalForAll",
      "outputs": [],
      "stateMutability": "nonpayable",
      "type": "function"
    },
    {
      "inputs": [
        {
          "internalType": "bytes4",
          "name": "interfaceId",
          "type": "bytes4"
        }
      ],
      "name": "supportsInterface",
      "outputs": [
        {
          "internalType": "bool",
          "name": "",
          "type": "bool"
        }
      ],
      "stateMutability": "view",
      "type": "function",
      "constant": true
    },
    {
      "inputs": [],
      "name": "symbol",
      "outputs": [
        {
          "internalType": "string",
          "name": "",
          "type": "string"
        }
      ],
      "stateMutability": "view",
      "type": "function",
      "constant": true
    },
    {
      "inputs": [
        {
          "internalType": "uint256",
          "name": "tokenId",
          "type": "uint256"
        }
      ],
      "name": "tokenURI",
      "outputs": [
        {
          "internalType": "string",
          "name": "",
          "type": "string"
        }
      ],
      "stateMutability": "view",
      "type": "function",
      "constant": true
    },
    {
      "inputs": [
        {
          "internalType": "address",
          "name": "from",
          "type": "address"
        },
        {
          "internalType": "address",
          "name": "to",
          "type": "address"
        },
        {
          "internalType": "uint256",
          "name": "tokenId",
          "type": "uint256"
        }
      ],
      "name": "transferFrom",
      "outputs": [],
      "stateMutability": "nonpayable",
      "type": "function"
    },
    {
      "inputs": [
        {
          "internalType": "address",
          "name": "recipient",
          "type": "address"
        },
        {
          "internalType": "string",
          "name": "hash",
          "type": "string"
        },
        {
          "internalType": "string",
          "name": "metadata",
          "type": "string"
        }
      ],
      "name": "awardItem",
      "outputs": [
        {
          "internalType": "uint256",
          "name": "",
          "type": "uint256"
        }
      ],
      "stateMutability": "nonpayable",
      "type": "function"
    },
    {
      "inputs": [],
      "name": "abc",
      "outputs": [
        {
          "internalType": "string",
          "name": "",
          "type": "string"
        }
      ],
      "stateMutability": "nonpayable",
      "type": "function"
    }
  ],
  "bytecode": "0x60806040523480156200001157600080fd5b50604080518082018252600b81527f556e69717565417373657400000000000000000000000000000000000000000060208083019182528351808501909452600384527f554e4100000000000000000000000000000000000000000000000000000000009084015281519192916200008c91600091620000ab565b508051620000a2906001906020840190620000ab565b505050620001a7565b828054620000b99062000151565b90600052602060002090601f016020900481019282620000dd576000855562000128565b82601f10620000f857805160ff191683800117855562000128565b8280016001018555821562000128579182015b82811115620001285782518255916020019190600101906200010b565b50620001369291506200013a565b5090565b5b808211156200013657600081556001016200013b565b6002810460018216806200016657607f821691505b60208210811415620001a1577f4e487b7100000000000000000000000000000000000000000000000000000000600052602260045260246000fd5b50919050565b611a0580620001b76000396000f3fe608060405234801561001057600080fd5b5060043610610112576000357c01000000000000000000000000000000000000000000000000000000009004806370a08231116100b4578063a22cb46511610083578063a22cb46514610242578063b88d4fde14610255578063c87b56dd14610268578063e985e9c51461027b57600080fd5b806370a08231146101cd5780638bfaf101146101ee578063922779331461020157806395d89b411461023a57600080fd5b8063095ea7b3116100f0578063095ea7b31461017f57806323b872dd1461019457806342842e0e146101a75780636352211e146101ba57600080fd5b806301ffc9a71461011757806306fdde031461013f578063081812fc14610154575b600080fd5b61012a61012536600461142a565b6102b7565b60405190151581526020015b60405180910390f35b610147610354565b604051610136919061149f565b6101676101623660046114b2565b6103e6565b604051600160a060020a039091168152602001610136565b61019261018d3660046114e7565b610487565b005b6101926101a2366004611511565b6105bf565b6101926101b5366004611511565b6105f3565b6101676101c83660046114b2565b61060e565b6101e06101db36600461154d565b61069c565b604051908152602001610136565b6101e06101fc366004611617565b610739565b60408051808201909152600381527f61626300000000000000000000000000000000000000000000000000000000006020820152610147565b6101476107d7565b61019261025036600461168b565b6107e6565b6101926102633660046116c7565b6107f5565b6101476102763660046114b2565b610830565b61012a610289366004611743565b600160a060020a03918216600090815260056020908152604080832093909416825291909152205460ff1690565b6000600160e060020a031982167f80ac58cd00000000000000000000000000000000000000000000000000000000148061031a5750600160e060020a031982167f5b5e139f00000000000000000000000000000000000000000000000000000000145b8061034e57507f01ffc9a700000000000000000000000000000000000000000000000000000000600160e060020a03198316145b92915050565b60606000805461036390611776565b80601f016020809104026020016040519081016040528092919081815260200182805461038f90611776565b80156103dc5780601f106103b1576101008083540402835291602001916103dc565b820191906000526020600020905b8154815290600101906020018083116103bf57829003601f168201915b5050505050905090565b60006103f1826109ae565b61046b5760405160e560020a62461bcd02815260206004820152602c60248201527f4552433732313a20617070726f76656420717565727920666f72206e6f6e657860448201527f697374656e7420746f6b656e000000000000000000000000000000000000000060648201526084015b60405180910390fd5b50600090815260046020526040902054600160a060020a031690565b60006104928261060e565b905080600160a060020a031683600160a060020a0316141561051f5760405160e560020a62461bcd02815260206004820152602160248201527f4552433732313a20617070726f76616c20746f2063757272656e74206f776e6560448201527f72000000000000000000000000000000000000000000000000000000000000006064820152608401610462565b33600160a060020a038216148061053b575061053b8133610289565b6105b05760405160e560020a62461bcd02815260206004820152603860248201527f4552433732313a20617070726f76652063616c6c6572206973206e6f74206f7760448201527f6e6572206e6f7220617070726f76656420666f7220616c6c00000000000000006064820152608401610462565b6105ba83836109cb565b505050565b6105c93382610a46565b6105e85760405160e560020a62461bcd028152600401610462906117b4565b6105ba838383610b40565b6105ba838383604051806020016040528060008152506107f5565b600081815260026020526040812054600160a060020a03168061034e5760405160e560020a62461bcd02815260206004820152602960248201527f4552433732313a206f776e657220717565727920666f72206e6f6e657869737460448201527f656e7420746f6b656e00000000000000000000000000000000000000000000006064820152608401610462565b6000600160a060020a03821661071d5760405160e560020a62461bcd02815260206004820152602a60248201527f4552433732313a2062616c616e636520717565727920666f7220746865207a6560448201527f726f2061646472657373000000000000000000000000000000000000000000006064820152608401610462565b50600160a060020a031660009081526003602052604090205490565b600060088360405161074b9190611811565b9081526040519081900360200190205460ff166001141561076b57600080fd5b600160088460405161077d9190611811565b908152604051908190036020019020805460ff9290921660ff199092169190911790556107ae600780546001019055565b60006107b960075490565b90506107c58582610d20565b6107cf8184610e66565b949350505050565b60606001805461036390611776565b6107f1338383610f03565b5050565b6107ff3383610a46565b61081e5760405160e560020a62461bcd028152600401610462906117b4565b61082a84848484610fd5565b50505050565b606061083b826109ae565b6108b05760405160e560020a62461bcd02815260206004820152603160248201527f45524337323155524953746f726167653a2055524920717565727920666f722060448201527f6e6f6e6578697374656e7420746f6b656e0000000000000000000000000000006064820152608401610462565b600082815260066020526040812080546108c990611776565b80601f01602080910402602001604051908101604052809291908181526020018280546108f590611776565b80156109425780601f1061091757610100808354040283529160200191610942565b820191906000526020600020905b81548152906001019060200180831161092557829003601f168201915b50505050509050600061096060408051602081019091526000815290565b9050805160001415610973575092915050565b8151156109a557808260405160200161098d92919061182d565b60405160208183030381529060405292505050919050565b6107cf8461100b565b600090815260026020526040902054600160a060020a0316151590565b6000818152600460205260409020805473ffffffffffffffffffffffffffffffffffffffff1916600160a060020a0384169081179091558190610a0d8261060e565b600160a060020a03167f8c5be1e5ebec7d5bd14f71427d1e84f3dd0314c0f7b2291e5b200ac8c7c3b92560405160405180910390a45050565b6000610a51826109ae565b610ac65760405160e560020a62461bcd02815260206004820152602c60248201527f4552433732313a206f70657261746f7220717565727920666f72206e6f6e657860448201527f697374656e7420746f6b656e00000000000000000000000000000000000000006064820152608401610462565b6000610ad18361060e565b905080600160a060020a031684600160a060020a03161480610b0c575083600160a060020a0316610b01846103e6565b600160a060020a0316145b806107cf5750600160a060020a0380821660009081526005602090815260408083209388168352929052205460ff166107cf565b82600160a060020a0316610b538261060e565b600160a060020a031614610bd25760405160e560020a62461bcd02815260206004820152602960248201527f4552433732313a207472616e73666572206f6620746f6b656e2074686174206960448201527f73206e6f74206f776e00000000000000000000000000000000000000000000006064820152608401610462565b600160a060020a038216610c505760405160e560020a62461bcd028152602060048201526024808201527f4552433732313a207472616e7366657220746f20746865207a65726f2061646460448201527f72657373000000000000000000000000000000000000000000000000000000006064820152608401610462565b610c5b6000826109cb565b600160a060020a0383166000908152600360205260408120805460019290610c84908490611875565b9091555050600160a060020a0382166000908152600360205260408120805460019290610cb290849061188c565b9091555050600081815260026020526040808220805473ffffffffffffffffffffffffffffffffffffffff1916600160a060020a0386811691821790925591518493918716917fddf252ad1be2c89b69c2b068fc378daa952ba7f163c4a11628f55a4df523b3ef91a4505050565b600160a060020a038216610d795760405160e560020a62461bcd02815260206004820181905260248201527f4552433732313a206d696e7420746f20746865207a65726f20616464726573736044820152606401610462565b610d82816109ae565b15610dd25760405160e560020a62461bcd02815260206004820152601c60248201527f4552433732313a20746f6b656e20616c7265616479206d696e746564000000006044820152606401610462565b600160a060020a0382166000908152600360205260408120805460019290610dfb90849061188c565b9091555050600081815260026020526040808220805473ffffffffffffffffffffffffffffffffffffffff1916600160a060020a03861690811790915590518392907fddf252ad1be2c89b69c2b068fc378daa952ba7f163c4a11628f55a4df523b3ef908290a45050565b610e6f826109ae565b610ee45760405160e560020a62461bcd02815260206004820152602e60248201527f45524337323155524953746f726167653a2055524920736574206f66206e6f6e60448201527f6578697374656e7420746f6b656e0000000000000000000000000000000000006064820152608401610462565b600082815260066020908152604090912082516105ba92840190611378565b81600160a060020a031683600160a060020a03161415610f685760405160e560020a62461bcd02815260206004820152601960248201527f4552433732313a20617070726f766520746f2063616c6c6572000000000000006044820152606401610462565b600160a060020a03838116600081815260056020908152604080832094871680845294825291829020805460ff191686151590811790915591519182527f17307eab39ab6107e8899845ad3d59bd9653f200f220920489ca2b5937696c31910160405180910390a3505050565b610fe0848484610b40565b610fec848484846110f4565b61082a5760405160e560020a62461bcd028152600401610462906118a4565b6060611016826109ae565b61108b5760405160e560020a62461bcd02815260206004820152602f60248201527f4552433732314d657461646174613a2055524920717565727920666f72206e6f60448201527f6e6578697374656e7420746f6b656e00000000000000000000000000000000006064820152608401610462565b60006110a260408051602081019091526000815290565b905060008151116110c257604051806020016040528060008152506110ed565b806110cc84611227565b6040516020016110dd92919061182d565b6040516020818303038152906040525b9392505050565b6000600160a060020a0384163b1561121c576040517f150b7a02000000000000000000000000000000000000000000000000000000008152600160a060020a0385169063150b7a0290611151903390899088908890600401611901565b6020604051808303816000875af192505050801561118c575060408051601f3d908101601f191682019092526111899181019061193d565b60015b6111e9573d8080156111ba576040519150601f19603f3d011682016040523d82523d6000602084013e6111bf565b606091505b5080516111e15760405160e560020a62461bcd028152600401610462906118a4565b805181602001fd5b600160e060020a0319167f150b7a02000000000000000000000000000000000000000000000000000000001490506107cf565b506001949350505050565b60608161126757505060408051808201909152600181527f3000000000000000000000000000000000000000000000000000000000000000602082015290565b8160005b8115611291578061127b8161195a565b915061128a9050600a8361198e565b915061126b565b60008167ffffffffffffffff8111156112ac576112ac611568565b6040519080825280601f01601f1916602001820160405280156112d6576020820181803683370190505b5090505b84156107cf576112eb600183611875565b91506112f8600a866119a2565b61130390603061188c565b7f010000000000000000000000000000000000000000000000000000000000000002818381518110611337576113376119b6565b60200101907effffffffffffffffffffffffffffffffffffffffffffffffffffffffffffff1916908160001a905350611371600a8661198e565b94506112da565b82805461138490611776565b90600052602060002090601f0160209004810192826113a657600085556113ec565b82601f106113bf57805160ff19168380011785556113ec565b828001600101855582156113ec579182015b828111156113ec5782518255916020019190600101906113d1565b506113f89291506113fc565b5090565b5b808211156113f857600081556001016113fd565b600160e060020a03198116811461142757600080fd5b50565b60006020828403121561143c57600080fd5b81356110ed81611411565b60005b8381101561146257818101518382015260200161144a565b8381111561082a5750506000910152565b6000815180845261148b816020860160208601611447565b601f01601f19169290920160200192915050565b6020815260006110ed6020830184611473565b6000602082840312156114c457600080fd5b5035919050565b8035600160a060020a03811681146114e257600080fd5b919050565b600080604083850312156114fa57600080fd5b611503836114cb565b946020939093013593505050565b60008060006060848603121561152657600080fd5b61152f846114cb565b925061153d602085016114cb565b9150604084013590509250925092565b60006020828403121561155f57600080fd5b6110ed826114cb565b60e060020a634e487b7102600052604160045260246000fd5b600067ffffffffffffffff8084111561159c5761159c611568565b604051601f8501601f19908116603f011681019082821181831017156115c4576115c4611568565b816040528093508581528686860111156115dd57600080fd5b858560208301376000602087830101525050509392505050565b600082601f83011261160857600080fd5b6110ed83833560208501611581565b60008060006060848603121561162c57600080fd5b611635846114cb565b9250602084013567ffffffffffffffff8082111561165257600080fd5b61165e878388016115f7565b9350604086013591508082111561167457600080fd5b50611681868287016115f7565b9150509250925092565b6000806040838503121561169e57600080fd5b6116a7836114cb565b9150602083013580151581146116bc57600080fd5b809150509250929050565b600080600080608085870312156116dd57600080fd5b6116e6856114cb565b93506116f4602086016114cb565b925060408501359150606085013567ffffffffffffffff81111561171757600080fd5b8501601f8101871361172857600080fd5b61173787823560208401611581565b91505092959194509250565b6000806040838503121561175657600080fd5b61175f836114cb565b915061176d602084016114cb565b90509250929050565b60028104600182168061178a57607f821691505b602082108114156117ae5760e060020a634e487b7102600052602260045260246000fd5b50919050565b60208082526031908201527f4552433732313a207472616e736665722063616c6c6572206973206e6f74206f60408201527f776e6572206e6f7220617070726f766564000000000000000000000000000000606082015260800190565b60008251611823818460208701611447565b9190910192915050565b6000835161183f818460208801611447565b835190830190611853818360208801611447565b01949350505050565b60e060020a634e487b7102600052601160045260246000fd5b6000828210156118875761188761185c565b500390565b6000821982111561189f5761189f61185c565b500190565b60208082526032908201527f4552433732313a207472616e7366657220746f206e6f6e20455243373231526560408201527f63656976657220696d706c656d656e7465720000000000000000000000000000606082015260800190565b6000600160a060020a038087168352808616602084015250836040830152608060608301526119336080830184611473565b9695505050505050565b60006020828403121561194f57600080fd5b81516110ed81611411565b600060001982141561196e5761196e61185c565b5060010190565b60e060020a634e487b7102600052601260045260246000fd5b60008261199d5761199d611975565b500490565b6000826119b1576119b1611975565b500690565b60e060020a634e487b7102600052603260045260246000fdfea26469706673582212202e214cb776443614c4136ddcc0cbbf156a368d50493b90b106f29945ffd7c80b64736f6c634300080b0033",
  "immutableReferences": {},
  "source": "pragma solidity >=0.4.22 <0.9.0;\n\nimport '../node_modules/@openzeppelin/contracts/token/ERC721/ERC721.sol';\nimport '../node_modules/@openzeppelin/contracts/token/ERC721/extensions/ERC721URIStorage.sol';\nimport '../node_modules/@openzeppelin/contracts/utils/Counters.sol';\n\ncontract UniqueAsset is ERC721URIStorage{\n\n    using Counters for Counters.Counter;\n    Counters.Counter private _tokenIds;\n    mapping(string => uint8) hashes;\n    \n\n    constructor() public ERC721(\"UniqueAsset\",\"UNA\"){}\n    \n    function awardItem(address recipient, string memory hash, string memory metadata) public returns (uint256){\n        require(hashes[hash] != 1);\n        hashes[hash] = 1;\n        _tokenIds.increment();\n        uint256 newItemId = _tokenIds.current();\n        _mint(recipient, newItemId);\n        _setTokenURI(newItemId, metadata);\n        return newItemId;\n    }\n\n    function abc() public returns (string memory){\n        return 'abc';\n    }\n\n}",
  "sourcePath": "/Users/sid/Desktop/projects/FYP21050/server/blockchain/contracts/UniqueAsset.sol",
  "compiler": {
    "name": "solc",
    "version": "0.8.11+commit.d7f03943.Emscripten.clang"
  },
  "schemaVersion": "3.3.4",
  "updatedAt": "2022-01-08T15:26:08.360Z",
  "networkType": "ethereum",
  "devdoc": {
    "kind": "dev",
    "methods": {
      "approve(address,uint256)": {
        "details": "See {IERC721-approve}."
      },
      "balanceOf(address)": {
        "details": "See {IERC721-balanceOf}."
      },
      "getApproved(uint256)": {
        "details": "See {IERC721-getApproved}."
      },
      "isApprovedForAll(address,address)": {
        "details": "See {IERC721-isApprovedForAll}."
      },
      "name()": {
        "details": "See {IERC721Metadata-name}."
      },
      "ownerOf(uint256)": {
        "details": "See {IERC721-ownerOf}."
      },
      "safeTransferFrom(address,address,uint256)": {
        "details": "See {IERC721-safeTransferFrom}."
      },
      "safeTransferFrom(address,address,uint256,bytes)": {
        "details": "See {IERC721-safeTransferFrom}."
      },
      "setApprovalForAll(address,bool)": {
        "details": "See {IERC721-setApprovalForAll}."
      },
      "supportsInterface(bytes4)": {
        "details": "See {IERC165-supportsInterface}."
      },
      "symbol()": {
        "details": "See {IERC721Metadata-symbol}."
      },
      "tokenURI(uint256)": {
        "details": "See {IERC721Metadata-tokenURI}."
      },
      "transferFrom(address,address,uint256)": {
        "details": "See {IERC721-transferFrom}."
      }
    },
    "version": 1
  },
  "userdoc": {
    "kind": "user",
    "methods": {},
    "version": 1
  }
}