{
  "contractName": "UniqueAsset",
  "abi": [
    {
      "inputs": [],
      "stateMutability": "nonpayable",
      "type": "constructor"
    },
    {
      "anonymous": false,
      "inputs": [
        {
          "indexed": true,
          "internalType": "address",
          "name": "owner",
          "type": "address"
        },
        {
          "indexed": true,
          "internalType": "address",
          "name": "approved",
          "type": "address"
        },
        {
          "indexed": true,
          "internalType": "uint256",
          "name": "tokenId",
          "type": "uint256"
        }
      ],
      "name": "Approval",
      "type": "event"
    },
    {
      "anonymous": false,
      "inputs": [
        {
          "indexed": true,
          "internalType": "address",
          "name": "owner",
          "type": "address"
        },
        {
          "indexed": true,
          "internalType": "address",
          "name": "operator",
          "type": "address"
        },
        {
          "indexed": false,
          "internalType": "bool",
          "name": "approved",
          "type": "bool"
        }
      ],
      "name": "ApprovalForAll",
      "type": "event"
    },
    {
      "anonymous": false,
      "inputs": [
        {
          "indexed": true,
          "internalType": "address",
          "name": "from",
          "type": "address"
        },
        {
          "indexed": true,
          "internalType": "address",
          "name": "to",
          "type": "address"
        },
        {
          "indexed": true,
          "internalType": "uint256",
          "name": "tokenId",
          "type": "uint256"
        }
      ],
      "name": "Transfer",
      "type": "event"
    },
    {
      "inputs": [
        {
          "internalType": "address",
          "name": "to",
          "type": "address"
        },
        {
          "internalType": "uint256",
          "name": "tokenId",
          "type": "uint256"
        }
      ],
      "name": "approve",
      "outputs": [],
      "stateMutability": "nonpayable",
      "type": "function"
    },
    {
      "inputs": [
        {
          "internalType": "address",
          "name": "owner",
          "type": "address"
        }
      ],
      "name": "balanceOf",
      "outputs": [
        {
          "internalType": "uint256",
          "name": "",
          "type": "uint256"
        }
      ],
      "stateMutability": "view",
      "type": "function"
    },
    {
      "inputs": [
        {
          "internalType": "uint256",
          "name": "tokenId",
          "type": "uint256"
        }
      ],
      "name": "getApproved",
      "outputs": [
        {
          "internalType": "address",
          "name": "",
          "type": "address"
        }
      ],
      "stateMutability": "view",
      "type": "function"
    },
    {
      "inputs": [
        {
          "internalType": "address",
          "name": "owner",
          "type": "address"
        },
        {
          "internalType": "address",
          "name": "operator",
          "type": "address"
        }
      ],
      "name": "isApprovedForAll",
      "outputs": [
        {
          "internalType": "bool",
          "name": "",
          "type": "bool"
        }
      ],
      "stateMutability": "view",
      "type": "function"
    },
    {
      "inputs": [],
      "name": "name",
      "outputs": [
        {
          "internalType": "string",
          "name": "",
          "type": "string"
        }
      ],
      "stateMutability": "view",
      "type": "function"
    },
    {
      "inputs": [
        {
          "internalType": "uint256",
          "name": "tokenId",
          "type": "uint256"
        }
      ],
      "name": "ownerOf",
      "outputs": [
        {
          "internalType": "address",
          "name": "",
          "type": "address"
        }
      ],
      "stateMutability": "view",
      "type": "function"
    },
    {
      "inputs": [
        {
          "internalType": "address",
          "name": "from",
          "type": "address"
        },
        {
          "internalType": "address",
          "name": "to",
          "type": "address"
        },
        {
          "internalType": "uint256",
          "name": "tokenId",
          "type": "uint256"
        }
      ],
      "name": "safeTransferFrom",
      "outputs": [],
      "stateMutability": "nonpayable",
      "type": "function"
    },
    {
      "inputs": [
        {
          "internalType": "address",
          "name": "from",
          "type": "address"
        },
        {
          "internalType": "address",
          "name": "to",
          "type": "address"
        },
        {
          "internalType": "uint256",
          "name": "tokenId",
          "type": "uint256"
        },
        {
          "internalType": "bytes",
          "name": "_data",
          "type": "bytes"
        }
      ],
      "name": "safeTransferFrom",
      "outputs": [],
      "stateMutability": "nonpayable",
      "type": "function"
    },
    {
      "inputs": [
        {
          "internalType": "address",
          "name": "operator",
          "type": "address"
        },
        {
          "internalType": "bool",
          "name": "approved",
          "type": "bool"
        }
      ],
      "name": "setApprovalForAll",
      "outputs": [],
      "stateMutability": "nonpayable",
      "type": "function"
    },
    {
      "inputs": [
        {
          "internalType": "bytes4",
          "name": "interfaceId",
          "type": "bytes4"
        }
      ],
      "name": "supportsInterface",
      "outputs": [
        {
          "internalType": "bool",
          "name": "",
          "type": "bool"
        }
      ],
      "stateMutability": "view",
      "type": "function"
    },
    {
      "inputs": [],
      "name": "symbol",
      "outputs": [
        {
          "internalType": "string",
          "name": "",
          "type": "string"
        }
      ],
      "stateMutability": "view",
      "type": "function"
    },
    {
      "inputs": [
        {
          "internalType": "uint256",
          "name": "tokenId",
          "type": "uint256"
        }
      ],
      "name": "tokenURI",
      "outputs": [
        {
          "internalType": "string",
          "name": "",
          "type": "string"
        }
      ],
      "stateMutability": "view",
      "type": "function"
    },
    {
      "inputs": [
        {
          "internalType": "address",
          "name": "from",
          "type": "address"
        },
        {
          "internalType": "address",
          "name": "to",
          "type": "address"
        },
        {
          "internalType": "uint256",
          "name": "tokenId",
          "type": "uint256"
        }
      ],
      "name": "transferFrom",
      "outputs": [],
      "stateMutability": "nonpayable",
      "type": "function"
    },
    {
      "inputs": [
        {
          "internalType": "address",
          "name": "recipient",
          "type": "address"
        },
        {
          "internalType": "string",
          "name": "hash",
          "type": "string"
        },
        {
          "internalType": "string",
          "name": "metadata",
          "type": "string"
        }
      ],
      "name": "awardItem",
      "outputs": [
        {
          "internalType": "uint256",
          "name": "",
          "type": "uint256"
        }
      ],
      "stateMutability": "nonpayable",
      "type": "function"
    }
  ],
  "bytecode": "0x60806040523480156200001157600080fd5b506040518060400160405280600b81526020017f556e6971756541737365740000000000000000000000000000000000000000008152506040518060400160405280600381526020017f554e410000000000000000000000000000000000000000000000000000000000815250816000908051906020019062000096929190620000b8565b508060019080519060200190620000af929190620000b8565b505050620001cd565b828054620000c69062000197565b90600052602060002090601f016020900481019282620000ea576000855562000136565b82601f106200010557805160ff191683800117855562000136565b8280016001018555821562000136579182015b828111156200013557825182559160200191906001019062000118565b5b50905062000145919062000149565b5090565b5b80821115620001645760008160009055506001016200014a565b5090565b7f4e487b7100000000000000000000000000000000000000000000000000000000600052602260045260246000fd5b60006002820490506001821680620001b057607f821691505b60208210811415620001c757620001c662000168565b5b50919050565b612c5180620001dd6000396000f3fe608060405234801561001057600080fd5b50600436106100ea5760003560e01c806370a082311161008c578063a22cb46511610066578063a22cb4651461026f578063b88d4fde1461028b578063c87b56dd146102a7578063e985e9c5146102d7576100ea565b806370a08231146101f15780638bfaf1011461022157806395d89b4114610251576100ea565b8063095ea7b3116100c8578063095ea7b31461016d57806323b872dd1461018957806342842e0e146101a55780636352211e146101c1576100ea565b806301ffc9a7146100ef57806306fdde031461011f578063081812fc1461013d575b600080fd5b6101096004803603810190610104919061196d565b610307565b60405161011691906119b5565b60405180910390f35b6101276103e9565b6040516101349190611a69565b60405180910390f35b61015760048036038101906101529190611ac1565b61047b565b6040516101649190611b2f565b60405180910390f35b61018760048036038101906101829190611b76565b610500565b005b6101a3600480360381019061019e9190611bb6565b610618565b005b6101bf60048036038101906101ba9190611bb6565b610678565b005b6101db60048036038101906101d69190611ac1565b610698565b6040516101e89190611b2f565b60405180910390f35b61020b60048036038101906102069190611c09565b61074a565b6040516102189190611c45565b60405180910390f35b61023b60048036038101906102369190611d95565b610802565b6040516102489190611c45565b60405180910390f35b6102596108af565b6040516102669190611a69565b60405180910390f35b61028960048036038101906102849190611e4c565b610941565b005b6102a560048036038101906102a09190611f2d565b610957565b005b6102c160048036038101906102bc9190611ac1565b6109b9565b6040516102ce9190611a69565b60405180910390f35b6102f160048036038101906102ec9190611fb0565b610b0b565b6040516102fe91906119b5565b60405180910390f35b60007f80ac58cd000000000000000000000000000000000000000000000000000000007bffffffffffffffffffffffffffffffffffffffffffffffffffffffff1916827bffffffffffffffffffffffffffffffffffffffffffffffffffffffff191614806103d257507f5b5e139f000000000000000000000000000000000000000000000000000000007bffffffffffffffffffffffffffffffffffffffffffffffffffffffff1916827bffffffffffffffffffffffffffffffffffffffffffffffffffffffff1916145b806103e257506103e182610b9f565b5b9050919050565b6060600080546103f89061201f565b80601f01602080910402602001604051908101604052809291908181526020018280546104249061201f565b80156104715780601f1061044657610100808354040283529160200191610471565b820191906000526020600020905b81548152906001019060200180831161045457829003601f168201915b5050505050905090565b600061048682610c09565b6104c5576040517f08c379a00000000000000000000000000000000000000000000000000000000081526004016104bc906120c3565b60405180910390fd5b6004600083815260200190815260200160002060009054906101000a900473ffffffffffffffffffffffffffffffffffffffff169050919050565b600061050b82610698565b90508073ffffffffffffffffffffffffffffffffffffffff168373ffffffffffffffffffffffffffffffffffffffff16141561057c576040517f08c379a000000000000000000000000000000000000000000000000000000000815260040161057390612155565b60405180910390fd5b8073ffffffffffffffffffffffffffffffffffffffff1661059b610c75565b73ffffffffffffffffffffffffffffffffffffffff1614806105ca57506105c9816105c4610c75565b610b0b565b5b610609576040517f08c379a0000000000000000000000000000000000000000000000000000000008152600401610600906121e7565b60405180910390fd5b6106138383610c7d565b505050565b610629610623610c75565b82610d36565b610668576040517f08c379a000000000000000000000000000000000000000000000000000000000815260040161065f90612279565b60405180910390fd5b610673838383610e14565b505050565b61069383838360405180602001604052806000815250610957565b505050565b6000806002600084815260200190815260200160002060009054906101000a900473ffffffffffffffffffffffffffffffffffffffff169050600073ffffffffffffffffffffffffffffffffffffffff168173ffffffffffffffffffffffffffffffffffffffff161415610741576040517f08c379a00000000000000000000000000000000000000000000000000000000081526004016107389061230b565b60405180910390fd5b80915050919050565b60008073ffffffffffffffffffffffffffffffffffffffff168273ffffffffffffffffffffffffffffffffffffffff1614156107bb576040517f08c379a00000000000000000000000000000000000000000000000000000000081526004016107b29061239d565b60405180910390fd5b600360008373ffffffffffffffffffffffffffffffffffffffff1673ffffffffffffffffffffffffffffffffffffffff168152602001908152602001600020549050919050565b6000600160088460405161081691906123f9565b908152602001604051809103902060009054906101000a900460ff1660ff16141561084057600080fd5b600160088460405161085291906123f9565b908152602001604051809103902060006101000a81548160ff021916908360ff1602179055506108826007611070565b600061088e6007611086565b905061089a8582611094565b6108a48184611262565b809150509392505050565b6060600180546108be9061201f565b80601f01602080910402602001604051908101604052809291908181526020018280546108ea9061201f565b80156109375780601f1061090c57610100808354040283529160200191610937565b820191906000526020600020905b81548152906001019060200180831161091a57829003601f168201915b5050505050905090565b61095361094c610c75565b83836112d6565b5050565b610968610962610c75565b83610d36565b6109a7576040517f08c379a000000000000000000000000000000000000000000000000000000000815260040161099e90612279565b60405180910390fd5b6109b384848484611443565b50505050565b60606109c482610c09565b610a03576040517f08c379a00000000000000000000000000000000000000000000000000000000081526004016109fa90612482565b60405180910390fd5b6000600660008481526020019081526020016000208054610a239061201f565b80601f0160208091040260200160405190810160405280929190818152602001828054610a4f9061201f565b8015610a9c5780601f10610a7157610100808354040283529160200191610a9c565b820191906000526020600020905b815481529060010190602001808311610a7f57829003601f168201915b505050505090506000610aad61149f565b9050600081511415610ac3578192505050610b06565b600082511115610af8578082604051602001610ae09291906124a2565b60405160208183030381529060405292505050610b06565b610b01846114b6565b925050505b919050565b6000600560008473ffffffffffffffffffffffffffffffffffffffff1673ffffffffffffffffffffffffffffffffffffffff16815260200190815260200160002060008373ffffffffffffffffffffffffffffffffffffffff1673ffffffffffffffffffffffffffffffffffffffff16815260200190815260200160002060009054906101000a900460ff16905092915050565b60007f01ffc9a7000000000000000000000000000000000000000000000000000000007bffffffffffffffffffffffffffffffffffffffffffffffffffffffff1916827bffffffffffffffffffffffffffffffffffffffffffffffffffffffff1916149050919050565b60008073ffffffffffffffffffffffffffffffffffffffff166002600084815260200190815260200160002060009054906101000a900473ffffffffffffffffffffffffffffffffffffffff1673ffffffffffffffffffffffffffffffffffffffff1614159050919050565b600033905090565b816004600083815260200190815260200160002060006101000a81548173ffffffffffffffffffffffffffffffffffffffff021916908373ffffffffffffffffffffffffffffffffffffffff160217905550808273ffffffffffffffffffffffffffffffffffffffff16610cf083610698565b73ffffffffffffffffffffffffffffffffffffffff167f8c5be1e5ebec7d5bd14f71427d1e84f3dd0314c0f7b2291e5b200ac8c7c3b92560405160405180910390a45050565b6000610d4182610c09565b610d80576040517f08c379a0000000000000000000000000000000000000000000000000000000008152600401610d7790612538565b60405180910390fd5b6000610d8b83610698565b90508073ffffffffffffffffffffffffffffffffffffffff168473ffffffffffffffffffffffffffffffffffffffff161480610dfa57508373ffffffffffffffffffffffffffffffffffffffff16610de28461047b565b73ffffffffffffffffffffffffffffffffffffffff16145b80610e0b5750610e0a8185610b0b565b5b91505092915050565b8273ffffffffffffffffffffffffffffffffffffffff16610e3482610698565b73ffffffffffffffffffffffffffffffffffffffff1614610e8a576040517f08c379a0000000000000000000000000000000000000000000000000000000008152600401610e81906125ca565b60405180910390fd5b600073ffffffffffffffffffffffffffffffffffffffff168273ffffffffffffffffffffffffffffffffffffffff161415610efa576040517f08c379a0000000000000000000000000000000000000000000000000000000008152600401610ef19061265c565b60405180910390fd5b610f0583838361155d565b610f10600082610c7d565b6001600360008573ffffffffffffffffffffffffffffffffffffffff1673ffffffffffffffffffffffffffffffffffffffff1681526020019081526020016000206000828254610f6091906126ab565b925050819055506001600360008473ffffffffffffffffffffffffffffffffffffffff1673ffffffffffffffffffffffffffffffffffffffff1681526020019081526020016000206000828254610fb791906126df565b92505081905550816002600083815260200190815260200160002060006101000a81548173ffffffffffffffffffffffffffffffffffffffff021916908373ffffffffffffffffffffffffffffffffffffffff160217905550808273ffffffffffffffffffffffffffffffffffffffff168473ffffffffffffffffffffffffffffffffffffffff167fddf252ad1be2c89b69c2b068fc378daa952ba7f163c4a11628f55a4df523b3ef60405160405180910390a4505050565b6001816000016000828254019250508190555050565b600081600001549050919050565b600073ffffffffffffffffffffffffffffffffffffffff168273ffffffffffffffffffffffffffffffffffffffff161415611104576040517f08c379a00000000000000000000000000000000000000000000000000000000081526004016110fb90612781565b60405180910390fd5b61110d81610c09565b1561114d576040517f08c379a0000000000000000000000000000000000000000000000000000000008152600401611144906127ed565b60405180910390fd5b6111596000838361155d565b6001600360008473ffffffffffffffffffffffffffffffffffffffff1673ffffffffffffffffffffffffffffffffffffffff16815260200190815260200160002060008282546111a991906126df565b92505081905550816002600083815260200190815260200160002060006101000a81548173ffffffffffffffffffffffffffffffffffffffff021916908373ffffffffffffffffffffffffffffffffffffffff160217905550808273ffffffffffffffffffffffffffffffffffffffff16600073ffffffffffffffffffffffffffffffffffffffff167fddf252ad1be2c89b69c2b068fc378daa952ba7f163c4a11628f55a4df523b3ef60405160405180910390a45050565b61126b82610c09565b6112aa576040517f08c379a00000000000000000000000000000000000000000000000000000000081526004016112a19061287f565b60405180910390fd5b806006600084815260200190815260200160002090805190602001906112d192919061185e565b505050565b8173ffffffffffffffffffffffffffffffffffffffff168373ffffffffffffffffffffffffffffffffffffffff161415611345576040517f08c379a000000000000000000000000000000000000000000000000000000000815260040161133c906128eb565b60405180910390fd5b80600560008573ffffffffffffffffffffffffffffffffffffffff1673ffffffffffffffffffffffffffffffffffffffff16815260200190815260200160002060008473ffffffffffffffffffffffffffffffffffffffff1673ffffffffffffffffffffffffffffffffffffffff16815260200190815260200160002060006101000a81548160ff0219169083151502179055508173ffffffffffffffffffffffffffffffffffffffff168373ffffffffffffffffffffffffffffffffffffffff167f17307eab39ab6107e8899845ad3d59bd9653f200f220920489ca2b5937696c318360405161143691906119b5565b60405180910390a3505050565b61144e848484610e14565b61145a84848484611562565b611499576040517f08c379a00000000000000000000000000000000000000000000000000000000081526004016114909061297d565b60405180910390fd5b50505050565b606060405180602001604052806000815250905090565b60606114c182610c09565b611500576040517f08c379a00000000000000000000000000000000000000000000000000000000081526004016114f790612a0f565b60405180910390fd5b600061150a61149f565b9050600081511161152a5760405180602001604052806000815250611555565b80611534846116ea565b6040516020016115459291906124a2565b6040516020818303038152906040525b915050919050565b505050565b60006115838473ffffffffffffffffffffffffffffffffffffffff1661184b565b156116dd578373ffffffffffffffffffffffffffffffffffffffff1663150b7a026115ac610c75565b8786866040518563ffffffff1660e01b81526004016115ce9493929190612a84565b6020604051808303816000875af192505050801561160a57506040513d601f19601f820116820180604052508101906116079190612ae5565b60015b61168d573d806000811461163a576040519150601f19603f3d011682016040523d82523d6000602084013e61163f565b606091505b50600081511415611685576040517f08c379a000000000000000000000000000000000000000000000000000000000815260040161167c9061297d565b60405180910390fd5b805181602001fd5b63150b7a0260e01b7bffffffffffffffffffffffffffffffffffffffffffffffffffffffff1916817bffffffffffffffffffffffffffffffffffffffffffffffffffffffff1916149150506116e2565b600190505b949350505050565b60606000821415611732576040518060400160405280600181526020017f30000000000000000000000000000000000000000000000000000000000000008152509050611846565b600082905060005b6000821461176457808061174d90612b12565b915050600a8261175d9190612b8a565b915061173a565b60008167ffffffffffffffff8111156117805761177f611c6a565b5b6040519080825280601f01601f1916602001820160405280156117b25781602001600182028036833780820191505090505b5090505b6000851461183f576001826117cb91906126ab565b9150600a856117da9190612bbb565b60306117e691906126df565b60f81b8183815181106117fc576117fb612bec565b5b60200101907effffffffffffffffffffffffffffffffffffffffffffffffffffffffffffff1916908160001a905350600a856118389190612b8a565b94506117b6565b8093505050505b919050565b600080823b905060008111915050919050565b82805461186a9061201f565b90600052602060002090601f01602090048101928261188c57600085556118d3565b82601f106118a557805160ff19168380011785556118d3565b828001600101855582156118d3579182015b828111156118d25782518255916020019190600101906118b7565b5b5090506118e091906118e4565b5090565b5b808211156118fd5760008160009055506001016118e5565b5090565b6000604051905090565b600080fd5b600080fd5b60007fffffffff0000000000000000000000000000000000000000000000000000000082169050919050565b61194a81611915565b811461195557600080fd5b50565b60008135905061196781611941565b92915050565b6000602082840312156119835761198261190b565b5b600061199184828501611958565b91505092915050565b60008115159050919050565b6119af8161199a565b82525050565b60006020820190506119ca60008301846119a6565b92915050565b600081519050919050565b600082825260208201905092915050565b60005b83811015611a0a5780820151818401526020810190506119ef565b83811115611a19576000848401525b50505050565b6000601f19601f8301169050919050565b6000611a3b826119d0565b611a4581856119db565b9350611a558185602086016119ec565b611a5e81611a1f565b840191505092915050565b60006020820190508181036000830152611a838184611a30565b905092915050565b6000819050919050565b611a9e81611a8b565b8114611aa957600080fd5b50565b600081359050611abb81611a95565b92915050565b600060208284031215611ad757611ad661190b565b5b6000611ae584828501611aac565b91505092915050565b600073ffffffffffffffffffffffffffffffffffffffff82169050919050565b6000611b1982611aee565b9050919050565b611b2981611b0e565b82525050565b6000602082019050611b446000830184611b20565b92915050565b611b5381611b0e565b8114611b5e57600080fd5b50565b600081359050611b7081611b4a565b92915050565b60008060408385031215611b8d57611b8c61190b565b5b6000611b9b85828601611b61565b9250506020611bac85828601611aac565b9150509250929050565b600080600060608486031215611bcf57611bce61190b565b5b6000611bdd86828701611b61565b9350506020611bee86828701611b61565b9250506040611bff86828701611aac565b9150509250925092565b600060208284031215611c1f57611c1e61190b565b5b6000611c2d84828501611b61565b91505092915050565b611c3f81611a8b565b82525050565b6000602082019050611c5a6000830184611c36565b92915050565b600080fd5b600080fd5b7f4e487b7100000000000000000000000000000000000000000000000000000000600052604160045260246000fd5b611ca282611a1f565b810181811067ffffffffffffffff82111715611cc157611cc0611c6a565b5b80604052505050565b6000611cd4611901565b9050611ce08282611c99565b919050565b600067ffffffffffffffff821115611d0057611cff611c6a565b5b611d0982611a1f565b9050602081019050919050565b82818337600083830152505050565b6000611d38611d3384611ce5565b611cca565b905082815260208101848484011115611d5457611d53611c65565b5b611d5f848285611d16565b509392505050565b600082601f830112611d7c57611d7b611c60565b5b8135611d8c848260208601611d25565b91505092915050565b600080600060608486031215611dae57611dad61190b565b5b6000611dbc86828701611b61565b935050602084013567ffffffffffffffff811115611ddd57611ddc611910565b5b611de986828701611d67565b925050604084013567ffffffffffffffff811115611e0a57611e09611910565b5b611e1686828701611d67565b9150509250925092565b611e298161199a565b8114611e3457600080fd5b50565b600081359050611e4681611e20565b92915050565b60008060408385031215611e6357611e6261190b565b5b6000611e7185828601611b61565b9250506020611e8285828601611e37565b9150509250929050565b600067ffffffffffffffff821115611ea757611ea6611c6a565b5b611eb082611a1f565b9050602081019050919050565b6000611ed0611ecb84611e8c565b611cca565b905082815260208101848484011115611eec57611eeb611c65565b5b611ef7848285611d16565b509392505050565b600082601f830112611f1457611f13611c60565b5b8135611f24848260208601611ebd565b91505092915050565b60008060008060808587031215611f4757611f4661190b565b5b6000611f5587828801611b61565b9450506020611f6687828801611b61565b9350506040611f7787828801611aac565b925050606085013567ffffffffffffffff811115611f9857611f97611910565b5b611fa487828801611eff565b91505092959194509250565b60008060408385031215611fc757611fc661190b565b5b6000611fd585828601611b61565b9250506020611fe685828601611b61565b9150509250929050565b7f4e487b7100000000000000000000000000000000000000000000000000000000600052602260045260246000fd5b6000600282049050600182168061203757607f821691505b6020821081141561204b5761204a611ff0565b5b50919050565b7f4552433732313a20617070726f76656420717565727920666f72206e6f6e657860008201527f697374656e7420746f6b656e0000000000000000000000000000000000000000602082015250565b60006120ad602c836119db565b91506120b882612051565b604082019050919050565b600060208201905081810360008301526120dc816120a0565b9050919050565b7f4552433732313a20617070726f76616c20746f2063757272656e74206f776e6560008201527f7200000000000000000000000000000000000000000000000000000000000000602082015250565b600061213f6021836119db565b915061214a826120e3565b604082019050919050565b6000602082019050818103600083015261216e81612132565b9050919050565b7f4552433732313a20617070726f76652063616c6c6572206973206e6f74206f7760008201527f6e6572206e6f7220617070726f76656420666f7220616c6c0000000000000000602082015250565b60006121d16038836119db565b91506121dc82612175565b604082019050919050565b60006020820190508181036000830152612200816121c4565b9050919050565b7f4552433732313a207472616e736665722063616c6c6572206973206e6f74206f60008201527f776e6572206e6f7220617070726f766564000000000000000000000000000000602082015250565b60006122636031836119db565b915061226e82612207565b604082019050919050565b6000602082019050818103600083015261229281612256565b9050919050565b7f4552433732313a206f776e657220717565727920666f72206e6f6e657869737460008201527f656e7420746f6b656e0000000000000000000000000000000000000000000000602082015250565b60006122f56029836119db565b915061230082612299565b604082019050919050565b60006020820190508181036000830152612324816122e8565b9050919050565b7f4552433732313a2062616c616e636520717565727920666f7220746865207a6560008201527f726f206164647265737300000000000000000000000000000000000000000000602082015250565b6000612387602a836119db565b91506123928261232b565b604082019050919050565b600060208201905081810360008301526123b68161237a565b9050919050565b600081905092915050565b60006123d3826119d0565b6123dd81856123bd565b93506123ed8185602086016119ec565b80840191505092915050565b600061240582846123c8565b915081905092915050565b7f45524337323155524953746f726167653a2055524920717565727920666f722060008201527f6e6f6e6578697374656e7420746f6b656e000000000000000000000000000000602082015250565b600061246c6031836119db565b915061247782612410565b604082019050919050565b6000602082019050818103600083015261249b8161245f565b9050919050565b60006124ae82856123c8565b91506124ba82846123c8565b91508190509392505050565b7f4552433732313a206f70657261746f7220717565727920666f72206e6f6e657860008201527f697374656e7420746f6b656e0000000000000000000000000000000000000000602082015250565b6000612522602c836119db565b915061252d826124c6565b604082019050919050565b6000602082019050818103600083015261255181612515565b9050919050565b7f4552433732313a207472616e73666572206f6620746f6b656e2074686174206960008201527f73206e6f74206f776e0000000000000000000000000000000000000000000000602082015250565b60006125b46029836119db565b91506125bf82612558565b604082019050919050565b600060208201905081810360008301526125e3816125a7565b9050919050565b7f4552433732313a207472616e7366657220746f20746865207a65726f2061646460008201527f7265737300000000000000000000000000000000000000000000000000000000602082015250565b60006126466024836119db565b9150612651826125ea565b604082019050919050565b6000602082019050818103600083015261267581612639565b9050919050565b7f4e487b7100000000000000000000000000000000000000000000000000000000600052601160045260246000fd5b60006126b682611a8b565b91506126c183611a8b565b9250828210156126d4576126d361267c565b5b828203905092915050565b60006126ea82611a8b565b91506126f583611a8b565b9250827fffffffffffffffffffffffffffffffffffffffffffffffffffffffffffffffff0382111561272a5761272961267c565b5b828201905092915050565b7f4552433732313a206d696e7420746f20746865207a65726f2061646472657373600082015250565b600061276b6020836119db565b915061277682612735565b602082019050919050565b6000602082019050818103600083015261279a8161275e565b9050919050565b7f4552433732313a20746f6b656e20616c7265616479206d696e74656400000000600082015250565b60006127d7601c836119db565b91506127e2826127a1565b602082019050919050565b60006020820190508181036000830152612806816127ca565b9050919050565b7f45524337323155524953746f726167653a2055524920736574206f66206e6f6e60008201527f6578697374656e7420746f6b656e000000000000000000000000000000000000602082015250565b6000612869602e836119db565b91506128748261280d565b604082019050919050565b600060208201905081810360008301526128988161285c565b9050919050565b7f4552433732313a20617070726f766520746f2063616c6c657200000000000000600082015250565b60006128d56019836119db565b91506128e08261289f565b602082019050919050565b60006020820190508181036000830152612904816128c8565b9050919050565b7f4552433732313a207472616e7366657220746f206e6f6e20455243373231526560008201527f63656976657220696d706c656d656e7465720000000000000000000000000000602082015250565b60006129676032836119db565b91506129728261290b565b604082019050919050565b600060208201905081810360008301526129968161295a565b9050919050565b7f4552433732314d657461646174613a2055524920717565727920666f72206e6f60008201527f6e6578697374656e7420746f6b656e0000000000000000000000000000000000602082015250565b60006129f9602f836119db565b9150612a048261299d565b604082019050919050565b60006020820190508181036000830152612a28816129ec565b9050919050565b600081519050919050565b600082825260208201905092915050565b6000612a5682612a2f565b612a608185612a3a565b9350612a708185602086016119ec565b612a7981611a1f565b840191505092915050565b6000608082019050612a996000830187611b20565b612aa66020830186611b20565b612ab36040830185611c36565b8181036060830152612ac58184612a4b565b905095945050505050565b600081519050612adf81611941565b92915050565b600060208284031215612afb57612afa61190b565b5b6000612b0984828501612ad0565b91505092915050565b6000612b1d82611a8b565b91507fffffffffffffffffffffffffffffffffffffffffffffffffffffffffffffffff821415612b5057612b4f61267c565b5b600182019050919050565b7f4e487b7100000000000000000000000000000000000000000000000000000000600052601260045260246000fd5b6000612b9582611a8b565b9150612ba083611a8b565b925082612bb057612baf612b5b565b5b828204905092915050565b6000612bc682611a8b565b9150612bd183611a8b565b925082612be157612be0612b5b565b5b828206905092915050565b7f4e487b7100000000000000000000000000000000000000000000000000000000600052603260045260246000fdfea2646970667358221220044cd5c6fc6f011fb015c1ebc7f2cfc54ba9864a2279410bc98dc3eeed4acf9e64736f6c634300080b0033",
  "immutableReferences": {},
  "source": "pragma solidity >=0.4.22 <0.9.0;\n\nimport '../node_modules/@openzeppelin/contracts/token/ERC721/ERC721.sol';\nimport '../node_modules/@openzeppelin/contracts/token/ERC721/extensions/ERC721URIStorage.sol';\nimport '../node_modules/@openzeppelin/contracts/utils/Counters.sol';\n\ncontract UniqueAsset is ERC721URIStorage{\n\n    using Counters for Counters.Counter;\n    Counters.Counter private _tokenIds;\n    mapping(string => uint8) hashes;\n\n    constructor() public ERC721(\"UniqueAsset\",\"UNA\"){}\n\n    function awardItem(address recipient, string memory hash, string memory metadata) public returns (uint256){\n        require(hashes[hash] != 1);\n        hashes[hash] = 1;\n        _tokenIds.increment();\n        uint256 newItemId = _tokenIds.current();\n        _mint(recipient, newItemId);\n        _setTokenURI(newItemId, metadata);\n        return newItemId;\n    }\n}",
  "sourcePath": "/Users/sid/Desktop/projects/FYP21050/server/blockchain/contracts/UniqueAsset.sol",
  "compiler": {
    "name": "solc",
    "version": "0.8.11+commit.d7f03943.Emscripten.clang"
  },
  "schemaVersion": "3.3.4",
  "updatedAt": "2022-01-08T13:38:19.804Z",
  "devdoc": {
    "kind": "dev",
    "methods": {
      "approve(address,uint256)": {
        "details": "See {IERC721-approve}."
      },
      "balanceOf(address)": {
        "details": "See {IERC721-balanceOf}."
      },
      "getApproved(uint256)": {
        "details": "See {IERC721-getApproved}."
      },
      "isApprovedForAll(address,address)": {
        "details": "See {IERC721-isApprovedForAll}."
      },
      "name()": {
        "details": "See {IERC721Metadata-name}."
      },
      "ownerOf(uint256)": {
        "details": "See {IERC721-ownerOf}."
      },
      "safeTransferFrom(address,address,uint256)": {
        "details": "See {IERC721-safeTransferFrom}."
      },
      "safeTransferFrom(address,address,uint256,bytes)": {
        "details": "See {IERC721-safeTransferFrom}."
      },
      "setApprovalForAll(address,bool)": {
        "details": "See {IERC721-setApprovalForAll}."
      },
      "supportsInterface(bytes4)": {
        "details": "See {IERC165-supportsInterface}."
      },
      "symbol()": {
        "details": "See {IERC721Metadata-symbol}."
      },
      "tokenURI(uint256)": {
        "details": "See {IERC721Metadata-tokenURI}."
      },
      "transferFrom(address,address,uint256)": {
        "details": "See {IERC721-transferFrom}."
      }
    },
    "version": 1
  },
  "userdoc": {
    "kind": "user",
    "methods": {},
    "version": 1
  }
}