{
  "contractName": "Users",
  "abi": [
    {
      "inputs": [],
      "name": "userCount",
      "outputs": [
        {
          "internalType": "uint256",
          "name": "",
          "type": "uint256"
        }
      ],
      "stateMutability": "view",
      "type": "function",
      "constant": true
    },
    {
      "inputs": [
        {
          "internalType": "string",
          "name": "username",
          "type": "string"
        },
        {
          "internalType": "string",
          "name": "password",
          "type": "string"
        }
      ],
      "name": "createNewUser",
      "outputs": [],
      "stateMutability": "nonpayable",
      "type": "function"
    }
  ],
  "bytecode": "0x60806040526000805534801561001457600080fd5b506104c6806100246000396000f3fe608060405234801561001057600080fd5b50600436106100365760003560e01c806307973ccf1461003b5780634dfa3f1814610059575b600080fd5b610043610075565b60405161005091906101ca565b60405180910390f35b610073600480360381019061006e919061033f565b61007b565b005b60005481565b60008081548092919061008d906103e6565b9190505550604051806060016040528060005481526020018381526020018281525060016000805481526020019081526020016000206000820151816000015560208201518160010190805190602001906100e992919061010e565b50604082015181600201908051906020019061010692919061010e565b509050505050565b82805461011a9061045e565b90600052602060002090601f01602090048101928261013c5760008555610183565b82601f1061015557805160ff1916838001178555610183565b82800160010185558215610183579182015b82811115610182578251825591602001919060010190610167565b5b5090506101909190610194565b5090565b5b808211156101ad576000816000905550600101610195565b5090565b6000819050919050565b6101c4816101b1565b82525050565b60006020820190506101df60008301846101bb565b92915050565b6000604051905090565b600080fd5b600080fd5b600080fd5b600080fd5b6000601f19601f8301169050919050565b7f4e487b7100000000000000000000000000000000000000000000000000000000600052604160045260246000fd5b61024c82610203565b810181811067ffffffffffffffff8211171561026b5761026a610214565b5b80604052505050565b600061027e6101e5565b905061028a8282610243565b919050565b600067ffffffffffffffff8211156102aa576102a9610214565b5b6102b382610203565b9050602081019050919050565b82818337600083830152505050565b60006102e26102dd8461028f565b610274565b9050828152602081018484840111156102fe576102fd6101fe565b5b6103098482856102c0565b509392505050565b600082601f830112610326576103256101f9565b5b81356103368482602086016102cf565b91505092915050565b60008060408385031215610356576103556101ef565b5b600083013567ffffffffffffffff811115610374576103736101f4565b5b61038085828601610311565b925050602083013567ffffffffffffffff8111156103a1576103a06101f4565b5b6103ad85828601610311565b9150509250929050565b7f4e487b7100000000000000000000000000000000000000000000000000000000600052601160045260246000fd5b60006103f1826101b1565b91507fffffffffffffffffffffffffffffffffffffffffffffffffffffffffffffffff821415610424576104236103b7565b5b600182019050919050565b7f4e487b7100000000000000000000000000000000000000000000000000000000600052602260045260246000fd5b6000600282049050600182168061047657607f821691505b6020821081141561048a5761048961042f565b5b5091905056fea26469706673582212204e4e7caed8b4eb8a49ff75180616eb3a9621f1099d23ad3e2b4a4075bd109d3064736f6c634300080b0033",
  "immutableReferences": {},
  "source": "pragma solidity >=0.4.22 <0.9.0;\n\ncontract Users{\n    struct User{\n        uint id;\n        string username;\n        string password;\n    }\n\n    uint public userCount = 0;\n\n    mapping(uint => User) users;\n\n    function createNewUser(string memory username, string memory password) public {\n        userCount++;\n        users[userCount] = User(userCount, username,password);\n    }\n\n    // update\n\n}",
  "sourcePath": "/Users/sid/Desktop/projects/FYP21050/server/blockchain/contracts/Users.sol",
  "compiler": {
    "name": "solc",
    "version": "0.8.11+commit.d7f03943.Emscripten.clang"
  },
  "schemaVersion": "3.3.4",
  "updatedAt": "2022-01-08T15:26:08.356Z",
  "networkType": "ethereum",
  "devdoc": {
    "kind": "dev",
    "methods": {},
    "version": 1
  },
  "userdoc": {
    "kind": "user",
    "methods": {},
    "version": 1
  }
}