{
  "contractName": "Users",
  "abi": [
    {
      "inputs": [
        {
          "internalType": "uint256",
          "name": "",
          "type": "uint256"
        }
      ],
      "name": "credentials",
      "outputs": [
        {
          "internalType": "uint256",
          "name": "id",
          "type": "uint256"
        },
        {
          "internalType": "uint256",
          "name": "createdBy",
          "type": "uint256"
        },
        {
          "components": [
            {
              "internalType": "string",
              "name": "assetHash",
              "type": "string"
            },
            {
              "internalType": "string",
              "name": "metadataUrl",
              "type": "string"
            }
          ],
          "internalType": "struct Users.CredentialData",
          "name": "data",
          "type": "tuple"
        },
        {
          "internalType": "uint256",
          "name": "currentOwner",
          "type": "uint256"
        },
        {
          "internalType": "bool",
          "name": "isValid",
          "type": "bool"
        },
        {
          "internalType": "string",
          "name": "revocationReason",
          "type": "string"
        },
        {
          "internalType": "string",
          "name": "createdAt",
          "type": "string"
        }
      ],
      "stateMutability": "view",
      "type": "function",
      "constant": true
    },
    {
      "inputs": [],
      "name": "userCount",
      "outputs": [
        {
          "internalType": "uint256",
          "name": "",
          "type": "uint256"
        }
      ],
      "stateMutability": "view",
      "type": "function",
      "constant": true
    },
    {
      "inputs": [
        {
          "internalType": "uint256",
          "name": "",
          "type": "uint256"
        }
      ],
      "name": "users",
      "outputs": [
        {
          "internalType": "uint256",
          "name": "id",
          "type": "uint256"
        },
        {
          "internalType": "string",
          "name": "username",
          "type": "string"
        },
        {
          "internalType": "string",
          "name": "publickKey",
          "type": "string"
        }
      ],
      "stateMutability": "view",
      "type": "function",
      "constant": true
    },
    {
      "inputs": [
        {
          "internalType": "string",
          "name": "username",
          "type": "string"
        },
        {
          "internalType": "string",
          "name": "publicKey",
          "type": "string"
        }
      ],
      "name": "createNewUser",
      "outputs": [],
      "stateMutability": "nonpayable",
      "type": "function"
    },
    {
      "inputs": [
        {
          "internalType": "uint256",
          "name": "id",
          "type": "uint256"
        },
        {
          "internalType": "uint256",
          "name": "credentialId",
          "type": "uint256"
        }
      ],
      "name": "addCredentialToUser",
      "outputs": [],
      "stateMutability": "nonpayable",
      "type": "function"
    },
    {
      "inputs": [
        {
          "internalType": "uint256",
          "name": "id",
          "type": "uint256"
        },
        {
          "internalType": "uint256",
          "name": "credentialId",
          "type": "uint256"
        }
      ],
      "name": "removeCredentialFromUser",
      "outputs": [],
      "stateMutability": "nonpayable",
      "type": "function"
    },
    {
      "inputs": [
        {
          "internalType": "uint256",
          "name": "id",
          "type": "uint256"
        }
      ],
      "name": "getUserById",
      "outputs": [
        {
          "components": [
            {
              "internalType": "uint256",
              "name": "id",
              "type": "uint256"
            },
            {
              "internalType": "string",
              "name": "username",
              "type": "string"
            },
            {
              "internalType": "string",
              "name": "publickKey",
              "type": "string"
            },
            {
              "internalType": "uint256[]",
              "name": "credentialIds",
              "type": "uint256[]"
            }
          ],
          "internalType": "struct Users.User",
          "name": "",
          "type": "tuple"
        }
      ],
      "stateMutability": "view",
      "type": "function",
      "constant": true
    },
    {
      "inputs": [
        {
          "internalType": "string",
          "name": "username",
          "type": "string"
        }
      ],
      "name": "getUserByUsername",
      "outputs": [
        {
          "components": [
            {
              "internalType": "uint256",
              "name": "id",
              "type": "uint256"
            },
            {
              "internalType": "string",
              "name": "username",
              "type": "string"
            },
            {
              "internalType": "string",
              "name": "publickKey",
              "type": "string"
            },
            {
              "internalType": "uint256[]",
              "name": "credentialIds",
              "type": "uint256[]"
            }
          ],
          "internalType": "struct Users.User",
          "name": "",
          "type": "tuple"
        }
      ],
      "stateMutability": "view",
      "type": "function",
      "constant": true
    },
    {
      "inputs": [
        {
          "internalType": "uint256",
          "name": "createdBy",
          "type": "uint256"
        },
        {
          "components": [
            {
              "internalType": "string",
              "name": "assetHash",
              "type": "string"
            },
            {
              "internalType": "string",
              "name": "metadataUrl",
              "type": "string"
            }
          ],
          "internalType": "struct Users.CredentialData",
          "name": "data",
          "type": "tuple"
        },
        {
          "internalType": "string",
          "name": "createdAt",
          "type": "string"
        },
        {
          "internalType": "uint256[]",
          "name": "viewers",
          "type": "uint256[]"
        }
      ],
      "name": "addCredential",
      "outputs": [],
      "stateMutability": "nonpayable",
      "type": "function"
    },
    {
      "inputs": [
        {
          "internalType": "uint256",
          "name": "id",
          "type": "uint256"
        }
      ],
      "name": "getCredentialById",
      "outputs": [
        {
          "components": [
            {
              "internalType": "uint256",
              "name": "id",
              "type": "uint256"
            },
            {
              "internalType": "uint256",
              "name": "createdBy",
              "type": "uint256"
            },
            {
              "components": [
                {
                  "internalType": "string",
                  "name": "assetHash",
                  "type": "string"
                },
                {
                  "internalType": "string",
                  "name": "metadataUrl",
                  "type": "string"
                }
              ],
              "internalType": "struct Users.CredentialData",
              "name": "data",
              "type": "tuple"
            },
            {
              "internalType": "uint256",
              "name": "currentOwner",
              "type": "uint256"
            },
            {
              "internalType": "bool",
              "name": "isValid",
              "type": "bool"
            },
            {
              "internalType": "string",
              "name": "revocationReason",
              "type": "string"
            },
            {
              "internalType": "string",
              "name": "createdAt",
              "type": "string"
            },
            {
              "internalType": "uint256[]",
              "name": "viewers",
              "type": "uint256[]"
            }
          ],
          "internalType": "struct Users.Credential",
          "name": "",
          "type": "tuple"
        }
      ],
      "stateMutability": "view",
      "type": "function",
      "constant": true
    },
    {
      "inputs": [
        {
          "internalType": "uint256",
          "name": "id",
          "type": "uint256"
        },
        {
          "internalType": "uint256",
          "name": "fromId",
          "type": "uint256"
        },
        {
          "internalType": "uint256",
          "name": "toId",
          "type": "uint256"
        }
      ],
      "name": "transferCredential",
      "outputs": [],
      "stateMutability": "nonpayable",
      "type": "function"
    },
    {
      "inputs": [
        {
          "internalType": "uint256",
          "name": "id",
          "type": "uint256"
        },
        {
          "internalType": "uint256",
          "name": "fromId",
          "type": "uint256"
        },
        {
          "internalType": "string",
          "name": "reason",
          "type": "string"
        }
      ],
      "name": "revokeCredential",
      "outputs": [],
      "stateMutability": "nonpayable",
      "type": "function"
    },
    {
      "inputs": [
        {
          "internalType": "uint256",
          "name": "id",
          "type": "uint256"
        },
        {
          "internalType": "uint256",
          "name": "fromId",
          "type": "uint256"
        },
        {
          "internalType": "uint256",
          "name": "viewerId",
          "type": "uint256"
        }
      ],
      "name": "addViewerToCredential",
      "outputs": [],
      "stateMutability": "nonpayable",
      "type": "function"
    }
  ],
  "bytecode": "0x6080604052600060015534801561001557600080fd5b50611b55806100256000396000f3fe608060405234801561001057600080fd5b50600436106100ec576000357c0100000000000000000000000000000000000000000000000000000000900480636ed6da9e116100a9578063aff804c611610083578063aff804c6146101f1578063b702a6bc14610204578063e0574e3f14610217578063ecd8bf2d1461023d57600080fd5b80636ed6da9e1461018a5780639f42af63146101aa578063ad25be98146101bd57600080fd5b806307973ccf146100f15780631b4aab181461010d578063365b98b2146101225780633ef39e2a146101445780634dfa3f181461016457806367143d4314610177575b600080fd5b6100fa60015481565b6040519081526020015b60405180910390f35b61012061011b3660046113a4565b610250565b005b6101356101303660046113d0565b610324565b60405161010493929190611441565b6101576101523660046113d0565b610457565b60405161010491906114e8565b610120610172366004611674565b61076a565b610120610185366004611757565b61080f565b61019d6101983660046113d0565b610964565b604051610104919061183b565b61019d6101b836600461189d565b610b38565b6101206101cb3660046118da565b600091825260036020818152604084209091018054600181018255908452922090910155565b6101206101ff3660046113a4565b610df0565b6101206102123660046118fc565b610e4f565b61022a6102253660046113d0565b610e9f565b604051610104979695949392919061194c565b61012061024b3660046118da565b61111f565b60008381526002602052604090206001015482900361029257600083815260026020908152604082206008018054600181018255908352912001819055505050565b6040517f08c379a000000000000000000000000000000000000000000000000000000000815260206004820152602660248201527f5573657220646f6573206e6f74206861766520636f7272656374207065726d6960448201527f7373696f6e73000000000000000000000000000000000000000000000000000060648201526084015b60405180910390fd5b505050565b60036020526000908152604090208054600182018054919291610346906119ad565b80601f0160208091040260200160405190810160405280929190818152602001828054610372906119ad565b80156103bf5780601f10610394576101008083540402835291602001916103bf565b820191906000526020600020905b8154815290600101906020018083116103a257829003601f168201915b5050505050908060020180546103d4906119ad565b80601f0160208091040260200160405190810160405280929190818152602001828054610400906119ad565b801561044d5780601f106104225761010080835404028352916020019161044d565b820191906000526020600020905b81548152906001019060200180831161043057829003601f168201915b5050505050905083565b61045f61126f565b60026000838152602001908152602001600020604051806101000160405290816000820154815260200160018201548152602001600282016040518060400160405290816000820180546104b2906119ad565b80601f01602080910402602001604051908101604052809291908181526020018280546104de906119ad565b801561052b5780601f106105005761010080835404028352916020019161052b565b820191906000526020600020905b81548152906001019060200180831161050e57829003601f168201915b50505050508152602001600182018054610544906119ad565b80601f0160208091040260200160405190810160405280929190818152602001828054610570906119ad565b80156105bd5780601f10610592576101008083540402835291602001916105bd565b820191906000526020600020905b8154815290600101906020018083116105a057829003601f168201915b50505091909252505050815260048201546020820152600582015460ff16151560408201526006820180546060909201916105f7906119ad565b80601f0160208091040260200160405190810160405280929190818152602001828054610623906119ad565b80156106705780601f1061064557610100808354040283529160200191610670565b820191906000526020600020905b81548152906001019060200180831161065357829003601f168201915b50505050508152602001600782018054610689906119ad565b80601f01602080910402602001604051908101604052809291908181526020018280546106b5906119ad565b80156107025780601f106106d757610100808354040283529160200191610702565b820191906000526020600020905b8154815290600101906020018083116106e557829003601f168201915b505050505081526020016008820180548060200260200160405190810160405280929190818152602001828054801561075a57602002820191906000526020600020905b815481526020019060010190808311610746575b5050505050815250509050919050565b6001805490600061077a83611a03565b909155505060408051608081018252600180548083526020808401878152848601879052606085810181905260009384526003835295909220845181559151805192936107cf939085019291909101906112d1565b50604082015180516107eb9160028401916020909101906112d1565b5060608201518051610807916003840191602090910190611355565b505050505050565b61081d600080546001019055565b6000805460408051610100810182528281526020808201898152828401898152606084018b905260016080850181905285518085018752600080825260a087019190915260c086018b905260e086018a90528781526002808652969020855181559251908301555180518051969750939591949093908501926108a5928492909101906112d1565b5060208281015180516108be92600185019201906112d1565b50505060608201516004820155608082015160058201805460ff191691151591909117905560a082015180516108fe9160068401916020909101906112d1565b5060c0820151805161091a9160078401916020909101906112d1565b5060e08201518051610936916008840191602090910190611355565b5050506000858152600360208181526040832090910180546001810182559083529120018190555050505050565b61098f6040518060800160405280600081526020016060815260200160608152602001606081525090565b60036000838152602001908152602001600020604051806080016040529081600082015481526020016001820180546109c7906119ad565b80601f01602080910402602001604051908101604052809291908181526020018280546109f3906119ad565b8015610a405780601f10610a1557610100808354040283529160200191610a40565b820191906000526020600020905b815481529060010190602001808311610a2357829003601f168201915b50505050508152602001600282018054610a59906119ad565b80601f0160208091040260200160405190810160405280929190818152602001828054610a85906119ad565b8015610ad25780601f10610aa757610100808354040283529160200191610ad2565b820191906000526020600020905b815481529060010190602001808311610ab557829003601f168201915b505050505081526020016003820180548060200260200160405190810160405280929190818152602001828054801561075a5760200282019190600052602060002090815481526020019060010190808311610746575050505050815250509050919050565b610b636040518060800160405280600081526020016060815260200160608152602001606081525090565b60005b6001548111610d8e5782604051602001610b809190611a1c565b60408051601f198184030181528282528051602091820120600085815260038352929092209192610bb5926001019101611a38565b6040516020818303038152906040528051906020012003610d7c576003600082815260200190815260200160002060405180608001604052908160008201548152602001600182018054610c08906119ad565b80601f0160208091040260200160405190810160405280929190818152602001828054610c34906119ad565b8015610c815780601f10610c5657610100808354040283529160200191610c81565b820191906000526020600020905b815481529060010190602001808311610c6457829003601f168201915b50505050508152602001600282018054610c9a906119ad565b80601f0160208091040260200160405190810160405280929190818152602001828054610cc6906119ad565b8015610d135780601f10610ce857610100808354040283529160200191610d13565b820191906000526020600020905b815481529060010190602001808311610cf657829003601f168201915b5050505050815260200160038201805480602002602001604051908101604052809291908181526020018280548015610d6b57602002820191906000526020600020905b815481526020019060010190808311610d57575b505050505081525050915050919050565b80610d8681611a03565b915050610b66565b6040517f08c379a000000000000000000000000000000000000000000000000000000000815260206004820152600960248201527f4e6f7420666f756e6400000000000000000000000000000000000000000000006044820152606401610316565b600083815260026020526040902060040154829003610292576000838152600260205260409020600401819055610e27828461111f565b6000908152600360208181526040832090910180546001810182559083529120019190915550565b60008381526002602052604090206001015482900361029257600083815260026020908152604090912060058101805460ff191690558251610e99926006909201918401906112d1565b50505050565b600260208190526000918252604091829020805460018201548451808601909552928201805491949182908290610ed5906119ad565b80601f0160208091040260200160405190810160405280929190818152602001828054610f01906119ad565b8015610f4e5780601f10610f2357610100808354040283529160200191610f4e565b820191906000526020600020905b815481529060010190602001808311610f3157829003601f168201915b50505050508152602001600182018054610f67906119ad565b80601f0160208091040260200160405190810160405280929190818152602001828054610f93906119ad565b8015610fe05780601f10610fb557610100808354040283529160200191610fe0565b820191906000526020600020905b815481529060010190602001808311610fc357829003601f168201915b50505091909252505050600482015460058301546006840180549394929360ff909216929161100e906119ad565b80601f016020809104026020016040519081016040528092919081815260200182805461103a906119ad565b80156110875780601f1061105c57610100808354040283529160200191611087565b820191906000526020600020905b81548152906001019060200180831161106a57829003601f168201915b50505050509080600701805461109c906119ad565b80601f01602080910402602001604051908101604052809291908181526020018280546110c8906119ad565b80156111155780601f106110ea57610100808354040283529160200191611115565b820191906000526020600020905b8154815290600101906020018083116110f857829003601f168201915b5050505050905087565b60005b6000838152600360208190526040909120015481101561031f578160036000858152602001908152602001600020600301828154811061116457611164611ad6565b90600052602060002001540361125d57600083815260036020819052604090912001805461119490600190611aef565b815481106111a4576111a4611ad6565b90600052602060002001546003600085815260200190815260200160002060030182815481106111d6576111d6611ad6565b60009182526020808320909101929092558481526003918290526040902001805461120390600190611aef565b8154811061121357611213611ad6565b90600052602060002001600090556003600084815260200190815260200160002060030180548061124657611246611b06565b600190038181906000526020600020016000905590555b8061126781611a03565b915050611122565b60405180610100016040528060008152602001600081526020016112a6604051806040016040528060608152602001606081525090565b8152602001600081526020016000151581526020016060815260200160608152602001606081525090565b8280546112dd906119ad565b90600052602060002090601f0160209004810192826112ff5760008555611345565b82601f1061131857805160ff1916838001178555611345565b82800160010185558215611345579182015b8281111561134557825182559160200191906001019061132a565b5061135192915061138f565b5090565b828054828255906000526020600020908101928215611345579160200282018281111561134557825182559160200191906001019061132a565b5b808211156113515760008155600101611390565b6000806000606084860312156113b957600080fd5b505081359360208301359350604090920135919050565b6000602082840312156113e257600080fd5b5035919050565b60005b838110156114045781810151838201526020016113ec565b83811115610e995750506000910152565b6000815180845261142d8160208601602086016113e9565b601f01601f19169290920160200192915050565b83815260606020820152600061145a6060830185611415565b828103604084015261146c8185611415565b9695505050505050565b600081516040845261148b6040850182611415565b9050602083015184820360208601526114a48282611415565b95945050505050565b600081518084526020808501945080840160005b838110156114dd578151875295820195908201906001016114c1565b509495945050505050565b6020815281516020820152602082015160408201526000604083015161010080606085015261151b610120850183611476565b915060608501516080850152608085015161153a60a086018215159052565b5060a0850151601f19808685030160c08701526115578483611415565b935060c08701519150808685030160e08701526115748483611415565b935060e087015191508086850301838701525061146c83826114ad565b60e060020a634e487b7102600052604160045260246000fd5b6040805190810167ffffffffffffffff811182821017156115cd576115cd611591565b60405290565b604051601f8201601f1916810167ffffffffffffffff811182821017156115fc576115fc611591565b604052919050565b600082601f83011261161557600080fd5b813567ffffffffffffffff81111561162f5761162f611591565b611642601f8201601f19166020016115d3565b81815284602083860101111561165757600080fd5b816020850160208301376000918101602001919091529392505050565b6000806040838503121561168757600080fd5b823567ffffffffffffffff8082111561169f57600080fd5b6116ab86838701611604565b935060208501359150808211156116c157600080fd5b506116ce85828601611604565b9150509250929050565b600082601f8301126116e957600080fd5b8135602067ffffffffffffffff82111561170557611705611591565b8082026117138282016115d3565b928352848101820192828101908785111561172d57600080fd5b83870192505b8483101561174c57823582529183019190830190611733565b979650505050505050565b6000806000806080858703121561176d57600080fd5b84359350602085013567ffffffffffffffff8082111561178c57600080fd5b90860190604082890312156117a057600080fd5b6117a86115aa565b8235828111156117b757600080fd5b6117c38a828601611604565b8252506020830135828111156117d857600080fd5b6117e48a828601611604565b6020830152509450604087013591508082111561180057600080fd5b61180c88838901611604565b9350606087013591508082111561182257600080fd5b5061182f878288016116d8565b91505092959194509250565b6020815281516020820152600060208301516080604084015261186160a0840182611415565b90506040840151601f198085840301606086015261187f8383611415565b92506060860151915080858403016080860152506114a482826114ad565b6000602082840312156118af57600080fd5b813567ffffffffffffffff8111156118c657600080fd5b6118d284828501611604565b949350505050565b600080604083850312156118ed57600080fd5b50508035926020909101359150565b60008060006060848603121561191157600080fd5b8335925060208401359150604084013567ffffffffffffffff81111561193657600080fd5b61194286828701611604565b9150509250925092565b87815286602082015260e06040820152600061196b60e0830188611476565b866060840152851515608084015282810360a084015261198b8186611415565b905082810360c084015261199f8185611415565b9a9950505050505050505050565b6002810460018216806119c157607f821691505b6020821081036119e45760e060020a634e487b7102600052602260045260246000fd5b50919050565b60e060020a634e487b7102600052601160045260246000fd5b600060018201611a1557611a156119ea565b5060010190565b60008251611a2e8184602087016113e9565b9190910192915050565b8154600090819060028104600180831680611a5457607f831692505b60208084108203611a765760e060020a634e487b710286526022600452602486fd5b818015611a8a5760018114611a9b57611ac8565b60ff19861689528489019650611ac8565b60008a81526020902060005b86811015611ac05781548b820152908501908301611aa7565b505084890196505b509498975050505050505050565b60e060020a634e487b7102600052603260045260246000fd5b600082821015611b0157611b016119ea565b500390565b60e060020a634e487b7102600052603160045260246000fdfea26469706673582212208db50dbf0f1047a78ed20df1cc280a6be599ae517eedfe8120a53bee9a95c41c64736f6c634300080d0033",
  "immutableReferences": {},
  "source": "pragma solidity >=0.4.22 <0.9.0;\n\nimport '../node_modules/@openzeppelin/contracts/token/ERC721/ERC721.sol';\nimport '../node_modules/@openzeppelin/contracts/utils/Counters.sol';\n\ncontract Users{\n    struct User{\n        uint id;\n        string username;\n        string publickKey;\n        uint256[] credentialIds;\n    }\n\n    struct CredentialData{\n        string assetHash;\n        string metadataUrl;\n    }\n\n    struct Credential{\n        uint id;\n        uint256 createdBy;\n        CredentialData data;\n        uint256 currentOwner;\n        bool isValid;\n        string revocationReason;\n        string createdAt;\n        uint256[] viewers;\n    }\n\n    using Counters for Counters.Counter;\n    Counters.Counter private _credentialIds;\n    uint public userCount = 0;\n\n    mapping(uint256=>Credential) public credentials;\n    mapping(uint => User) public users;\n    \n\n    // * User functions\n    function createNewUser(string memory username, string memory publicKey) public {\n        userCount++;\n        uint256[] memory credentialIds;\n        users[userCount] = User(userCount, username, publicKey, credentialIds);\n    }\n\n    function addCredentialToUser(uint id, uint256 credentialId) public {\n        users[id].credentialIds.push(credentialId);\n    }\n\n    function removeCredentialFromUser(uint id, uint256 credentialId) public {\n        uint256 i = 0;\n        for(i; i < users[id].credentialIds.length; i++){\n            if(users[id].credentialIds[i] == credentialId){\n                users[id].credentialIds[i] = users[id].credentialIds[users[id].credentialIds.length - 1];\n                delete users[id].credentialIds[users[id].credentialIds.length-1];\n                users[id].credentialIds.pop();\n            }\n        }\n    }\n\n    function getUserById(uint id) public view returns (User memory){\n        return users[id];\n    }\n\n    function getUserByUsername(string memory username) public view returns (User memory){\n        uint i = 0;\n        for(i; i<=userCount; i++){\n            if(keccak256(abi.encodePacked(users[i].username)) == keccak256(abi.encodePacked(username))){\n                return users[i];\n            }\n        }\n        revert(\"Not found\");\n    }\n\n    \n    // * Credential functions\n    // * Add credential to credential List and user Credentials\n    function addCredential(uint256 createdBy, CredentialData memory data, string memory createdAt, uint256[] memory viewers) public{\n        _credentialIds.increment();\n        uint256 newItemId = _credentialIds.current();\n        credentials[newItemId] = Credential(newItemId, createdBy, data, createdBy, true, '', createdAt, viewers );\n        addCredentialToUser(createdBy, newItemId);\n    }\n\n    function getCredentialById(uint256 id) public view returns (Credential memory){\n        return credentials[id];\n    }\n\n    function transferCredential(uint256 id, uint256 fromId, uint256 toId) public {\n        if(credentials[id].currentOwner == fromId){\n            credentials[id].currentOwner = toId;\n            removeCredentialFromUser(fromId, id);\n            addCredentialToUser(toId, id);\n        }else{\n            revert(\"User does not have correct permissions\");\n        }\n    }\n\n    function revokeCredential(uint256 id, uint256 fromId, string memory reason) public {\n        if(credentials[id].createdBy == fromId){\n            credentials[id].isValid = false;\n            credentials[id].revocationReason = reason;\n        }\n        else{\n            revert(\"User does not have correct permissions\");\n        }\n    }\n\n    function addViewerToCredential(uint256 id, uint256 fromId, uint256 viewerId) public {\n        if(credentials[id].createdBy == fromId){\n            credentials[id].viewers.push(viewerId);\n        }\n        else{\n            revert(\"User does not have correct permissions\");\n        }\n    }\n\n}",
  "sourcePath": "/Users/siddharthagarwal/Desktop/Projects/FYP21050/server/blockchain/contracts/Users.sol",
  "compiler": {
    "name": "solc",
    "version": "0.8.13+commit.abaa5c0e.Emscripten.clang"
  },
  "schemaVersion": "3.4.6",
  "updatedAt": "2022-04-12T11:25:36.046Z",
  "networkType": "ethereum",
  "devdoc": {
    "kind": "dev",
    "methods": {},
    "version": 1
  },
  "userdoc": {
    "kind": "user",
    "methods": {},
    "version": 1
  }
}