{
  "contractName": "Users",
  "abi": [
    {
      "inputs": [
        {
          "internalType": "uint256",
          "name": "",
          "type": "uint256"
        }
      ],
      "name": "credentials",
      "outputs": [
        {
          "internalType": "uint256",
          "name": "id",
          "type": "uint256"
        },
        {
          "internalType": "uint256",
          "name": "createdBy",
          "type": "uint256"
        },
        {
          "internalType": "uint256",
          "name": "currentOwner",
          "type": "uint256"
        },
        {
          "internalType": "bool",
          "name": "isValid",
          "type": "bool"
        },
        {
          "internalType": "string",
          "name": "revocationReason",
          "type": "string"
        },
        {
          "internalType": "string",
          "name": "createdAt",
          "type": "string"
        }
      ],
      "stateMutability": "view",
      "type": "function",
      "constant": true
    },
    {
      "inputs": [],
      "name": "userCount",
      "outputs": [
        {
          "internalType": "uint256",
          "name": "",
          "type": "uint256"
        }
      ],
      "stateMutability": "view",
      "type": "function",
      "constant": true
    },
    {
      "inputs": [
        {
          "internalType": "uint256",
          "name": "",
          "type": "uint256"
        }
      ],
      "name": "users",
      "outputs": [
        {
          "internalType": "uint256",
          "name": "id",
          "type": "uint256"
        },
        {
          "internalType": "string",
          "name": "username",
          "type": "string"
        },
        {
          "internalType": "address",
          "name": "walletAddress",
          "type": "address"
        },
        {
          "internalType": "string",
          "name": "publicKey",
          "type": "string"
        }
      ],
      "stateMutability": "view",
      "type": "function",
      "constant": true
    },
    {
      "inputs": [
        {
          "internalType": "string",
          "name": "username",
          "type": "string"
        },
        {
          "internalType": "address",
          "name": "walletAddress",
          "type": "address"
        },
        {
          "internalType": "string",
          "name": "publicKey",
          "type": "string"
        }
      ],
      "name": "createNewUser",
      "outputs": [],
      "stateMutability": "nonpayable",
      "type": "function"
    },
    {
      "inputs": [
        {
          "internalType": "uint256",
          "name": "id",
          "type": "uint256"
        },
        {
          "internalType": "uint256",
          "name": "credentialId",
          "type": "uint256"
        }
      ],
      "name": "addCredentialToUser",
      "outputs": [],
      "stateMutability": "nonpayable",
      "type": "function"
    },
    {
      "inputs": [
        {
          "internalType": "uint256",
          "name": "id",
          "type": "uint256"
        },
        {
          "internalType": "uint256",
          "name": "credentialId",
          "type": "uint256"
        }
      ],
      "name": "removeCredentialFromUser",
      "outputs": [],
      "stateMutability": "nonpayable",
      "type": "function"
    },
    {
      "inputs": [
        {
          "internalType": "uint256",
          "name": "id",
          "type": "uint256"
        }
      ],
      "name": "getUserById",
      "outputs": [
        {
          "components": [
            {
              "internalType": "uint256",
              "name": "id",
              "type": "uint256"
            },
            {
              "internalType": "string",
              "name": "username",
              "type": "string"
            },
            {
              "internalType": "address",
              "name": "walletAddress",
              "type": "address"
            },
            {
              "internalType": "uint256[]",
              "name": "credentialIds",
              "type": "uint256[]"
            },
            {
              "internalType": "string",
              "name": "publicKey",
              "type": "string"
            }
          ],
          "internalType": "struct Users.User",
          "name": "",
          "type": "tuple"
        }
      ],
      "stateMutability": "view",
      "type": "function",
      "constant": true
    },
    {
      "inputs": [
        {
          "internalType": "string",
          "name": "username",
          "type": "string"
        }
      ],
      "name": "getUserByUsername",
      "outputs": [
        {
          "components": [
            {
              "internalType": "uint256",
              "name": "id",
              "type": "uint256"
            },
            {
              "internalType": "string",
              "name": "username",
              "type": "string"
            },
            {
              "internalType": "address",
              "name": "walletAddress",
              "type": "address"
            },
            {
              "internalType": "uint256[]",
              "name": "credentialIds",
              "type": "uint256[]"
            },
            {
              "internalType": "string",
              "name": "publicKey",
              "type": "string"
            }
          ],
          "internalType": "struct Users.User",
          "name": "",
          "type": "tuple"
        }
      ],
      "stateMutability": "view",
      "type": "function",
      "constant": true
    },
    {
      "inputs": [
        {
          "internalType": "uint256",
          "name": "createdBy",
          "type": "uint256"
        },
        {
          "internalType": "string",
          "name": "createdAt",
          "type": "string"
        },
        {
          "components": [
            {
              "internalType": "uint256",
              "name": "id",
              "type": "uint256"
            },
            {
              "components": [
                {
                  "internalType": "string",
                  "name": "fileName",
                  "type": "string"
                },
                {
                  "internalType": "string",
                  "name": "assetHash",
                  "type": "string"
                },
                {
                  "internalType": "string",
                  "name": "metadataUrl",
                  "type": "string"
                }
              ],
              "internalType": "struct Users.CredentialData",
              "name": "data",
              "type": "tuple"
            },
            {
              "components": [
                {
                  "internalType": "bool",
                  "name": "transfer",
                  "type": "bool"
                },
                {
                  "internalType": "bool",
                  "name": "revoke",
                  "type": "bool"
                },
                {
                  "internalType": "bool",
                  "name": "share",
                  "type": "bool"
                }
              ],
              "internalType": "struct Users.Permissions",
              "name": "permissions",
              "type": "tuple"
            }
          ],
          "internalType": "struct Users.Viewer[]",
          "name": "viewers",
          "type": "tuple[]"
        }
      ],
      "name": "addCredential",
      "outputs": [
        {
          "internalType": "uint256",
          "name": "",
          "type": "uint256"
        }
      ],
      "stateMutability": "nonpayable",
      "type": "function"
    },
    {
      "inputs": [
        {
          "internalType": "uint256",
          "name": "id",
          "type": "uint256"
        }
      ],
      "name": "getCredentialById",
      "outputs": [
        {
          "components": [
            {
              "internalType": "uint256",
              "name": "id",
              "type": "uint256"
            },
            {
              "internalType": "uint256",
              "name": "createdBy",
              "type": "uint256"
            },
            {
              "internalType": "uint256",
              "name": "currentOwner",
              "type": "uint256"
            },
            {
              "internalType": "bool",
              "name": "isValid",
              "type": "bool"
            },
            {
              "internalType": "string",
              "name": "revocationReason",
              "type": "string"
            },
            {
              "internalType": "string",
              "name": "createdAt",
              "type": "string"
            },
            {
              "components": [
                {
                  "internalType": "uint256",
                  "name": "id",
                  "type": "uint256"
                },
                {
                  "components": [
                    {
                      "internalType": "string",
                      "name": "fileName",
                      "type": "string"
                    },
                    {
                      "internalType": "string",
                      "name": "assetHash",
                      "type": "string"
                    },
                    {
                      "internalType": "string",
                      "name": "metadataUrl",
                      "type": "string"
                    }
                  ],
                  "internalType": "struct Users.CredentialData",
                  "name": "data",
                  "type": "tuple"
                },
                {
                  "components": [
                    {
                      "internalType": "bool",
                      "name": "transfer",
                      "type": "bool"
                    },
                    {
                      "internalType": "bool",
                      "name": "revoke",
                      "type": "bool"
                    },
                    {
                      "internalType": "bool",
                      "name": "share",
                      "type": "bool"
                    }
                  ],
                  "internalType": "struct Users.Permissions",
                  "name": "permissions",
                  "type": "tuple"
                }
              ],
              "internalType": "struct Users.Viewer[]",
              "name": "viewers",
              "type": "tuple[]"
            }
          ],
          "internalType": "struct Users.Credential",
          "name": "",
          "type": "tuple"
        }
      ],
      "stateMutability": "view",
      "type": "function",
      "constant": true
    },
    {
      "inputs": [
        {
          "internalType": "uint256",
          "name": "id",
          "type": "uint256"
        },
        {
          "internalType": "uint256",
          "name": "fromId",
          "type": "uint256"
        },
        {
          "internalType": "uint256",
          "name": "toId",
          "type": "uint256"
        },
        {
          "components": [
            {
              "internalType": "string",
              "name": "fileName",
              "type": "string"
            },
            {
              "internalType": "string",
              "name": "assetHash",
              "type": "string"
            },
            {
              "internalType": "string",
              "name": "metadataUrl",
              "type": "string"
            }
          ],
          "internalType": "struct Users.CredentialData",
          "name": "data",
          "type": "tuple"
        },
        {
          "components": [
            {
              "internalType": "bool",
              "name": "transfer",
              "type": "bool"
            },
            {
              "internalType": "bool",
              "name": "revoke",
              "type": "bool"
            },
            {
              "internalType": "bool",
              "name": "share",
              "type": "bool"
            }
          ],
          "internalType": "struct Users.Permissions",
          "name": "permissions",
          "type": "tuple"
        }
      ],
      "name": "transferCredential",
      "outputs": [],
      "stateMutability": "nonpayable",
      "type": "function"
    },
    {
      "inputs": [
        {
          "internalType": "uint256",
          "name": "id",
          "type": "uint256"
        },
        {
          "internalType": "uint256",
          "name": "fromId",
          "type": "uint256"
        },
        {
          "internalType": "string",
          "name": "reason",
          "type": "string"
        }
      ],
      "name": "revokeCredential",
      "outputs": [],
      "stateMutability": "nonpayable",
      "type": "function"
    },
    {
      "inputs": [
        {
          "internalType": "uint256",
          "name": "id",
          "type": "uint256"
        },
        {
          "internalType": "uint256",
          "name": "fromId",
          "type": "uint256"
        },
        {
          "components": [
            {
              "internalType": "uint256",
              "name": "id",
              "type": "uint256"
            },
            {
              "components": [
                {
                  "internalType": "string",
                  "name": "fileName",
                  "type": "string"
                },
                {
                  "internalType": "string",
                  "name": "assetHash",
                  "type": "string"
                },
                {
                  "internalType": "string",
                  "name": "metadataUrl",
                  "type": "string"
                }
              ],
              "internalType": "struct Users.CredentialData",
              "name": "data",
              "type": "tuple"
            },
            {
              "components": [
                {
                  "internalType": "bool",
                  "name": "transfer",
                  "type": "bool"
                },
                {
                  "internalType": "bool",
                  "name": "revoke",
                  "type": "bool"
                },
                {
                  "internalType": "bool",
                  "name": "share",
                  "type": "bool"
                }
              ],
              "internalType": "struct Users.Permissions",
              "name": "permissions",
              "type": "tuple"
            }
          ],
          "internalType": "struct Users.Viewer[]",
          "name": "viewers",
          "type": "tuple[]"
        }
      ],
      "name": "addViewerToCredential",
      "outputs": [],
      "stateMutability": "nonpayable",
      "type": "function"
    }
  ],
  "bytecode": "0x6080604052600060015534801561001557600080fd5b50612e80806100256000396000f3fe608060405234801561001057600080fd5b50600436106100ec576000357c01000000000000000000000000000000000000000000000000000000009004806370b58951116100a9578063b702a6bc11610083578063b702a6bc146101f2578063e0574e3f14610205578063ecd8bf2d1461022a578063fb42ae4c1461023d57600080fd5b806370b58951146101985780639f42af63146101ab578063ad25be98146101be57600080fd5b8063032446f9146100f157806307973ccf14610106578063192dd54714610122578063365b98b2146101355780633ef39e2a146101585780636ed6da9e14610178575b600080fd5b6101046100ff366004612560565b610250565b005b61010f60015481565b6040519081526020015b60405180910390f35b6101046101303660046127c9565b610338565b61014861014336600461280f565b61088b565b6040516101199493929190612884565b61016b61016636600461280f565b6109d3565b60405161011991906128c9565b61018b61018636600461280f565b610dff565b6040516101199190612a1e565b6101046101a6366004612abb565b610fc2565b61018b6101b9366004612b27565b611618565b6101046101cc366004612b64565b600091825260036020818152604084209091018054600181018255908452922090910155565b610104610200366004612b86565b6118a6565b61021861021336600461280f565b611e13565b60405161011996959493929190612bcc565b610104610238366004612b64565b611f60565b61010f61024b366004612c18565b6120b5565b6001805490600061026083612c94565b90915550506040805160a081018252600180548083526020808401888152600160a060020a0388168587015260608581018190526080860188905260009384526003835295909220845181559151805192936102c493908501929190910190612372565b50604082015160028201805473ffffffffffffffffffffffffffffffffffffffff1916600160a060020a03909216919091179055606082015180516103139160038401916020909101906123f6565b506080820151805161032f916004840191602090910190612372565b50505050505050565b6000805b60008581526002602052604090206006015482101561085b57600085815260026020526040812060060180548490811061037857610378612cad565b906000526020600020906005020160405180606001604052908160008201548152602001600182016040518060600160405290816000820180546103bb90612cc6565b80601f01602080910402602001604051908101604052809291908181526020018280546103e790612cc6565b80156104345780601f1061040957610100808354040283529160200191610434565b820191906000526020600020905b81548152906001019060200180831161041757829003601f168201915b5050505050815260200160018201805461044d90612cc6565b80601f016020809104026020016040519081016040528092919081815260200182805461047990612cc6565b80156104c65780601f1061049b576101008083540402835291602001916104c6565b820191906000526020600020905b8154815290600101906020018083116104a957829003601f168201915b505050505081526020016002820180546104df90612cc6565b80601f016020809104026020016040519081016040528092919081815260200182805461050b90612cc6565b80156105585780601f1061052d57610100808354040283529160200191610558565b820191906000526020600020905b81548152906001019060200180831161053b57829003601f168201915b505050919092525050508152604080516060810182526004939093015460ff80821615158552610100820481161515602086810191909152620100009092041615159184019190915201528051909150851480156105bb57508060400151604001515b156108485760005b8451811015610841576002600088815260200190815260200160002060060160405180606001604052808784815181106105ff576105ff612cad565b6020026020010151600001518152602001604051806060016040528089868151811061062d5761062d612cad565b60200260200101516020015160000151815260200189868151811061065457610654612cad565b60200260200101516020015160200151815260200189868151811061067b5761067b612cad565b60200260200101516020015160400151815250815260200160405180606001604052808986815181106106b0576106b0612cad565b60200260200101516040015160000151151581526020018986815181106106d9576106d9612cad565b602002602001015160400151602001511515815260200189868151811061070257610702612cad565b602090810291909101810151604090810151015115159091529152825460018181018555600094855293829020835160059092020190815582820151805180519495929491939285019261075b92849290910190612372565b5060208281015180516107749260018501920190612372565b5060408201518051610790916002840191602090910190612372565b505050604091820151805160049092018054602083015192909401511515620100000262ff0000199215156101000261ff00199415159490941661ffff19909516949094179290921716919091179055845161082b908690839081106107f8576107f8612cad565b60200260200101516000015188600091825260036020818152604084209091018054600181018255908452922090910155565b8061083581612c94565b915050600192506105c3565b505061085b565b8261085281612c94565b9350505061033c565b806108845760405160e560020a62461bcd02815260040161087b90612d03565b60405180910390fd5b5050505050565b600360205260009081526040902080546001820180549192916108ad90612cc6565b80601f01602080910402602001604051908101604052809291908181526020018280546108d990612cc6565b80156109265780601f106108fb57610100808354040283529160200191610926565b820191906000526020600020905b81548152906001019060200180831161090957829003601f168201915b50505060028401546004850180549495600160a060020a0390921694919350915061095090612cc6565b80601f016020809104026020016040519081016040528092919081815260200182805461097c90612cc6565b80156109c95780601f1061099e576101008083540402835291602001916109c9565b820191906000526020600020905b8154815290600101906020018083116109ac57829003601f168201915b5050505050905084565b610a156040518060e001604052806000815260200160008152602001600081526020016000151581526020016060815260200160608152602001606081525090565b600082815260026020818152604092839020835160e081018552815481526001820154928101929092529182015492810192909252600381015460ff1615156060830152600481018054608084019190610a6e90612cc6565b80601f0160208091040260200160405190810160405280929190818152602001828054610a9a90612cc6565b8015610ae75780601f10610abc57610100808354040283529160200191610ae7565b820191906000526020600020905b815481529060010190602001808311610aca57829003601f168201915b50505050508152602001600582018054610b0090612cc6565b80601f0160208091040260200160405190810160405280929190818152602001828054610b2c90612cc6565b8015610b795780601f10610b4e57610100808354040283529160200191610b79565b820191906000526020600020905b815481529060010190602001808311610b5c57829003601f168201915b5050505050815260200160068201805480602002602001604051908101604052809291908181526020016000905b82821015610df157838290600052602060002090600502016040518060600160405290816000820154815260200160018201604051806060016040529081600082018054610bf490612cc6565b80601f0160208091040260200160405190810160405280929190818152602001828054610c2090612cc6565b8015610c6d5780601f10610c4257610100808354040283529160200191610c6d565b820191906000526020600020905b815481529060010190602001808311610c5057829003601f168201915b50505050508152602001600182018054610c8690612cc6565b80601f0160208091040260200160405190810160405280929190818152602001828054610cb290612cc6565b8015610cff5780601f10610cd457610100808354040283529160200191610cff565b820191906000526020600020905b815481529060010190602001808311610ce257829003601f168201915b50505050508152602001600282018054610d1890612cc6565b80601f0160208091040260200160405190810160405280929190818152602001828054610d4490612cc6565b8015610d915780601f10610d6657610100808354040283529160200191610d91565b820191906000526020600020905b815481529060010190602001808311610d7457829003601f168201915b505050919092525050508152604080516060810182526004939093015460ff808216151585526101008204811615156020868101919091526201000090920416151591840191909152908101919091529082526001929092019101610ba7565b505050915250909392505050565b610e07612430565b600360008381526020019081526020016000206040518060a001604052908160008201548152602001600182018054610e3f90612cc6565b80601f0160208091040260200160405190810160405280929190818152602001828054610e6b90612cc6565b8015610eb85780601f10610e8d57610100808354040283529160200191610eb8565b820191906000526020600020905b815481529060010190602001808311610e9b57829003601f168201915b50505091835250506002820154600160a060020a03166020808301919091526003830180546040805182850281018501825282815294019392830182828015610f2057602002820191906000526020600020905b815481526020019060010190808311610f0c575b50505050508152602001600482018054610f3990612cc6565b80601f0160208091040260200160405190810160405280929190818152602001828054610f6590612cc6565b8015610fb25780601f10610f8757610100808354040283529160200191610fb2565b820191906000526020600020905b815481529060010190602001808311610f9557829003601f168201915b5050505050815250509050919050565b6000858152600260209081526040808320600601805482518185028101850190935280835284938493929190849084015b8282101561123d5783829060005260206000209060050201604051806060016040529081600082015481526020016001820160405180606001604052908160008201805461104090612cc6565b80601f016020809104026020016040519081016040528092919081815260200182805461106c90612cc6565b80156110b95780601f1061108e576101008083540402835291602001916110b9565b820191906000526020600020905b81548152906001019060200180831161109c57829003601f168201915b505050505081526020016001820180546110d290612cc6565b80601f01602080910402602001604051908101604052809291908181526020018280546110fe90612cc6565b801561114b5780601f106111205761010080835404028352916020019161114b565b820191906000526020600020905b81548152906001019060200180831161112e57829003601f168201915b5050505050815260200160028201805461116490612cc6565b80601f016020809104026020016040519081016040528092919081815260200182805461119090612cc6565b80156111dd5780601f106111b2576101008083540402835291602001916111dd565b820191906000526020600020905b8154815290600101906020018083116111c057829003601f168201915b505050919092525050508152604080516060810182526004939093015460ff808216151585526101008204811615156020868101919091526201000090920416151591840191909152908101919091529082526001929092019101610ff3565b5050505090505b80518310156115ee57600088815260026020526040812060060180548590811061127057611270612cad565b906000526020600020906005020160405180606001604052908160008201548152602001600182016040518060600160405290816000820180546112b390612cc6565b80601f01602080910402602001604051908101604052809291908181526020018280546112df90612cc6565b801561132c5780601f106113015761010080835404028352916020019161132c565b820191906000526020600020905b81548152906001019060200180831161130f57829003601f168201915b5050505050815260200160018201805461134590612cc6565b80601f016020809104026020016040519081016040528092919081815260200182805461137190612cc6565b80156113be5780601f10611393576101008083540402835291602001916113be565b820191906000526020600020905b8154815290600101906020018083116113a157829003601f168201915b505050505081526020016002820180546113d790612cc6565b80601f016020809104026020016040519081016040528092919081815260200182805461140390612cc6565b80156114505780601f1061142557610100808354040283529160200191611450565b820191906000526020600020905b81548152906001019060200180831161143357829003601f168201915b505050919092525050508152604080516060810182526004939093015460ff80821615158552610100820481161515602086810191909152620100009092041615159184019190915201528051909150881480156114b057506040810151515b156115db5760008981526002602081815260408084209283018b905580516060810182528b81528083018b81529181018a9052600690930180546001818101835591865294839020845160059096020194855590518051805194959491939285019261152192849290910190612372565b50602082810151805161153a9260018501920190612372565b5060408201518051611556916002840191602090910190612372565b505050604091820151805160049092018054602083015192909401511515620100000262ff0000199215156101000261ff00199415159490941661ffff199095169490941792909217169190911790556115d1878a600091825260036020818152604084209091018054600181018255908452922090910155565b60019250506115ee565b836115e581612c94565b94505050611244565b8161160e5760405160e560020a62461bcd02815260040161087b90612d03565b5050505050505050565b611620612430565b60005b600154811161185b578260405160200161163d9190612d60565b60408051601f198184030181528282528051602091820120600085815260038352929092209192611672926001019101612d7c565b604051602081830303815290604052805190602001200361184957600360008281526020019081526020016000206040518060a0016040529081600082015481526020016001820180546116c590612cc6565b80601f01602080910402602001604051908101604052809291908181526020018280546116f190612cc6565b801561173e5780601f106117135761010080835404028352916020019161173e565b820191906000526020600020905b81548152906001019060200180831161172157829003601f168201915b50505091835250506002820154600160a060020a031660208083019190915260038301805460408051828502810185018252828152940193928301828280156117a657602002820191906000526020600020905b815481526020019060010190808311611792575b505050505081526020016004820180546117bf90612cc6565b80601f01602080910402602001604051908101604052809291908181526020018280546117eb90612cc6565b80156118385780601f1061180d57610100808354040283529160200191611838565b820191906000526020600020905b81548152906001019060200180831161181b57829003601f168201915b505050505081525050915050919050565b8061185381612c94565b915050611623565b60405160e560020a62461bcd02815260206004820152600960248201527f4e6f7420666f756e640000000000000000000000000000000000000000000000604482015260640161087b565b6000838152600260209081526040808320600601805482518185028101850190935280835284938493929190849084015b82821015611b215783829060005260206000209060050201604051806060016040529081600082015481526020016001820160405180606001604052908160008201805461192490612cc6565b80601f016020809104026020016040519081016040528092919081815260200182805461195090612cc6565b801561199d5780601f106119725761010080835404028352916020019161199d565b820191906000526020600020905b81548152906001019060200180831161198057829003601f168201915b505050505081526020016001820180546119b690612cc6565b80601f01602080910402602001604051908101604052809291908181526020018280546119e290612cc6565b8015611a2f5780601f10611a0457610100808354040283529160200191611a2f565b820191906000526020600020905b815481529060010190602001808311611a1257829003601f168201915b50505050508152602001600282018054611a4890612cc6565b80601f0160208091040260200160405190810160405280929190818152602001828054611a7490612cc6565b8015611ac15780601f10611a9657610100808354040283529160200191611ac1565b820191906000526020600020905b815481529060010190602001808311611aa457829003601f168201915b505050919092525050508152604080516060810182526004939093015460ff8082161515855261010082048116151560208681019190915262010000909204161515918401919091529081019190915290825260019290920191016118d7565b5050505090505b8051831015611deb576000868152600260205260408120600601805485908110611b5457611b54612cad565b90600052602060002090600502016040518060600160405290816000820154815260200160018201604051806060016040529081600082018054611b9790612cc6565b80601f0160208091040260200160405190810160405280929190818152602001828054611bc390612cc6565b8015611c105780601f10611be557610100808354040283529160200191611c10565b820191906000526020600020905b815481529060010190602001808311611bf357829003601f168201915b50505050508152602001600182018054611c2990612cc6565b80601f0160208091040260200160405190810160405280929190818152602001828054611c5590612cc6565b8015611ca25780601f10611c7757610100808354040283529160200191611ca2565b820191906000526020600020905b815481529060010190602001808311611c8557829003601f168201915b50505050508152602001600282018054611cbb90612cc6565b80601f0160208091040260200160405190810160405280929190818152602001828054611ce790612cc6565b8015611d345780601f10611d0957610100808354040283529160200191611d34565b820191906000526020600020905b815481529060010190602001808311611d1757829003601f168201915b505050919092525050508152604080516060810182526004939093015460ff8082161515855261010082048116151560208681019190915262010000909204161515918401919091520152805190915086148015611d9757508060400151602001515b15611dd857600087815260026020908152604090912060038101805460ff191690558651611dcd92600490920191880190612372565b506001925050611deb565b83611de281612c94565b94505050611b28565b81611e0b5760405160e560020a62461bcd02815260040161087b90612d03565b505050505050565b600260208190526000918252604090912080546001820154928201546003830154600484018054939594929360ff9092169291611e4f90612cc6565b80601f0160208091040260200160405190810160405280929190818152602001828054611e7b90612cc6565b8015611ec85780601f10611e9d57610100808354040283529160200191611ec8565b820191906000526020600020905b815481529060010190602001808311611eab57829003601f168201915b505050505090806005018054611edd90612cc6565b80601f0160208091040260200160405190810160405280929190818152602001828054611f0990612cc6565b8015611f565780601f10611f2b57610100808354040283529160200191611f56565b820191906000526020600020905b815481529060010190602001808311611f3957829003601f168201915b5050505050905086565b60005b600083815260036020819052604090912001548110156120b05781600360008581526020019081526020016000206003018281548110611fa557611fa5612cad565b90600052602060002001540361209e576000838152600360208190526040909120018054611fd590600190612e1a565b81548110611fe557611fe5612cad565b906000526020600020015460036000858152602001908152602001600020600301828154811061201757612017612cad565b60009182526020808320909101929092558481526003918290526040902001805461204490600190612e1a565b8154811061205457612054612cad565b90600052602060002001600090556003600084815260200190815260200160002060030180548061208757612087612e31565b600190038181906000526020600020016000905590555b806120a881612c94565b915050611f63565b505050565b600080546001018082558082526002602090815260408320855184926120e2916005840191890190612372565b5060018082018890556002820188905583825560038201805460ff19169091179055604080516020810191829052600090819052612124916004840191612372565b505b84518210156123435780600601604051806060016040528087858151811061215057612150612cad565b6020026020010151600001518152602001604051806060016040528089878151811061217e5761217e612cad565b6020026020010151602001516000015181526020018987815181106121a5576121a5612cad565b6020026020010151602001516020015181526020018987815181106121cc576121cc612cad565b602002602001015160200151604001518152508152602001604051806060016040528089878151811061220157612201612cad565b602002602001015160400151600001511515815260200189878151811061222a5761222a612cad565b602002602001015160400151602001511515815260200189878151811061225357612253612cad565b60209081029190910181015160409081015101511515909152915282546001818101855560009485529382902083516005909202019081558282015180518051949592949193928501926122ac92849290910190612372565b5060208281015180516122c59260018501920190612372565b50604082015180516122e1916002840191602090910190612372565b505050604091820151805160049092018054602083015192909401511515620100000262ff0000199215156101000261ff00199415159490941661ffff199095169490941792909217169190911790558161233b81612c94565b925050612126565b600087815260036020818152604083209091018054600181018255908352912001839055509095945050505050565b82805461237e90612cc6565b90600052602060002090601f0160209004810192826123a057600085556123e6565b82601f106123b957805160ff19168380011785556123e6565b828001600101855582156123e6579182015b828111156123e65782518255916020019190600101906123cb565b506123f2929150612468565b5090565b8280548282559060005260206000209081019282156123e657916020028201828111156123e65782518255916020019190600101906123cb565b6040518060a0016040528060008152602001606081526020016000600160a060020a0316815260200160608152602001606081525090565b5b808211156123f25760008155600101612469565b60e060020a634e487b7102600052604160045260246000fd5b6040516060810167ffffffffffffffff811182821017156124b9576124b961247d565b60405290565b604051601f8201601f1916810167ffffffffffffffff811182821017156124e8576124e861247d565b604052919050565b600082601f83011261250157600080fd5b813567ffffffffffffffff81111561251b5761251b61247d565b61252e601f8201601f19166020016124bf565b81815284602083860101111561254357600080fd5b816020850160208301376000918101602001919091529392505050565b60008060006060848603121561257557600080fd5b833567ffffffffffffffff8082111561258d57600080fd5b612599878388016124f0565b945060208601359150600160a060020a03821682146125b757600080fd5b909250604085013590808211156125cd57600080fd5b506125da868287016124f0565b9150509250925092565b6000606082840312156125f657600080fd5b6125fe612496565b9050813567ffffffffffffffff8082111561261857600080fd5b612624858386016124f0565b8352602084013591508082111561263a57600080fd5b612646858386016124f0565b6020840152604084013591508082111561265f57600080fd5b5061266c848285016124f0565b60408301525092915050565b8035801515811461268857600080fd5b919050565b60006060828403121561269f57600080fd5b6126a7612496565b90506126b282612678565b81526126c060208301612678565b60208201526126d160408301612678565b604082015292915050565b600082601f8301126126ed57600080fd5b8135602067ffffffffffffffff8083111561270a5761270a61247d565b8183026127188382016124bf565b938452858101830193838101908886111561273257600080fd5b84880192505b858310156127bd578235848111156127505760008081fd5b880160a0818b03601f190112156127675760008081fd5b61276f612496565b868201358152604080830135878111156127895760008081fd5b6127978d8a838701016125e4565b89840152506127a98c6060850161268d565b908201528352509184019190840190612738565b98975050505050505050565b6000806000606084860312156127de57600080fd5b8335925060208401359150604084013567ffffffffffffffff81111561280357600080fd5b6125da868287016126dc565b60006020828403121561282157600080fd5b5035919050565b60005b8381101561284357818101518382015260200161282b565b83811115612852576000848401525b50505050565b60008151808452612870816020860160208601612828565b601f01601f19169290920160200192915050565b84815260806020820152600061289d6080830186612858565b600160a060020a038516604084015282810360608401526128be8185612858565b979650505050505050565b6000602080835261010084518285015281850151604081818701528087015191506060828188015280880151925082151560808801526080880151925060a060e08189015261291a85890185612858565b935080890151601f1960c0818b880301818c01526129388784612858565b8c8201518c8203840160e08e015280518083529198508a019350898801908a810289018b0160005b82811015612a0b57858b83030184528651805183528d810151898f85015280518b8b8601526129918f860182612858565b90508f820151609f1980878403018a8801526129ad8383612858565b92508e8401519350808784030160e088015250506129cb8183612858565b9150508b8201519150815115158c8501528e82015115158b8501528b8201511515608085015280935050508c870196508c84019350600181019050612960565b509e9d5050505050505050505050505050565b600060208083528351818401528084015160a06040850152612a4360c0850182612858565b9050600160a060020a0360408601511660608501526060850151601f198086840301608087015282825180855285850191508584019450600093505b80841015612a9f5784518252938501936001939093019290850190612a7f565b5060808801519450818782030160a08801526127bd8186612858565b600080600080600060e08688031215612ad357600080fd5b853594506020860135935060408601359250606086013567ffffffffffffffff811115612aff57600080fd5b612b0b888289016125e4565b925050612b1b876080880161268d565b90509295509295909350565b600060208284031215612b3957600080fd5b813567ffffffffffffffff811115612b5057600080fd5b612b5c848285016124f0565b949350505050565b60008060408385031215612b7757600080fd5b50508035926020909101359150565b600080600060608486031215612b9b57600080fd5b8335925060208401359150604084013567ffffffffffffffff811115612bc057600080fd5b6125da868287016124f0565b868152856020820152846040820152831515606082015260c060808201526000612bf960c0830185612858565b82810360a0840152612c0b8185612858565b9998505050505050505050565b600080600060608486031215612c2d57600080fd5b83359250602084013567ffffffffffffffff80821115612c4c57600080fd5b612c58878388016124f0565b93506040860135915080821115612c6e57600080fd5b506125da868287016126dc565b60e060020a634e487b7102600052601160045260246000fd5b600060018201612ca657612ca6612c7b565b5060010190565b60e060020a634e487b7102600052603260045260246000fd5b600281046001821680612cda57607f821691505b602082108103612cfd5760e060020a634e487b7102600052602260045260246000fd5b50919050565b60208082526026908201527f5573657220646f6573206e6f74206861766520636f7272656374207065726d6960408201527f7373696f6e730000000000000000000000000000000000000000000000000000606082015260800190565b60008251612d72818460208701612828565b9190910192915050565b8154600090819060028104600180831680612d9857607f831692505b60208084108203612dba5760e060020a634e487b710286526022600452602486fd5b818015612dce5760018114612ddf57612e0c565b60ff19861689528489019650612e0c565b60008a81526020902060005b86811015612e045781548b820152908501908301612deb565b505084890196505b509498975050505050505050565b600082821015612e2c57612e2c612c7b565b500390565b60e060020a634e487b7102600052603160045260246000fdfea264697066735822122053d0c21615d8e268cd3e87b4c7bd7ef5da072ecd52502e6d0555047af551d51664736f6c634300080d0033",
  "immutableReferences": {},
  "source": "pragma solidity >=0.4.22 <0.9.0;\n\nimport '../node_modules/@openzeppelin/contracts/token/ERC721/ERC721.sol';\nimport '../node_modules/@openzeppelin/contracts/utils/Counters.sol';\n\ncontract Users{\n    struct User{\n        uint id;\n        string username;\n        address walletAddress;\n        uint256[] credentialIds;\n        string publicKey;\n    }\n\n    struct CredentialData{\n        string fileName;\n        string assetHash;\n        string metadataUrl;\n    }\n\n    struct Viewer{\n        uint id;\n        CredentialData data;\n        Permissions permissions;\n    }\n\n    struct Permissions{\n        bool transfer;\n        bool revoke;\n        bool share;\n    }\n\n    struct Credential{\n        uint id;\n        uint256 createdBy;\n        uint256 currentOwner;\n        bool isValid;\n        string revocationReason;\n        string createdAt;\n        // uint256[] viewers;\n        Viewer[] viewers;\n    }\n\n    using Counters for Counters.Counter;\n    Counters.Counter private _credentialIds;\n    uint public userCount = 0;\n\n    mapping(uint256 => Credential) public credentials;\n    mapping(uint => User) public users;\n    \n\n    // * User functions * //\n\n    // * Register new user\n    function createNewUser(string memory username, address walletAddress, string memory publicKey) public {\n        userCount++;\n        uint256[] memory credentialIds;\n        users[userCount] = User(userCount, username, walletAddress, credentialIds, publicKey);\n    }\n\n    // * Add credential to user's credentials list \n    function addCredentialToUser(uint id, uint256 credentialId) public {\n        users[id].credentialIds.push(credentialId);\n    }\n\n    //  * Remove credential from user's credentials list\n    function removeCredentialFromUser(uint id, uint256 credentialId) public {\n        uint256 i = 0;\n        for(i; i < users[id].credentialIds.length; i++){\n            if(users[id].credentialIds[i] == credentialId){\n                users[id].credentialIds[i] = users[id].credentialIds[users[id].credentialIds.length - 1];\n                delete users[id].credentialIds[users[id].credentialIds.length-1];\n                users[id].credentialIds.pop();\n            }\n        }\n    }\n\n    // * Fetch user by Id\n    function getUserById(uint id) public view returns (User memory){\n        return users[id];\n    }\n\n    // * Fetch user by username\n    function getUserByUsername(string memory username) public view returns (User memory){\n        uint i = 0;\n        for(i; i<=userCount; i++){\n            if(keccak256(abi.encodePacked(users[i].username)) == keccak256(abi.encodePacked(username))){\n                return users[i];\n            }\n        }\n        revert(\"Not found\");\n    }\n\n    \n    // * Credential functions\n\n    // * Add credential to credential List and user Credentials\n    function addCredential(uint256 createdBy, string memory createdAt, Viewer[] memory viewers) public returns (uint256){\n        _credentialIds.increment();\n        uint256 newItemId = _credentialIds.current();\n        uint i =0;\n        Credential storage credential = credentials[newItemId];\n        credential.createdAt = createdAt;\n        credential.createdBy = createdBy;\n        credential.currentOwner = createdBy;\n        credential.id = newItemId;\n        credential.isValid = true;\n        credential.revocationReason = '';\n        while(i<viewers.length){\n            credential.viewers.push(Viewer(viewers[i].id, CredentialData(viewers[i].data.fileName, viewers[i].data.assetHash, viewers[i].data.metadataUrl), Permissions(viewers[i].permissions.transfer, viewers[i].permissions.revoke, viewers[i].permissions.share)));\n            i++;\n        }\n        addCredentialToUser(createdBy, newItemId);\n        return newItemId;\n    }\n\n    // * Fetch credential by credentialId\n    function getCredentialById(uint256 id) public view returns (Credential memory){\n        return credentials[id];\n    }\n\n    // * Transfer credential from FROM to TO\n    function transferCredential(uint256 id, uint256 fromId, uint256 toId, CredentialData memory data, Permissions memory permissions) public { \n        uint i = 0;\n        bool flag = false;\n        Viewer[] memory viewers = credentials[id].viewers;\n        while(i < viewers.length){\n            Viewer memory viewer = credentials[id].viewers[i];\n            if(viewer.id == fromId && viewer.permissions.transfer){\n                credentials[id].currentOwner = toId;\n                credentials[id].viewers.push(Viewer(toId, data, permissions));\n                addCredentialToUser(toId, id);\n                flag = true;\n                break;\n            }\n            i++;\n        }\n        if(!flag){\n            revert(\"User does not have correct permissions\");\n        }\n    }\n\n    // * Revoke Credential status\n    function revokeCredential(uint256 id, uint256 fromId, string memory reason) public {\n        uint i = 0;\n        bool flag = false;\n        Viewer[] memory viewers = credentials[id].viewers;\n        while(i < viewers.length){\n            Viewer memory viewer = credentials[id].viewers[i];\n            if(viewer.id == fromId && viewer.permissions.revoke){\n                credentials[id].isValid = false;\n                credentials[id].revocationReason = reason;\n                flag = true;\n                break;\n            }\n            i++;\n        }\n        if(!flag){\n            revert(\"User does not have correct permissions\");\n        }\n    }\n\n    // * Add viewer to list of viewers\n    function addViewerToCredential(uint256 id, uint256 fromId, Viewer[] memory viewers) public {\n        uint i = 0;\n        bool flag = false;\n        while(i<credentials[id].viewers.length){\n            Viewer memory viewer = credentials[id].viewers[i];\n            if(viewer.id == fromId && viewer.permissions.share){\n                uint j = 0; \n                while(j < viewers.length){\n                    credentials[id].viewers.push(Viewer(viewers[j].id, CredentialData(viewers[j].data.fileName, viewers[j].data.assetHash, viewers[j].data.metadataUrl), Permissions(viewers[j].permissions.transfer, viewers[j].permissions.revoke, viewers[j].permissions.share)));\n                    addCredentialToUser(viewers[j].id, id);\n                    j++;\n                    flag = true;\n                }\n                break;\n            }\n            i++;\n        }\n        if(!flag){\n            revert(\"User does not have correct permissions\");\n        }\n    }\n}",
  "sourcePath": "/Users/siddharthagarwal/Desktop/Projects/FYP21050/server/blockchain/contracts/Users.sol",
  "compiler": {
    "name": "solc",
    "version": "0.8.13+commit.abaa5c0e.Emscripten.clang"
  },
  "schemaVersion": "3.4.6",
  "updatedAt": "2022-04-16T15:44:24.504Z",
  "networkType": "ethereum",
  "devdoc": {
    "kind": "dev",
    "methods": {},
    "version": 1
  },
  "userdoc": {
    "kind": "user",
    "methods": {},
    "version": 1
  }
}