{
  "contractName": "Users",
  "abi": [
    {
      "inputs": [
        {
          "internalType": "uint256",
          "name": "",
          "type": "uint256"
        }
      ],
      "name": "credentials",
      "outputs": [
        {
          "internalType": "uint256",
          "name": "id",
          "type": "uint256"
        },
        {
          "internalType": "uint256",
          "name": "createdBy",
          "type": "uint256"
        },
        {
          "components": [
            {
              "internalType": "string",
              "name": "fileName",
              "type": "string"
            },
            {
              "internalType": "string",
              "name": "assetHash",
              "type": "string"
            },
            {
              "internalType": "string",
              "name": "metadataUrl",
              "type": "string"
            }
          ],
          "internalType": "struct Users.CredentialData",
          "name": "data",
          "type": "tuple"
        },
        {
          "internalType": "uint256",
          "name": "currentOwner",
          "type": "uint256"
        },
        {
          "internalType": "bool",
          "name": "isValid",
          "type": "bool"
        },
        {
          "internalType": "string",
          "name": "revocationReason",
          "type": "string"
        },
        {
          "internalType": "string",
          "name": "createdAt",
          "type": "string"
        }
      ],
      "stateMutability": "view",
      "type": "function",
      "constant": true
    },
    {
      "inputs": [],
      "name": "userCount",
      "outputs": [
        {
          "internalType": "uint256",
          "name": "",
          "type": "uint256"
        }
      ],
      "stateMutability": "view",
      "type": "function",
      "constant": true
    },
    {
      "inputs": [
        {
          "internalType": "uint256",
          "name": "",
          "type": "uint256"
        }
      ],
      "name": "users",
      "outputs": [
        {
          "internalType": "uint256",
          "name": "id",
          "type": "uint256"
        },
        {
          "internalType": "string",
          "name": "username",
          "type": "string"
        },
        {
          "internalType": "string",
          "name": "publicKey",
          "type": "string"
        }
      ],
      "stateMutability": "view",
      "type": "function",
      "constant": true
    },
    {
      "inputs": [
        {
          "internalType": "string",
          "name": "username",
          "type": "string"
        },
        {
          "internalType": "string",
          "name": "publicKey",
          "type": "string"
        }
      ],
      "name": "createNewUser",
      "outputs": [],
      "stateMutability": "nonpayable",
      "type": "function"
    },
    {
      "inputs": [
        {
          "internalType": "uint256",
          "name": "id",
          "type": "uint256"
        },
        {
          "internalType": "uint256",
          "name": "credentialId",
          "type": "uint256"
        }
      ],
      "name": "addCredentialToUser",
      "outputs": [],
      "stateMutability": "nonpayable",
      "type": "function"
    },
    {
      "inputs": [
        {
          "internalType": "uint256",
          "name": "id",
          "type": "uint256"
        },
        {
          "internalType": "uint256",
          "name": "credentialId",
          "type": "uint256"
        }
      ],
      "name": "removeCredentialFromUser",
      "outputs": [],
      "stateMutability": "nonpayable",
      "type": "function"
    },
    {
      "inputs": [
        {
          "internalType": "uint256",
          "name": "id",
          "type": "uint256"
        }
      ],
      "name": "getUserById",
      "outputs": [
        {
          "components": [
            {
              "internalType": "uint256",
              "name": "id",
              "type": "uint256"
            },
            {
              "internalType": "string",
              "name": "username",
              "type": "string"
            },
            {
              "internalType": "string",
              "name": "publicKey",
              "type": "string"
            },
            {
              "internalType": "uint256[]",
              "name": "credentialIds",
              "type": "uint256[]"
            }
          ],
          "internalType": "struct Users.User",
          "name": "",
          "type": "tuple"
        }
      ],
      "stateMutability": "view",
      "type": "function",
      "constant": true
    },
    {
      "inputs": [
        {
          "internalType": "string",
          "name": "username",
          "type": "string"
        }
      ],
      "name": "getUserByUsername",
      "outputs": [
        {
          "components": [
            {
              "internalType": "uint256",
              "name": "id",
              "type": "uint256"
            },
            {
              "internalType": "string",
              "name": "username",
              "type": "string"
            },
            {
              "internalType": "string",
              "name": "publicKey",
              "type": "string"
            },
            {
              "internalType": "uint256[]",
              "name": "credentialIds",
              "type": "uint256[]"
            }
          ],
          "internalType": "struct Users.User",
          "name": "",
          "type": "tuple"
        }
      ],
      "stateMutability": "view",
      "type": "function",
      "constant": true
    },
    {
      "inputs": [
        {
          "internalType": "uint256",
          "name": "createdBy",
          "type": "uint256"
        },
        {
          "components": [
            {
              "internalType": "string",
              "name": "fileName",
              "type": "string"
            },
            {
              "internalType": "string",
              "name": "assetHash",
              "type": "string"
            },
            {
              "internalType": "string",
              "name": "metadataUrl",
              "type": "string"
            }
          ],
          "internalType": "struct Users.CredentialData",
          "name": "data",
          "type": "tuple"
        },
        {
          "internalType": "string",
          "name": "createdAt",
          "type": "string"
        },
        {
          "internalType": "uint256[]",
          "name": "viewers",
          "type": "uint256[]"
        }
      ],
      "name": "addCredential",
      "outputs": [
        {
          "internalType": "uint256",
          "name": "",
          "type": "uint256"
        }
      ],
      "stateMutability": "nonpayable",
      "type": "function"
    },
    {
      "inputs": [
        {
          "internalType": "uint256",
          "name": "id",
          "type": "uint256"
        }
      ],
      "name": "getCredentialById",
      "outputs": [
        {
          "components": [
            {
              "internalType": "uint256",
              "name": "id",
              "type": "uint256"
            },
            {
              "internalType": "uint256",
              "name": "createdBy",
              "type": "uint256"
            },
            {
              "components": [
                {
                  "internalType": "string",
                  "name": "fileName",
                  "type": "string"
                },
                {
                  "internalType": "string",
                  "name": "assetHash",
                  "type": "string"
                },
                {
                  "internalType": "string",
                  "name": "metadataUrl",
                  "type": "string"
                }
              ],
              "internalType": "struct Users.CredentialData",
              "name": "data",
              "type": "tuple"
            },
            {
              "internalType": "uint256",
              "name": "currentOwner",
              "type": "uint256"
            },
            {
              "internalType": "bool",
              "name": "isValid",
              "type": "bool"
            },
            {
              "internalType": "string",
              "name": "revocationReason",
              "type": "string"
            },
            {
              "internalType": "string",
              "name": "createdAt",
              "type": "string"
            },
            {
              "internalType": "uint256[]",
              "name": "viewers",
              "type": "uint256[]"
            }
          ],
          "internalType": "struct Users.Credential",
          "name": "",
          "type": "tuple"
        }
      ],
      "stateMutability": "view",
      "type": "function",
      "constant": true
    },
    {
      "inputs": [
        {
          "internalType": "uint256",
          "name": "id",
          "type": "uint256"
        },
        {
          "internalType": "uint256",
          "name": "fromId",
          "type": "uint256"
        },
        {
          "internalType": "uint256",
          "name": "toId",
          "type": "uint256"
        }
      ],
      "name": "transferCredential",
      "outputs": [],
      "stateMutability": "nonpayable",
      "type": "function"
    },
    {
      "inputs": [
        {
          "internalType": "uint256",
          "name": "id",
          "type": "uint256"
        },
        {
          "internalType": "uint256",
          "name": "fromId",
          "type": "uint256"
        },
        {
          "internalType": "string",
          "name": "reason",
          "type": "string"
        }
      ],
      "name": "revokeCredential",
      "outputs": [],
      "stateMutability": "nonpayable",
      "type": "function"
    },
    {
      "inputs": [
        {
          "internalType": "uint256",
          "name": "id",
          "type": "uint256"
        },
        {
          "internalType": "uint256",
          "name": "fromId",
          "type": "uint256"
        },
        {
          "internalType": "uint256",
          "name": "viewerId",
          "type": "uint256"
        }
      ],
      "name": "addViewerToCredential",
      "outputs": [],
      "stateMutability": "nonpayable",
      "type": "function"
    }
  ],
  "bytecode": "0x6080604052600060015534801561001557600080fd5b50611ccd806100256000396000f3fe608060405234801561001057600080fd5b50600436106100ec576000357c01000000000000000000000000000000000000000000000000000000009004806390366039116100a9578063aff804c611610083578063aff804c6146101f1578063b702a6bc14610204578063e0574e3f14610217578063ecd8bf2d1461023d57600080fd5b806390366039146101975780639f42af63146101aa578063ad25be98146101bd57600080fd5b806307973ccf146100f15780631b4aab181461010d578063365b98b2146101225780633ef39e2a146101445780634dfa3f18146101645780636ed6da9e14610177575b600080fd5b6100fa60015481565b6040519081526020015b60405180910390f35b61012061011b3660046114e5565b610250565b005b610135610130366004611511565b610324565b60405161010493929190611582565b610157610152366004611511565b610457565b604051610104919061163a565b6101206101723660046117c6565b6107fc565b61018a610185366004611511565b6108a1565b604051610104919061182a565b6100fa6101a536600461190b565b610a75565b61018a6101b8366004611a15565b610bdf565b6101206101cb366004611a52565b600091825260036020818152604084209091018054600181018255908452922090910155565b6101206101ff3660046114e5565b610e97565b610120610212366004611a74565b610ef6565b61022a610225366004611511565b610f46565b6040516101049796959493929190611ac4565b61012061024b366004611a52565b611259565b60008381526002602052604090206001015482900361029257600083815260026020908152604082206009018054600181018255908352912001819055505050565b6040517f08c379a000000000000000000000000000000000000000000000000000000000815260206004820152602660248201527f5573657220646f6573206e6f74206861766520636f7272656374207065726d6960448201527f7373696f6e73000000000000000000000000000000000000000000000000000060648201526084015b60405180910390fd5b505050565b6003602052600090815260409020805460018201805491929161034690611b25565b80601f016020809104026020016040519081016040528092919081815260200182805461037290611b25565b80156103bf5780601f10610394576101008083540402835291602001916103bf565b820191906000526020600020905b8154815290600101906020018083116103a257829003601f168201915b5050505050908060020180546103d490611b25565b80601f016020809104026020016040519081016040528092919081815260200182805461040090611b25565b801561044d5780601f106104225761010080835404028352916020019161044d565b820191906000526020600020905b81548152906001019060200180831161043057829003601f168201915b5050505050905083565b61045f6113a9565b60026000838152602001908152602001600020604051806101000160405290816000820154815260200160018201548152602001600282016040518060600160405290816000820180546104b290611b25565b80601f01602080910402602001604051908101604052809291908181526020018280546104de90611b25565b801561052b5780601f106105005761010080835404028352916020019161052b565b820191906000526020600020905b81548152906001019060200180831161050e57829003601f168201915b5050505050815260200160018201805461054490611b25565b80601f016020809104026020016040519081016040528092919081815260200182805461057090611b25565b80156105bd5780601f10610592576101008083540402835291602001916105bd565b820191906000526020600020905b8154815290600101906020018083116105a057829003601f168201915b505050505081526020016002820180546105d690611b25565b80601f016020809104026020016040519081016040528092919081815260200182805461060290611b25565b801561064f5780601f106106245761010080835404028352916020019161064f565b820191906000526020600020905b81548152906001019060200180831161063257829003601f168201915b50505091909252505050815260058201546020820152600682015460ff161515604082015260078201805460609092019161068990611b25565b80601f01602080910402602001604051908101604052809291908181526020018280546106b590611b25565b80156107025780601f106106d757610100808354040283529160200191610702565b820191906000526020600020905b8154815290600101906020018083116106e557829003601f168201915b5050505050815260200160088201805461071b90611b25565b80601f016020809104026020016040519081016040528092919081815260200182805461074790611b25565b80156107945780601f1061076957610100808354040283529160200191610794565b820191906000526020600020905b81548152906001019060200180831161077757829003601f168201915b50505050508152602001600982018054806020026020016040519081016040528092919081815260200182805480156107ec57602002820191906000526020600020905b8154815260200190600101908083116107d8575b5050505050815250509050919050565b6001805490600061080c83611b7b565b9091555050604080516080810182526001805480835260208084018781528486018790526060858101819052600093845260038352959092208451815591518051929361086193908501929190910190611412565b506040820151805161087d916002840191602090910190611412565b5060608201518051610899916003840191602090910190611496565b505050505050565b6108cc6040518060800160405280600081526020016060815260200160608152602001606081525090565b600360008381526020019081526020016000206040518060800160405290816000820154815260200160018201805461090490611b25565b80601f016020809104026020016040519081016040528092919081815260200182805461093090611b25565b801561097d5780601f106109525761010080835404028352916020019161097d565b820191906000526020600020905b81548152906001019060200180831161096057829003601f168201915b5050505050815260200160028201805461099690611b25565b80601f01602080910402602001604051908101604052809291908181526020018280546109c290611b25565b8015610a0f5780601f106109e457610100808354040283529160200191610a0f565b820191906000526020600020905b8154815290600101906020018083116109f257829003601f168201915b50505050508152602001600382018054806020026020016040519081016040528092919081815260200182805480156107ec57602002820191906000526020600020908154815260200190600101908083116107d8575050505050815250509050919050565b600080546001908101808355604080516101008101825282815260208082018a81528284018a8152606084018c9052608084018790528451808401865288815260a085015260c084018a905260e08401899052858852600280845294882084518155915196820196909655945180518051959693959394919391850192610b0192849290910190611412565b506020828101518051610b1a9260018501920190611412565b5060408201518051610b36916002840191602090910190611412565b50505060608201516005820155608082015160068201805460ff191691151591909117905560a08201518051610b76916007840191602090910190611412565b5060c08201518051610b92916008840191602090910190611412565b5060e08201518051610bae916009840191602090910190611496565b5050506000868152600360208181526040832090910180546001810182559083529120018190555b95945050505050565b610c0a6040518060800160405280600081526020016060815260200160608152602001606081525090565b60005b6001548111610e355782604051602001610c279190611b94565b60408051601f198184030181528282528051602091820120600085815260038352929092209192610c5c926001019101611bb0565b6040516020818303038152906040528051906020012003610e23576003600082815260200190815260200160002060405180608001604052908160008201548152602001600182018054610caf90611b25565b80601f0160208091040260200160405190810160405280929190818152602001828054610cdb90611b25565b8015610d285780601f10610cfd57610100808354040283529160200191610d28565b820191906000526020600020905b815481529060010190602001808311610d0b57829003601f168201915b50505050508152602001600282018054610d4190611b25565b80601f0160208091040260200160405190810160405280929190818152602001828054610d6d90611b25565b8015610dba5780601f10610d8f57610100808354040283529160200191610dba565b820191906000526020600020905b815481529060010190602001808311610d9d57829003601f168201915b5050505050815260200160038201805480602002602001604051908101604052809291908181526020018280548015610e1257602002820191906000526020600020905b815481526020019060010190808311610dfe575b505050505081525050915050919050565b80610e2d81611b7b565b915050610c0d565b6040517f08c379a000000000000000000000000000000000000000000000000000000000815260206004820152600960248201527f4e6f7420666f756e6400000000000000000000000000000000000000000000006044820152606401610316565b600083815260026020526040902060050154829003610292576000838152600260205260409020600501819055610ece8284611259565b6000908152600360208181526040832090910180546001810182559083529120019190915550565b60008381526002602052604090206001015482900361029257600083815260026020908152604090912060068101805460ff191690558251610f4092600790920191840190611412565b50505050565b60026020819052600091825260409182902080546001820154845160608101909552928201805491949182908290610f7d90611b25565b80601f0160208091040260200160405190810160405280929190818152602001828054610fa990611b25565b8015610ff65780601f10610fcb57610100808354040283529160200191610ff6565b820191906000526020600020905b815481529060010190602001808311610fd957829003601f168201915b5050505050815260200160018201805461100f90611b25565b80601f016020809104026020016040519081016040528092919081815260200182805461103b90611b25565b80156110885780601f1061105d57610100808354040283529160200191611088565b820191906000526020600020905b81548152906001019060200180831161106b57829003601f168201915b505050505081526020016002820180546110a190611b25565b80601f01602080910402602001604051908101604052809291908181526020018280546110cd90611b25565b801561111a5780601f106110ef5761010080835404028352916020019161111a565b820191906000526020600020905b8154815290600101906020018083116110fd57829003601f168201915b50505091909252505050600582015460068301546007840180549394929360ff909216929161114890611b25565b80601f016020809104026020016040519081016040528092919081815260200182805461117490611b25565b80156111c15780601f10611196576101008083540402835291602001916111c1565b820191906000526020600020905b8154815290600101906020018083116111a457829003601f168201915b5050505050908060080180546111d690611b25565b80601f016020809104026020016040519081016040528092919081815260200182805461120290611b25565b801561124f5780601f106112245761010080835404028352916020019161124f565b820191906000526020600020905b81548152906001019060200180831161123257829003601f168201915b5050505050905087565b60005b6000838152600360208190526040909120015481101561031f578160036000858152602001908152602001600020600301828154811061129e5761129e611c4e565b9060005260206000200154036113975760008381526003602081905260409091200180546112ce90600190611c67565b815481106112de576112de611c4e565b906000526020600020015460036000858152602001908152602001600020600301828154811061131057611310611c4e565b60009182526020808320909101929092558481526003918290526040902001805461133d90600190611c67565b8154811061134d5761134d611c4e565b90600052602060002001600090556003600084815260200190815260200160002060030180548061138057611380611c7e565b600190038181906000526020600020016000905590555b806113a181611b7b565b91505061125c565b60405180610100016040528060008152602001600081526020016113e760405180606001604052806060815260200160608152602001606081525090565b8152602001600081526020016000151581526020016060815260200160608152602001606081525090565b82805461141e90611b25565b90600052602060002090601f0160209004810192826114405760008555611486565b82601f1061145957805160ff1916838001178555611486565b82800160010185558215611486579182015b8281111561148657825182559160200191906001019061146b565b506114929291506114d0565b5090565b828054828255906000526020600020908101928215611486579160200282018281111561148657825182559160200191906001019061146b565b5b8082111561149257600081556001016114d1565b6000806000606084860312156114fa57600080fd5b505081359360208301359350604090920135919050565b60006020828403121561152357600080fd5b5035919050565b60005b8381101561154557818101518382015260200161152d565b83811115610f405750506000910152565b6000815180845261156e81602086016020860161152a565b601f01601f19169290920160200192915050565b83815260606020820152600061159b6060830185611556565b82810360408401526115ad8185611556565b9695505050505050565b60008151606084526115cc6060850182611556565b9050602083015184820360208601526115e58282611556565b91505060408301518482036040860152610bd68282611556565b600081518084526020808501945080840160005b8381101561162f57815187529582019590820190600101611613565b509495945050505050565b6020815281516020820152602082015160408201526000604083015161010080606085015261166d6101208501836115b7565b915060608501516080850152608085015161168c60a086018215159052565b5060a0850151601f19808685030160c08701526116a98483611556565b935060c08701519150808685030160e08701526116c68483611556565b935060e08701519150808685030183870152506115ad83826115ff565b60e060020a634e487b7102600052604160045260246000fd5b6040516060810167ffffffffffffffff8111828210171561171f5761171f6116e3565b60405290565b604051601f8201601f1916810167ffffffffffffffff8111828210171561174e5761174e6116e3565b604052919050565b600082601f83011261176757600080fd5b813567ffffffffffffffff811115611781576117816116e3565b611794601f8201601f1916602001611725565b8181528460208386010111156117a957600080fd5b816020850160208301376000918101602001919091529392505050565b600080604083850312156117d957600080fd5b823567ffffffffffffffff808211156117f157600080fd5b6117fd86838701611756565b9350602085013591508082111561181357600080fd5b5061182085828601611756565b9150509250929050565b6020815281516020820152600060208301516080604084015261185060a0840182611556565b90506040840151601f198085840301606086015261186e8383611556565b9250606086015191508085840301608086015250610bd682826115ff565b600082601f83011261189d57600080fd5b8135602067ffffffffffffffff8211156118b9576118b96116e3565b8082026118c7828201611725565b92835284810182019282810190878511156118e157600080fd5b83870192505b84831015611900578235825291830191908301906118e7565b979650505050505050565b6000806000806080858703121561192157600080fd5b84359350602085013567ffffffffffffffff8082111561194057600080fd5b908601906060828903121561195457600080fd5b61195c6116fc565b82358281111561196b57600080fd5b6119778a828601611756565b82525060208301358281111561198c57600080fd5b6119988a828601611756565b6020830152506040830135828111156119b057600080fd5b6119bc8a828601611756565b6040830152508095505060408701359150808211156119da57600080fd5b6119e688838901611756565b935060608701359150808211156119fc57600080fd5b50611a098782880161188c565b91505092959194509250565b600060208284031215611a2757600080fd5b813567ffffffffffffffff811115611a3e57600080fd5b611a4a84828501611756565b949350505050565b60008060408385031215611a6557600080fd5b50508035926020909101359150565b600080600060608486031215611a8957600080fd5b8335925060208401359150604084013567ffffffffffffffff811115611aae57600080fd5b611aba86828701611756565b9150509250925092565b87815286602082015260e060408201526000611ae360e08301886115b7565b866060840152851515608084015282810360a0840152611b038186611556565b905082810360c0840152611b178185611556565b9a9950505050505050505050565b600281046001821680611b3957607f821691505b602082108103611b5c5760e060020a634e487b7102600052602260045260246000fd5b50919050565b60e060020a634e487b7102600052601160045260246000fd5b600060018201611b8d57611b8d611b62565b5060010190565b60008251611ba681846020870161152a565b9190910192915050565b8154600090819060028104600180831680611bcc57607f831692505b60208084108203611bee5760e060020a634e487b710286526022600452602486fd5b818015611c025760018114611c1357611c40565b60ff19861689528489019650611c40565b60008a81526020902060005b86811015611c385781548b820152908501908301611c1f565b505084890196505b509498975050505050505050565b60e060020a634e487b7102600052603260045260246000fd5b600082821015611c7957611c79611b62565b500390565b60e060020a634e487b7102600052603160045260246000fdfea2646970667358221220450c507a0c1eb51b8aa127ce8756c774101bd6c20f9b2561111ba554baa6910864736f6c634300080d0033",
  "immutableReferences": {},
  "source": "pragma solidity >=0.4.22 <0.9.0;\n\nimport '../node_modules/@openzeppelin/contracts/token/ERC721/ERC721.sol';\nimport '../node_modules/@openzeppelin/contracts/utils/Counters.sol';\n\ncontract Users{\n    struct User{\n        uint id;\n        string username;\n        string publicKey;\n        uint256[] credentialIds;\n    }\n\n    struct CredentialData{\n        string fileName;\n        string assetHash;\n        string metadataUrl;\n    }\n\n    struct Credential{\n        uint id;\n        uint256 createdBy;\n        CredentialData data;\n        uint256 currentOwner;\n        bool isValid;\n        string revocationReason;\n        string createdAt;\n        uint256[] viewers;\n    }\n\n    using Counters for Counters.Counter;\n    Counters.Counter private _credentialIds;\n    uint public userCount = 0;\n\n    mapping(uint256 => Credential) public credentials;\n    mapping(uint => User) public users;\n    \n\n    // * User functions\n    function createNewUser(string memory username, string memory publicKey) public {\n        userCount++;\n        uint256[] memory credentialIds;\n        users[userCount] = User(userCount, username, publicKey, credentialIds);\n    }\n\n    function addCredentialToUser(uint id, uint256 credentialId) public {\n        users[id].credentialIds.push(credentialId);\n    }\n\n    function removeCredentialFromUser(uint id, uint256 credentialId) public {\n        uint256 i = 0;\n        for(i; i < users[id].credentialIds.length; i++){\n            if(users[id].credentialIds[i] == credentialId){\n                users[id].credentialIds[i] = users[id].credentialIds[users[id].credentialIds.length - 1];\n                delete users[id].credentialIds[users[id].credentialIds.length-1];\n                users[id].credentialIds.pop();\n            }\n        }\n    }\n\n    function getUserById(uint id) public view returns (User memory){\n        return users[id];\n    }\n\n    function getUserByUsername(string memory username) public view returns (User memory){\n        uint i = 0;\n        for(i; i<=userCount; i++){\n            if(keccak256(abi.encodePacked(users[i].username)) == keccak256(abi.encodePacked(username))){\n                return users[i];\n            }\n        }\n        revert(\"Not found\");\n    }\n\n    \n    // * Credential functions\n    // * Add credential to credential List and user Credentials\n    function addCredential(uint256 createdBy, CredentialData memory data, string memory createdAt, uint256[] memory viewers) public returns (uint256){\n        _credentialIds.increment();\n        uint256 newItemId = _credentialIds.current();\n        credentials[newItemId] = Credential(newItemId, createdBy, data, createdBy, true, '', createdAt, viewers );\n        addCredentialToUser(createdBy, newItemId);\n        return newItemId;\n    }\n\n    function getCredentialById(uint256 id) public view returns (Credential memory){\n        return credentials[id];\n    }\n\n    function transferCredential(uint256 id, uint256 fromId, uint256 toId) public {\n        if(credentials[id].currentOwner == fromId){\n            credentials[id].currentOwner = toId;\n            removeCredentialFromUser(fromId, id);\n            addCredentialToUser(toId, id);\n        }else{\n            revert(\"User does not have correct permissions\");\n        }\n    }\n\n    function revokeCredential(uint256 id, uint256 fromId, string memory reason) public {\n        if(credentials[id].createdBy == fromId){\n            credentials[id].isValid = false;\n            credentials[id].revocationReason = reason;\n        }\n        else{\n            revert(\"User does not have correct permissions\");\n        }\n    }\n\n    function addViewerToCredential(uint256 id, uint256 fromId, uint256 viewerId) public {\n        if(credentials[id].createdBy == fromId){\n            credentials[id].viewers.push(viewerId);\n        }\n        else{\n            revert(\"User does not have correct permissions\");\n        }\n    }\n\n}",
  "sourcePath": "/Users/siddharthagarwal/Desktop/Projects/FYP21050/server/blockchain/contracts/Users.sol",
  "compiler": {
    "name": "solc",
    "version": "0.8.13+commit.abaa5c0e.Emscripten.clang"
  },
  "schemaVersion": "3.4.6",
  "updatedAt": "2022-04-12T13:00:14.282Z",
  "networkType": "ethereum",
  "devdoc": {
    "kind": "dev",
    "methods": {},
    "version": 1
  },
  "userdoc": {
    "kind": "user",
    "methods": {},
    "version": 1
  }
}