{
  "contractName": "Users",
  "abi": [
    {
      "inputs": [
        {
          "internalType": "uint256",
          "name": "",
          "type": "uint256"
        }
      ],
      "name": "credentials",
      "outputs": [
        {
          "internalType": "uint256",
          "name": "id",
          "type": "uint256"
        },
        {
          "internalType": "uint256",
          "name": "createdBy",
          "type": "uint256"
        },
        {
          "internalType": "uint256",
          "name": "currentOwner",
          "type": "uint256"
        },
        {
          "internalType": "bool",
          "name": "isValid",
          "type": "bool"
        },
        {
          "internalType": "string",
          "name": "revocationReason",
          "type": "string"
        },
        {
          "internalType": "string",
          "name": "createdAt",
          "type": "string"
        }
      ],
      "stateMutability": "view",
      "type": "function",
      "constant": true
    },
    {
      "inputs": [],
      "name": "userCount",
      "outputs": [
        {
          "internalType": "uint256",
          "name": "",
          "type": "uint256"
        }
      ],
      "stateMutability": "view",
      "type": "function",
      "constant": true
    },
    {
      "inputs": [
        {
          "internalType": "uint256",
          "name": "",
          "type": "uint256"
        }
      ],
      "name": "users",
      "outputs": [
        {
          "internalType": "uint256",
          "name": "id",
          "type": "uint256"
        },
        {
          "internalType": "string",
          "name": "username",
          "type": "string"
        },
        {
          "internalType": "address",
          "name": "walletAddress",
          "type": "address"
        }
      ],
      "stateMutability": "view",
      "type": "function",
      "constant": true
    },
    {
      "inputs": [
        {
          "internalType": "string",
          "name": "username",
          "type": "string"
        },
        {
          "internalType": "address",
          "name": "walletAddress",
          "type": "address"
        }
      ],
      "name": "createNewUser",
      "outputs": [],
      "stateMutability": "nonpayable",
      "type": "function"
    },
    {
      "inputs": [
        {
          "internalType": "uint256",
          "name": "id",
          "type": "uint256"
        },
        {
          "internalType": "uint256",
          "name": "credentialId",
          "type": "uint256"
        }
      ],
      "name": "addCredentialToUser",
      "outputs": [],
      "stateMutability": "nonpayable",
      "type": "function"
    },
    {
      "inputs": [
        {
          "internalType": "uint256",
          "name": "id",
          "type": "uint256"
        },
        {
          "internalType": "uint256",
          "name": "credentialId",
          "type": "uint256"
        }
      ],
      "name": "removeCredentialFromUser",
      "outputs": [],
      "stateMutability": "nonpayable",
      "type": "function"
    },
    {
      "inputs": [
        {
          "internalType": "uint256",
          "name": "id",
          "type": "uint256"
        }
      ],
      "name": "getUserById",
      "outputs": [
        {
          "components": [
            {
              "internalType": "uint256",
              "name": "id",
              "type": "uint256"
            },
            {
              "internalType": "string",
              "name": "username",
              "type": "string"
            },
            {
              "internalType": "address",
              "name": "walletAddress",
              "type": "address"
            },
            {
              "internalType": "uint256[]",
              "name": "credentialIds",
              "type": "uint256[]"
            }
          ],
          "internalType": "struct Users.User",
          "name": "",
          "type": "tuple"
        }
      ],
      "stateMutability": "view",
      "type": "function",
      "constant": true
    },
    {
      "inputs": [
        {
          "internalType": "string",
          "name": "username",
          "type": "string"
        }
      ],
      "name": "getUserByUsername",
      "outputs": [
        {
          "components": [
            {
              "internalType": "uint256",
              "name": "id",
              "type": "uint256"
            },
            {
              "internalType": "string",
              "name": "username",
              "type": "string"
            },
            {
              "internalType": "address",
              "name": "walletAddress",
              "type": "address"
            },
            {
              "internalType": "uint256[]",
              "name": "credentialIds",
              "type": "uint256[]"
            }
          ],
          "internalType": "struct Users.User",
          "name": "",
          "type": "tuple"
        }
      ],
      "stateMutability": "view",
      "type": "function",
      "constant": true
    },
    {
      "inputs": [
        {
          "internalType": "uint256",
          "name": "createdBy",
          "type": "uint256"
        },
        {
          "internalType": "string",
          "name": "createdAt",
          "type": "string"
        },
        {
          "components": [
            {
              "internalType": "uint256",
              "name": "id",
              "type": "uint256"
            },
            {
              "components": [
                {
                  "internalType": "string",
                  "name": "fileName",
                  "type": "string"
                },
                {
                  "internalType": "string",
                  "name": "assetHash",
                  "type": "string"
                },
                {
                  "internalType": "string",
                  "name": "metadataUrl",
                  "type": "string"
                }
              ],
              "internalType": "struct Users.CredentialData",
              "name": "data",
              "type": "tuple"
            },
            {
              "components": [
                {
                  "internalType": "bool",
                  "name": "transfer",
                  "type": "bool"
                },
                {
                  "internalType": "bool",
                  "name": "revoke",
                  "type": "bool"
                },
                {
                  "internalType": "bool",
                  "name": "share",
                  "type": "bool"
                }
              ],
              "internalType": "struct Users.Permissions",
              "name": "permissions",
              "type": "tuple"
            }
          ],
          "internalType": "struct Users.Viewer[]",
          "name": "viewers",
          "type": "tuple[]"
        }
      ],
      "name": "addCredential",
      "outputs": [
        {
          "internalType": "uint256",
          "name": "",
          "type": "uint256"
        }
      ],
      "stateMutability": "nonpayable",
      "type": "function"
    },
    {
      "inputs": [
        {
          "internalType": "uint256",
          "name": "id",
          "type": "uint256"
        }
      ],
      "name": "getCredentialById",
      "outputs": [
        {
          "components": [
            {
              "internalType": "uint256",
              "name": "id",
              "type": "uint256"
            },
            {
              "internalType": "uint256",
              "name": "createdBy",
              "type": "uint256"
            },
            {
              "internalType": "uint256",
              "name": "currentOwner",
              "type": "uint256"
            },
            {
              "internalType": "bool",
              "name": "isValid",
              "type": "bool"
            },
            {
              "internalType": "string",
              "name": "revocationReason",
              "type": "string"
            },
            {
              "internalType": "string",
              "name": "createdAt",
              "type": "string"
            },
            {
              "components": [
                {
                  "internalType": "uint256",
                  "name": "id",
                  "type": "uint256"
                },
                {
                  "components": [
                    {
                      "internalType": "string",
                      "name": "fileName",
                      "type": "string"
                    },
                    {
                      "internalType": "string",
                      "name": "assetHash",
                      "type": "string"
                    },
                    {
                      "internalType": "string",
                      "name": "metadataUrl",
                      "type": "string"
                    }
                  ],
                  "internalType": "struct Users.CredentialData",
                  "name": "data",
                  "type": "tuple"
                },
                {
                  "components": [
                    {
                      "internalType": "bool",
                      "name": "transfer",
                      "type": "bool"
                    },
                    {
                      "internalType": "bool",
                      "name": "revoke",
                      "type": "bool"
                    },
                    {
                      "internalType": "bool",
                      "name": "share",
                      "type": "bool"
                    }
                  ],
                  "internalType": "struct Users.Permissions",
                  "name": "permissions",
                  "type": "tuple"
                }
              ],
              "internalType": "struct Users.Viewer[]",
              "name": "viewers",
              "type": "tuple[]"
            }
          ],
          "internalType": "struct Users.Credential",
          "name": "",
          "type": "tuple"
        }
      ],
      "stateMutability": "view",
      "type": "function",
      "constant": true
    },
    {
      "inputs": [
        {
          "internalType": "uint256",
          "name": "id",
          "type": "uint256"
        },
        {
          "internalType": "uint256",
          "name": "fromId",
          "type": "uint256"
        },
        {
          "internalType": "uint256",
          "name": "toId",
          "type": "uint256"
        },
        {
          "components": [
            {
              "internalType": "string",
              "name": "fileName",
              "type": "string"
            },
            {
              "internalType": "string",
              "name": "assetHash",
              "type": "string"
            },
            {
              "internalType": "string",
              "name": "metadataUrl",
              "type": "string"
            }
          ],
          "internalType": "struct Users.CredentialData",
          "name": "data",
          "type": "tuple"
        },
        {
          "components": [
            {
              "internalType": "bool",
              "name": "transfer",
              "type": "bool"
            },
            {
              "internalType": "bool",
              "name": "revoke",
              "type": "bool"
            },
            {
              "internalType": "bool",
              "name": "share",
              "type": "bool"
            }
          ],
          "internalType": "struct Users.Permissions",
          "name": "permissions",
          "type": "tuple"
        }
      ],
      "name": "transferCredential",
      "outputs": [],
      "stateMutability": "nonpayable",
      "type": "function"
    },
    {
      "inputs": [
        {
          "internalType": "uint256",
          "name": "id",
          "type": "uint256"
        },
        {
          "internalType": "uint256",
          "name": "fromId",
          "type": "uint256"
        },
        {
          "internalType": "string",
          "name": "reason",
          "type": "string"
        }
      ],
      "name": "revokeCredential",
      "outputs": [],
      "stateMutability": "nonpayable",
      "type": "function"
    },
    {
      "inputs": [
        {
          "internalType": "uint256",
          "name": "id",
          "type": "uint256"
        },
        {
          "internalType": "uint256",
          "name": "fromId",
          "type": "uint256"
        },
        {
          "components": [
            {
              "internalType": "uint256",
              "name": "id",
              "type": "uint256"
            },
            {
              "components": [
                {
                  "internalType": "string",
                  "name": "fileName",
                  "type": "string"
                },
                {
                  "internalType": "string",
                  "name": "assetHash",
                  "type": "string"
                },
                {
                  "internalType": "string",
                  "name": "metadataUrl",
                  "type": "string"
                }
              ],
              "internalType": "struct Users.CredentialData",
              "name": "data",
              "type": "tuple"
            },
            {
              "components": [
                {
                  "internalType": "bool",
                  "name": "transfer",
                  "type": "bool"
                },
                {
                  "internalType": "bool",
                  "name": "revoke",
                  "type": "bool"
                },
                {
                  "internalType": "bool",
                  "name": "share",
                  "type": "bool"
                }
              ],
              "internalType": "struct Users.Permissions",
              "name": "permissions",
              "type": "tuple"
            }
          ],
          "internalType": "struct Users.Viewer[]",
          "name": "viewers",
          "type": "tuple[]"
        }
      ],
      "name": "addViewerToCredential",
      "outputs": [],
      "stateMutability": "nonpayable",
      "type": "function"
    }
  ],
  "bytecode": "0x6080604052600060015534801561001557600080fd5b50612c76806100256000396000f3fe608060405234801561001057600080fd5b50600436106100ec576000357c0100000000000000000000000000000000000000000000000000000000900480639f42af63116100a9578063b702a6bc11610083578063b702a6bc146101f1578063e0574e3f14610204578063ecd8bf2d14610229578063fb42ae4c1461023c57600080fd5b80639f42af63146101975780639fbc1c85146101aa578063ad25be98146101bd57600080fd5b806307973ccf146100f1578063192dd5471461010d578063365b98b2146101225780633ef39e2a146101445780636ed6da9e1461016457806370b5895114610184575b600080fd5b6100fa60015481565b6040519081526020015b60405180910390f35b61012061011b366004612580565b61024f565b005b6101356101303660046125d0565b6107a2565b60405161010493929190612645565b6101576101523660046125d0565b610856565b6040516101049190612677565b6101776101723660046125d0565b610c82565b60405161010491906127cc565b610120610192366004612853565b610ddf565b6101776101a53660046128bf565b611435565b6101206101b83660046128fc565b61165d565b6101206101cb36600461295a565b600091825260036020818152604084209091018054600181018255908452922090910155565b6101206101ff36600461297c565b611721565b6102176102123660046125d0565b611c86565b604051610104969594939291906129c2565b61012061023736600461295a565b611dd3565b6100fa61024a366004612a0e565b611f28565b6000805b60008581526002602052604090206006015482101561077257600085815260026020526040812060060180548490811061028f5761028f612a71565b906000526020600020906005020160405180606001604052908160008201548152602001600182016040518060600160405290816000820180546102d290612a8a565b80601f01602080910402602001604051908101604052809291908181526020018280546102fe90612a8a565b801561034b5780601f106103205761010080835404028352916020019161034b565b820191906000526020600020905b81548152906001019060200180831161032e57829003601f168201915b5050505050815260200160018201805461036490612a8a565b80601f016020809104026020016040519081016040528092919081815260200182805461039090612a8a565b80156103dd5780601f106103b2576101008083540402835291602001916103dd565b820191906000526020600020905b8154815290600101906020018083116103c057829003601f168201915b505050505081526020016002820180546103f690612a8a565b80601f016020809104026020016040519081016040528092919081815260200182805461042290612a8a565b801561046f5780601f106104445761010080835404028352916020019161046f565b820191906000526020600020905b81548152906001019060200180831161045257829003601f168201915b505050919092525050508152604080516060810182526004939093015460ff80821615158552610100820481161515602086810191909152620100009092041615159184019190915201528051909150851480156104d257508060400151604001515b1561075f5760005b84518110156107585760026000888152602001908152602001600020600601604051806060016040528087848151811061051657610516612a71565b6020026020010151600001518152602001604051806060016040528089868151811061054457610544612a71565b60200260200101516020015160000151815260200189868151811061056b5761056b612a71565b60200260200101516020015160200151815260200189868151811061059257610592612a71565b60200260200101516020015160400151815250815260200160405180606001604052808986815181106105c7576105c7612a71565b60200260200101516040015160000151151581526020018986815181106105f0576105f0612a71565b602002602001015160400151602001511515815260200189868151811061061957610619612a71565b6020908102919091018101516040908101510151151590915291528254600181810185556000948552938290208351600590920201908155828201518051805194959294919392850192610672928492909101906121e5565b50602082810151805161068b92600185019201906121e5565b50604082015180516106a79160028401916020909101906121e5565b505050604091820151805160049092018054602083015192909401511515620100000262ff0000199215156101000261ff00199415159490941661ffff1990951694909417929092171691909117905584516107429086908390811061070f5761070f612a71565b60200260200101516000015188600091825260036020818152604084209091018054600181018255908452922090910155565b8061074c81612ae0565b915050600192506104da565b5050610772565b8261076981612ae0565b93505050610253565b8061079b5760405160e560020a62461bcd02815260040161079290612af9565b60405180910390fd5b5050505050565b600360205260009081526040902080546001820180549192916107c490612a8a565b80601f01602080910402602001604051908101604052809291908181526020018280546107f090612a8a565b801561083d5780601f106108125761010080835404028352916020019161083d565b820191906000526020600020905b81548152906001019060200180831161082057829003601f168201915b50505060029093015491925050600160a060020a031683565b6108986040518060e001604052806000815260200160008152602001600081526020016000151581526020016060815260200160608152602001606081525090565b600082815260026020818152604092839020835160e081018552815481526001820154928101929092529182015492810192909252600381015460ff16151560608301526004810180546080840191906108f190612a8a565b80601f016020809104026020016040519081016040528092919081815260200182805461091d90612a8a565b801561096a5780601f1061093f5761010080835404028352916020019161096a565b820191906000526020600020905b81548152906001019060200180831161094d57829003601f168201915b5050505050815260200160058201805461098390612a8a565b80601f01602080910402602001604051908101604052809291908181526020018280546109af90612a8a565b80156109fc5780601f106109d1576101008083540402835291602001916109fc565b820191906000526020600020905b8154815290600101906020018083116109df57829003601f168201915b5050505050815260200160068201805480602002602001604051908101604052809291908181526020016000905b82821015610c7457838290600052602060002090600502016040518060600160405290816000820154815260200160018201604051806060016040529081600082018054610a7790612a8a565b80601f0160208091040260200160405190810160405280929190818152602001828054610aa390612a8a565b8015610af05780601f10610ac557610100808354040283529160200191610af0565b820191906000526020600020905b815481529060010190602001808311610ad357829003601f168201915b50505050508152602001600182018054610b0990612a8a565b80601f0160208091040260200160405190810160405280929190818152602001828054610b3590612a8a565b8015610b825780601f10610b5757610100808354040283529160200191610b82565b820191906000526020600020905b815481529060010190602001808311610b6557829003601f168201915b50505050508152602001600282018054610b9b90612a8a565b80601f0160208091040260200160405190810160405280929190818152602001828054610bc790612a8a565b8015610c145780601f10610be957610100808354040283529160200191610c14565b820191906000526020600020905b815481529060010190602001808311610bf757829003601f168201915b505050919092525050508152604080516060810182526004939093015460ff808216151585526101008204811615156020868101919091526201000090920416151591840191909152908101919091529082526001929092019101610a2a565b505050915250909392505050565b610cb6604051806080016040528060008152602001606081526020016000600160a060020a03168152602001606081525090565b6003600083815260200190815260200160002060405180608001604052908160008201548152602001600182018054610cee90612a8a565b80601f0160208091040260200160405190810160405280929190818152602001828054610d1a90612a8a565b8015610d675780601f10610d3c57610100808354040283529160200191610d67565b820191906000526020600020905b815481529060010190602001808311610d4a57829003601f168201915b50505091835250506002820154600160a060020a03166020808301919091526003830180546040805182850281018501825282815294019392830182828015610dcf57602002820191906000526020600020905b815481526020019060010190808311610dbb575b5050505050815250509050919050565b6000858152600260209081526040808320600601805482518185028101850190935280835284938493929190849084015b8282101561105a57838290600052602060002090600502016040518060600160405290816000820154815260200160018201604051806060016040529081600082018054610e5d90612a8a565b80601f0160208091040260200160405190810160405280929190818152602001828054610e8990612a8a565b8015610ed65780601f10610eab57610100808354040283529160200191610ed6565b820191906000526020600020905b815481529060010190602001808311610eb957829003601f168201915b50505050508152602001600182018054610eef90612a8a565b80601f0160208091040260200160405190810160405280929190818152602001828054610f1b90612a8a565b8015610f685780601f10610f3d57610100808354040283529160200191610f68565b820191906000526020600020905b815481529060010190602001808311610f4b57829003601f168201915b50505050508152602001600282018054610f8190612a8a565b80601f0160208091040260200160405190810160405280929190818152602001828054610fad90612a8a565b8015610ffa5780601f10610fcf57610100808354040283529160200191610ffa565b820191906000526020600020905b815481529060010190602001808311610fdd57829003601f168201915b505050919092525050508152604080516060810182526004939093015460ff808216151585526101008204811615156020868101919091526201000090920416151591840191909152908101919091529082526001929092019101610e10565b5050505090505b805183101561140b57600088815260026020526040812060060180548590811061108d5761108d612a71565b906000526020600020906005020160405180606001604052908160008201548152602001600182016040518060600160405290816000820180546110d090612a8a565b80601f01602080910402602001604051908101604052809291908181526020018280546110fc90612a8a565b80156111495780601f1061111e57610100808354040283529160200191611149565b820191906000526020600020905b81548152906001019060200180831161112c57829003601f168201915b5050505050815260200160018201805461116290612a8a565b80601f016020809104026020016040519081016040528092919081815260200182805461118e90612a8a565b80156111db5780601f106111b0576101008083540402835291602001916111db565b820191906000526020600020905b8154815290600101906020018083116111be57829003601f168201915b505050505081526020016002820180546111f490612a8a565b80601f016020809104026020016040519081016040528092919081815260200182805461122090612a8a565b801561126d5780601f106112425761010080835404028352916020019161126d565b820191906000526020600020905b81548152906001019060200180831161125057829003601f168201915b505050919092525050508152604080516060810182526004939093015460ff80821615158552610100820481161515602086810191909152620100009092041615159184019190915201528051909150881480156112cd57506040810151515b156113f85760008981526002602081815260408084209283018b905580516060810182528b81528083018b81529181018a9052600690930180546001818101835591865294839020845160059096020194855590518051805194959491939285019261133e928492909101906121e5565b50602082810151805161135792600185019201906121e5565b50604082015180516113739160028401916020909101906121e5565b505050604091820151805160049092018054602083015192909401511515620100000262ff0000199215156101000261ff00199415159490941661ffff199095169490941792909217169190911790556113ee878a600091825260036020818152604084209091018054600181018255908452922090910155565b600192505061140b565b8361140281612ae0565b94505050611061565b8161142b5760405160e560020a62461bcd02815260040161079290612af9565b5050505050505050565b611469604051806080016040528060008152602001606081526020016000600160a060020a03168152602001606081525090565b60005b600154811161161257826040516020016114869190612b56565b60408051601f1981840301815282825280516020918201206000858152600383529290922091926114bb926001019101612b72565b604051602081830303815290604052805190602001200361160057600360008281526020019081526020016000206040518060800160405290816000820154815260200160018201805461150e90612a8a565b80601f016020809104026020016040519081016040528092919081815260200182805461153a90612a8a565b80156115875780601f1061155c57610100808354040283529160200191611587565b820191906000526020600020905b81548152906001019060200180831161156a57829003601f168201915b50505091835250506002820154600160a060020a031660208083019190915260038301805460408051828502810185018252828152940193928301828280156115ef57602002820191906000526020600020905b8154815260200190600101908083116115db575b505050505081525050915050919050565b8061160a81612ae0565b91505061146c565b60405160e560020a62461bcd02815260206004820152600960248201527f4e6f7420666f756e6400000000000000000000000000000000000000000000006044820152606401610792565b6001805490600061166d83612ae0565b909155505060408051608081018252600180548083526020808401878152600160a060020a03871685870152606085810181905260009384526003835295909220845181559151805192936116ca939085019291909101906121e5565b50604082015160028201805473ffffffffffffffffffffffffffffffffffffffff1916600160a060020a0390921691909117905560608201518051611719916003840191602090910190612269565b505050505050565b6000838152600260209081526040808320600601805482518185028101850190935280835284938493929190849084015b8282101561199c5783829060005260206000209060050201604051806060016040529081600082015481526020016001820160405180606001604052908160008201805461179f90612a8a565b80601f01602080910402602001604051908101604052809291908181526020018280546117cb90612a8a565b80156118185780601f106117ed57610100808354040283529160200191611818565b820191906000526020600020905b8154815290600101906020018083116117fb57829003601f168201915b5050505050815260200160018201805461183190612a8a565b80601f016020809104026020016040519081016040528092919081815260200182805461185d90612a8a565b80156118aa5780601f1061187f576101008083540402835291602001916118aa565b820191906000526020600020905b81548152906001019060200180831161188d57829003601f168201915b505050505081526020016002820180546118c390612a8a565b80601f01602080910402602001604051908101604052809291908181526020018280546118ef90612a8a565b801561193c5780601f106119115761010080835404028352916020019161193c565b820191906000526020600020905b81548152906001019060200180831161191f57829003601f168201915b505050919092525050508152604080516060810182526004939093015460ff808216151585526101008204811615156020868101919091526201000090920416151591840191909152908101919091529082526001929092019101611752565b5050505090505b8051831015611c665760008681526002602052604081206006018054859081106119cf576119cf612a71565b90600052602060002090600502016040518060600160405290816000820154815260200160018201604051806060016040529081600082018054611a1290612a8a565b80601f0160208091040260200160405190810160405280929190818152602001828054611a3e90612a8a565b8015611a8b5780601f10611a6057610100808354040283529160200191611a8b565b820191906000526020600020905b815481529060010190602001808311611a6e57829003601f168201915b50505050508152602001600182018054611aa490612a8a565b80601f0160208091040260200160405190810160405280929190818152602001828054611ad090612a8a565b8015611b1d5780601f10611af257610100808354040283529160200191611b1d565b820191906000526020600020905b815481529060010190602001808311611b0057829003601f168201915b50505050508152602001600282018054611b3690612a8a565b80601f0160208091040260200160405190810160405280929190818152602001828054611b6290612a8a565b8015611baf5780601f10611b8457610100808354040283529160200191611baf565b820191906000526020600020905b815481529060010190602001808311611b9257829003601f168201915b505050919092525050508152604080516060810182526004939093015460ff8082161515855261010082048116151560208681019190915262010000909204161515918401919091520152805190915086148015611c1257508060400151602001515b15611c5357600087815260026020908152604090912060038101805460ff191690558651611c48926004909201918801906121e5565b506001925050611c66565b83611c5d81612ae0565b945050506119a3565b816117195760405160e560020a62461bcd02815260040161079290612af9565b600260208190526000918252604090912080546001820154928201546003830154600484018054939594929360ff9092169291611cc290612a8a565b80601f0160208091040260200160405190810160405280929190818152602001828054611cee90612a8a565b8015611d3b5780601f10611d1057610100808354040283529160200191611d3b565b820191906000526020600020905b815481529060010190602001808311611d1e57829003601f168201915b505050505090806005018054611d5090612a8a565b80601f0160208091040260200160405190810160405280929190818152602001828054611d7c90612a8a565b8015611dc95780601f10611d9e57610100808354040283529160200191611dc9565b820191906000526020600020905b815481529060010190602001808311611dac57829003601f168201915b5050505050905086565b60005b60008381526003602081905260409091200154811015611f235781600360008581526020019081526020016000206003018281548110611e1857611e18612a71565b906000526020600020015403611f11576000838152600360208190526040909120018054611e4890600190612c10565b81548110611e5857611e58612a71565b9060005260206000200154600360008581526020019081526020016000206003018281548110611e8a57611e8a612a71565b600091825260208083209091019290925584815260039182905260409020018054611eb790600190612c10565b81548110611ec757611ec7612a71565b906000526020600020016000905560036000848152602001908152602001600020600301805480611efa57611efa612c27565b600190038181906000526020600020016000905590555b80611f1b81612ae0565b915050611dd6565b505050565b60008054600101808255808252600260209081526040832085518492611f559160058401918901906121e5565b5060018082018890556002820188905583825560038201805460ff19169091179055604080516020810191829052600090819052611f979160048401916121e5565b505b84518210156121b657806006016040518060600160405280878581518110611fc357611fc3612a71565b60200260200101516000015181526020016040518060600160405280898781518110611ff157611ff1612a71565b60200260200101516020015160000151815260200189878151811061201857612018612a71565b60200260200101516020015160200151815260200189878151811061203f5761203f612a71565b602002602001015160200151604001518152508152602001604051806060016040528089878151811061207457612074612a71565b602002602001015160400151600001511515815260200189878151811061209d5761209d612a71565b60200260200101516040015160200151151581526020018987815181106120c6576120c6612a71565b602090810291909101810151604090810151015115159091529152825460018181018555600094855293829020835160059092020190815582820151805180519495929491939285019261211f928492909101906121e5565b50602082810151805161213892600185019201906121e5565b50604082015180516121549160028401916020909101906121e5565b505050604091820151805160049092018054602083015192909401511515620100000262ff0000199215156101000261ff00199415159490941661ffff19909516949094179290921716919091179055816121ae81612ae0565b925050611f99565b600087815260036020818152604083209091018054600181018255908352912001839055509095945050505050565b8280546121f190612a8a565b90600052602060002090601f0160209004810192826122135760008555612259565b82601f1061222c57805160ff1916838001178555612259565b82800160010185558215612259579182015b8281111561225957825182559160200191906001019061223e565b506122659291506122a3565b5090565b828054828255906000526020600020908101928215612259579160200282018281111561225957825182559160200191906001019061223e565b5b8082111561226557600081556001016122a4565b60e060020a634e487b7102600052604160045260246000fd5b6040516060810167ffffffffffffffff811182821017156122f4576122f46122b8565b60405290565b604051601f8201601f1916810167ffffffffffffffff81118282101715612323576123236122b8565b604052919050565b600082601f83011261233c57600080fd5b813567ffffffffffffffff811115612356576123566122b8565b612369601f8201601f19166020016122fa565b81815284602083860101111561237e57600080fd5b816020850160208301376000918101602001919091529392505050565b6000606082840312156123ad57600080fd5b6123b56122d1565b9050813567ffffffffffffffff808211156123cf57600080fd5b6123db8583860161232b565b835260208401359150808211156123f157600080fd5b6123fd8583860161232b565b6020840152604084013591508082111561241657600080fd5b506124238482850161232b565b60408301525092915050565b8035801515811461243f57600080fd5b919050565b60006060828403121561245657600080fd5b61245e6122d1565b90506124698261242f565b81526124776020830161242f565b60208201526124886040830161242f565b604082015292915050565b600082601f8301126124a457600080fd5b8135602067ffffffffffffffff808311156124c1576124c16122b8565b8183026124cf8382016122fa565b93845285810183019383810190888611156124e957600080fd5b84880192505b85831015612574578235848111156125075760008081fd5b880160a0818b03601f1901121561251e5760008081fd5b6125266122d1565b868201358152604080830135878111156125405760008081fd5b61254e8d8a8387010161239b565b89840152506125608c60608501612444565b9082015283525091840191908401906124ef565b98975050505050505050565b60008060006060848603121561259557600080fd5b8335925060208401359150604084013567ffffffffffffffff8111156125ba57600080fd5b6125c686828701612493565b9150509250925092565b6000602082840312156125e257600080fd5b5035919050565b60005b838110156126045781810151838201526020016125ec565b83811115612613576000848401525b50505050565b600081518084526126318160208601602086016125e9565b601f01601f19169290920160200192915050565b83815260606020820152600061265e6060830185612619565b9050600160a060020a0383166040830152949350505050565b6000602080835261010084518285015281850151604081818701528087015191506060828188015280880151925082151560808801526080880151925060a060e0818901526126c885890185612619565b935080890151601f1960c0818b880301818c01526126e68784612619565b8c8201518c8203840160e08e015280518083529198508a019350898801908a810289018b0160005b828110156127b957858b83030184528651805183528d810151898f85015280518b8b86015261273f8f860182612619565b90508f820151609f1980878403018a88015261275b8383612619565b92508e8401519350808784030160e088015250506127798183612619565b9150508b8201519150815115158c8501528e82015115158b8501528b8201511515608085015280935050508c870196508c8401935060018101905061270e565b509e9d5050505050505050505050505050565b6000602080835283518184015280840151608060408501526127f160a0850182612619565b6040860151600160a060020a0316606086810191909152860151858203601f19016080870152805180835290840192506000918401905b808310156128485783518252928401926001929092019190840190612828565b509695505050505050565b600080600080600060e0868803121561286b57600080fd5b853594506020860135935060408601359250606086013567ffffffffffffffff81111561289757600080fd5b6128a38882890161239b565b9250506128b38760808801612444565b90509295509295909350565b6000602082840312156128d157600080fd5b813567ffffffffffffffff8111156128e857600080fd5b6128f48482850161232b565b949350505050565b6000806040838503121561290f57600080fd5b823567ffffffffffffffff81111561292657600080fd5b6129328582860161232b565b9250506020830135600160a060020a038116811461294f57600080fd5b809150509250929050565b6000806040838503121561296d57600080fd5b50508035926020909101359150565b60008060006060848603121561299157600080fd5b8335925060208401359150604084013567ffffffffffffffff8111156129b657600080fd5b6125c68682870161232b565b868152856020820152846040820152831515606082015260c0608082015260006129ef60c0830185612619565b82810360a0840152612a018185612619565b9998505050505050505050565b600080600060608486031215612a2357600080fd5b83359250602084013567ffffffffffffffff80821115612a4257600080fd5b612a4e8783880161232b565b93506040860135915080821115612a6457600080fd5b506125c686828701612493565b60e060020a634e487b7102600052603260045260246000fd5b600281046001821680612a9e57607f821691505b602082108103612ac15760e060020a634e487b7102600052602260045260246000fd5b50919050565b60e060020a634e487b7102600052601160045260246000fd5b600060018201612af257612af2612ac7565b5060010190565b60208082526026908201527f5573657220646f6573206e6f74206861766520636f7272656374207065726d6960408201527f7373696f6e730000000000000000000000000000000000000000000000000000606082015260800190565b60008251612b688184602087016125e9565b9190910192915050565b8154600090819060028104600180831680612b8e57607f831692505b60208084108203612bb05760e060020a634e487b710286526022600452602486fd5b818015612bc45760018114612bd557612c02565b60ff19861689528489019650612c02565b60008a81526020902060005b86811015612bfa5781548b820152908501908301612be1565b505084890196505b509498975050505050505050565b600082821015612c2257612c22612ac7565b500390565b60e060020a634e487b7102600052603160045260246000fdfea26469706673582212202f865e9604285f3cfcd8c88e98ed788612dc174f0433b8147cd729f2ff50915864736f6c634300080d0033",
  "immutableReferences": {},
  "source": "pragma solidity >=0.4.22 <0.9.0;\n\nimport '../node_modules/@openzeppelin/contracts/token/ERC721/ERC721.sol';\nimport '../node_modules/@openzeppelin/contracts/utils/Counters.sol';\n\ncontract Users{\n    struct User{\n        uint id;\n        string username;\n        address walletAddress;\n        uint256[] credentialIds;\n    }\n\n    struct CredentialData{\n        string fileName;\n        string assetHash;\n        string metadataUrl;\n    }\n\n    struct Viewer{\n        uint id;\n        CredentialData data;\n        Permissions permissions;\n    }\n\n    struct Permissions{\n        bool transfer;\n        bool revoke;\n        bool share;\n    }\n\n    struct Credential{\n        uint id;\n        uint256 createdBy;\n        uint256 currentOwner;\n        bool isValid;\n        string revocationReason;\n        string createdAt;\n        // uint256[] viewers;\n        Viewer[] viewers;\n    }\n\n    using Counters for Counters.Counter;\n    Counters.Counter private _credentialIds;\n    uint public userCount = 0;\n\n    mapping(uint256 => Credential) public credentials;\n    mapping(uint => User) public users;\n    \n\n    // * User functions * //\n\n    // * Register new user\n    function createNewUser(string memory username, address walletAddress) public {\n        userCount++;\n        uint256[] memory credentialIds;\n        users[userCount] = User(userCount, username, walletAddress, credentialIds);\n    }\n\n    // * Add credential to user's credentials list \n    function addCredentialToUser(uint id, uint256 credentialId) public {\n        users[id].credentialIds.push(credentialId);\n    }\n\n    //  * Remove credential from user's credentials list\n    function removeCredentialFromUser(uint id, uint256 credentialId) public {\n        uint256 i = 0;\n        for(i; i < users[id].credentialIds.length; i++){\n            if(users[id].credentialIds[i] == credentialId){\n                users[id].credentialIds[i] = users[id].credentialIds[users[id].credentialIds.length - 1];\n                delete users[id].credentialIds[users[id].credentialIds.length-1];\n                users[id].credentialIds.pop();\n            }\n        }\n    }\n\n    // * Fetch user by Id\n    function getUserById(uint id) public view returns (User memory){\n        return users[id];\n    }\n\n    // * Fetch user by username\n    function getUserByUsername(string memory username) public view returns (User memory){\n        uint i = 0;\n        for(i; i<=userCount; i++){\n            if(keccak256(abi.encodePacked(users[i].username)) == keccak256(abi.encodePacked(username))){\n                return users[i];\n            }\n        }\n        revert(\"Not found\");\n    }\n\n    \n    // * Credential functions\n\n    // * Add credential to credential List and user Credentials\n    function addCredential(uint256 createdBy, string memory createdAt, Viewer[] memory viewers) public returns (uint256){\n        _credentialIds.increment();\n        uint256 newItemId = _credentialIds.current();\n        uint i =0;\n        Credential storage credential = credentials[newItemId];\n        credential.createdAt = createdAt;\n        credential.createdBy = createdBy;\n        credential.currentOwner = createdBy;\n        credential.id = newItemId;\n        credential.isValid = true;\n        credential.revocationReason = '';\n        while(i<viewers.length){\n            credential.viewers.push(Viewer(viewers[i].id, CredentialData(viewers[i].data.fileName, viewers[i].data.assetHash, viewers[i].data.metadataUrl), Permissions(viewers[i].permissions.transfer, viewers[i].permissions.revoke, viewers[i].permissions.share)));\n            i++;\n        }\n        addCredentialToUser(createdBy, newItemId);\n        return newItemId;\n    }\n\n    // * Fetch credential by credentialId\n    function getCredentialById(uint256 id) public view returns (Credential memory){\n        return credentials[id];\n    }\n\n    // * Transfer credential from FROM to TO\n    function transferCredential(uint256 id, uint256 fromId, uint256 toId, CredentialData memory data, Permissions memory permissions) public { \n        uint i = 0;\n        bool flag = false;\n        Viewer[] memory viewers = credentials[id].viewers;\n        while(i < viewers.length){\n            Viewer memory viewer = credentials[id].viewers[i];\n            if(viewer.id == fromId && viewer.permissions.transfer){\n                credentials[id].currentOwner = toId;\n                credentials[id].viewers.push(Viewer(toId, data, permissions));\n                addCredentialToUser(toId, id);\n                flag = true;\n                break;\n            }\n            i++;\n        }\n        if(!flag){\n            revert(\"User does not have correct permissions\");\n        }\n    }\n\n    // * Revoke Credential status\n    function revokeCredential(uint256 id, uint256 fromId, string memory reason) public {\n        uint i = 0;\n        bool flag = false;\n        Viewer[] memory viewers = credentials[id].viewers;\n        while(i < viewers.length){\n            Viewer memory viewer = credentials[id].viewers[i];\n            if(viewer.id == fromId && viewer.permissions.revoke){\n                credentials[id].isValid = false;\n                credentials[id].revocationReason = reason;\n                flag = true;\n                break;\n            }\n            i++;\n        }\n        if(!flag){\n            revert(\"User does not have correct permissions\");\n        }\n    }\n\n    // * Add viewer to list of viewers\n    function addViewerToCredential(uint256 id, uint256 fromId, Viewer[] memory viewers) public {\n        uint i = 0;\n        bool flag = false;\n        while(i<credentials[id].viewers.length){\n            Viewer memory viewer = credentials[id].viewers[i];\n            if(viewer.id == fromId && viewer.permissions.share){\n                uint j = 0; \n                while(j < viewers.length){\n                    credentials[id].viewers.push(Viewer(viewers[j].id, CredentialData(viewers[j].data.fileName, viewers[j].data.assetHash, viewers[j].data.metadataUrl), Permissions(viewers[j].permissions.transfer, viewers[j].permissions.revoke, viewers[j].permissions.share)));\n                    addCredentialToUser(viewers[j].id, id);\n                    j++;\n                    flag = true;\n                }\n                break;\n            }\n            i++;\n        }\n        if(!flag){\n            revert(\"User does not have correct permissions\");\n        }\n    }\n}",
  "sourcePath": "/Users/siddharthagarwal/Desktop/Projects/FYP21050/server/blockchain/contracts/Users.sol",
  "compiler": {
    "name": "solc",
    "version": "0.8.13+commit.abaa5c0e.Emscripten.clang"
  },
  "schemaVersion": "3.4.6",
  "updatedAt": "2022-04-14T17:16:46.718Z",
  "networkType": "ethereum",
  "devdoc": {
    "kind": "dev",
    "methods": {},
    "version": 1
  },
  "userdoc": {
    "kind": "user",
    "methods": {},
    "version": 1
  }
}