{
  "contractName": "Users",
  "abi": [
    {
      "inputs": [
        {
          "internalType": "uint256",
          "name": "",
          "type": "uint256"
        }
      ],
      "name": "credentials",
      "outputs": [
        {
          "internalType": "uint256",
          "name": "id",
          "type": "uint256"
        },
        {
          "internalType": "uint256",
          "name": "createdBy",
          "type": "uint256"
        },
        {
          "components": [
            {
              "internalType": "string",
              "name": "fileName",
              "type": "string"
            },
            {
              "internalType": "string",
              "name": "assetHash",
              "type": "string"
            },
            {
              "internalType": "string",
              "name": "metadataUrl",
              "type": "string"
            }
          ],
          "internalType": "struct Users.CredentialData",
          "name": "data",
          "type": "tuple"
        },
        {
          "internalType": "uint256",
          "name": "currentOwner",
          "type": "uint256"
        },
        {
          "internalType": "bool",
          "name": "isValid",
          "type": "bool"
        },
        {
          "internalType": "string",
          "name": "revocationReason",
          "type": "string"
        },
        {
          "internalType": "string",
          "name": "createdAt",
          "type": "string"
        }
      ],
      "stateMutability": "view",
      "type": "function",
      "constant": true
    },
    {
      "inputs": [],
      "name": "userCount",
      "outputs": [
        {
          "internalType": "uint256",
          "name": "",
          "type": "uint256"
        }
      ],
      "stateMutability": "view",
      "type": "function",
      "constant": true
    },
    {
      "inputs": [
        {
          "internalType": "uint256",
          "name": "",
          "type": "uint256"
        }
      ],
      "name": "users",
      "outputs": [
        {
          "internalType": "uint256",
          "name": "id",
          "type": "uint256"
        },
        {
          "internalType": "string",
          "name": "username",
          "type": "string"
        },
        {
          "internalType": "address",
          "name": "walletAddress",
          "type": "address"
        }
      ],
      "stateMutability": "view",
      "type": "function",
      "constant": true
    },
    {
      "inputs": [
        {
          "internalType": "string",
          "name": "username",
          "type": "string"
        },
        {
          "internalType": "address",
          "name": "walletAddress",
          "type": "address"
        }
      ],
      "name": "createNewUser",
      "outputs": [],
      "stateMutability": "nonpayable",
      "type": "function"
    },
    {
      "inputs": [
        {
          "internalType": "uint256",
          "name": "id",
          "type": "uint256"
        },
        {
          "internalType": "uint256",
          "name": "credentialId",
          "type": "uint256"
        }
      ],
      "name": "addCredentialToUser",
      "outputs": [],
      "stateMutability": "nonpayable",
      "type": "function"
    },
    {
      "inputs": [
        {
          "internalType": "uint256",
          "name": "id",
          "type": "uint256"
        },
        {
          "internalType": "uint256",
          "name": "credentialId",
          "type": "uint256"
        }
      ],
      "name": "removeCredentialFromUser",
      "outputs": [],
      "stateMutability": "nonpayable",
      "type": "function"
    },
    {
      "inputs": [
        {
          "internalType": "uint256",
          "name": "id",
          "type": "uint256"
        }
      ],
      "name": "getUserById",
      "outputs": [
        {
          "components": [
            {
              "internalType": "uint256",
              "name": "id",
              "type": "uint256"
            },
            {
              "internalType": "string",
              "name": "username",
              "type": "string"
            },
            {
              "internalType": "address",
              "name": "walletAddress",
              "type": "address"
            },
            {
              "internalType": "uint256[]",
              "name": "credentialIds",
              "type": "uint256[]"
            }
          ],
          "internalType": "struct Users.User",
          "name": "",
          "type": "tuple"
        }
      ],
      "stateMutability": "view",
      "type": "function",
      "constant": true
    },
    {
      "inputs": [
        {
          "internalType": "string",
          "name": "username",
          "type": "string"
        }
      ],
      "name": "getUserByUsername",
      "outputs": [
        {
          "components": [
            {
              "internalType": "uint256",
              "name": "id",
              "type": "uint256"
            },
            {
              "internalType": "string",
              "name": "username",
              "type": "string"
            },
            {
              "internalType": "address",
              "name": "walletAddress",
              "type": "address"
            },
            {
              "internalType": "uint256[]",
              "name": "credentialIds",
              "type": "uint256[]"
            }
          ],
          "internalType": "struct Users.User",
          "name": "",
          "type": "tuple"
        }
      ],
      "stateMutability": "view",
      "type": "function",
      "constant": true
    },
    {
      "inputs": [
        {
          "internalType": "uint256",
          "name": "createdBy",
          "type": "uint256"
        },
        {
          "components": [
            {
              "internalType": "string",
              "name": "fileName",
              "type": "string"
            },
            {
              "internalType": "string",
              "name": "assetHash",
              "type": "string"
            },
            {
              "internalType": "string",
              "name": "metadataUrl",
              "type": "string"
            }
          ],
          "internalType": "struct Users.CredentialData",
          "name": "data",
          "type": "tuple"
        },
        {
          "internalType": "string",
          "name": "createdAt",
          "type": "string"
        },
        {
          "internalType": "uint256[]",
          "name": "viewers",
          "type": "uint256[]"
        }
      ],
      "name": "addCredential",
      "outputs": [
        {
          "internalType": "uint256",
          "name": "",
          "type": "uint256"
        }
      ],
      "stateMutability": "nonpayable",
      "type": "function"
    },
    {
      "inputs": [
        {
          "internalType": "uint256",
          "name": "id",
          "type": "uint256"
        }
      ],
      "name": "getCredentialById",
      "outputs": [
        {
          "components": [
            {
              "internalType": "uint256",
              "name": "id",
              "type": "uint256"
            },
            {
              "internalType": "uint256",
              "name": "createdBy",
              "type": "uint256"
            },
            {
              "components": [
                {
                  "internalType": "string",
                  "name": "fileName",
                  "type": "string"
                },
                {
                  "internalType": "string",
                  "name": "assetHash",
                  "type": "string"
                },
                {
                  "internalType": "string",
                  "name": "metadataUrl",
                  "type": "string"
                }
              ],
              "internalType": "struct Users.CredentialData",
              "name": "data",
              "type": "tuple"
            },
            {
              "internalType": "uint256",
              "name": "currentOwner",
              "type": "uint256"
            },
            {
              "internalType": "bool",
              "name": "isValid",
              "type": "bool"
            },
            {
              "internalType": "string",
              "name": "revocationReason",
              "type": "string"
            },
            {
              "internalType": "string",
              "name": "createdAt",
              "type": "string"
            },
            {
              "internalType": "uint256[]",
              "name": "viewers",
              "type": "uint256[]"
            }
          ],
          "internalType": "struct Users.Credential",
          "name": "",
          "type": "tuple"
        }
      ],
      "stateMutability": "view",
      "type": "function",
      "constant": true
    },
    {
      "inputs": [
        {
          "internalType": "uint256",
          "name": "id",
          "type": "uint256"
        },
        {
          "internalType": "uint256",
          "name": "fromId",
          "type": "uint256"
        },
        {
          "internalType": "uint256",
          "name": "toId",
          "type": "uint256"
        }
      ],
      "name": "transferCredential",
      "outputs": [],
      "stateMutability": "nonpayable",
      "type": "function"
    },
    {
      "inputs": [
        {
          "internalType": "uint256",
          "name": "id",
          "type": "uint256"
        },
        {
          "internalType": "uint256",
          "name": "fromId",
          "type": "uint256"
        },
        {
          "internalType": "string",
          "name": "reason",
          "type": "string"
        }
      ],
      "name": "revokeCredential",
      "outputs": [],
      "stateMutability": "nonpayable",
      "type": "function"
    },
    {
      "inputs": [
        {
          "internalType": "uint256",
          "name": "id",
          "type": "uint256"
        },
        {
          "internalType": "uint256",
          "name": "fromId",
          "type": "uint256"
        },
        {
          "internalType": "uint256",
          "name": "viewerId",
          "type": "uint256"
        }
      ],
      "name": "addViewerToCredential",
      "outputs": [],
      "stateMutability": "nonpayable",
      "type": "function"
    }
  ],
  "bytecode": "0x6080604052600060015534801561001557600080fd5b50611b70806100256000396000f3fe608060405234801561001057600080fd5b50600436106100ec576000357c0100000000000000000000000000000000000000000000000000000000900480639f42af63116100a9578063aff804c611610083578063aff804c6146101f1578063b702a6bc14610204578063e0574e3f14610217578063ecd8bf2d1461023d57600080fd5b80639f42af63146101975780639fbc1c85146101aa578063ad25be98146101bd57600080fd5b806307973ccf146100f15780631b4aab181461010d578063365b98b2146101225780633ef39e2a146101445780636ed6da9e146101645780639036603914610184575b600080fd5b6100fa60015481565b6040519081526020015b60405180910390f35b61012061011b366004611393565b610250565b005b6101356101303660046113bf565b610324565b60405161010493929190611430565b6101576101523660046113bf565b6103d8565b60405161010491906114e5565b6101776101723660046113bf565b61077d565b6040516101049190611598565b6100fa610192366004611750565b6108d8565b6101776101a536600461185a565b610a42565b6101206101b8366004611897565b610c81565b6101206101cb3660046118f5565b600091825260036020818152604084209091018054600181018255908452922090910155565b6101206101ff366004611393565b610d45565b610120610212366004611917565b610da4565b61022a6102253660046113bf565b610df4565b6040516101049796959493929190611967565b61012061024b3660046118f5565b611107565b60008381526002602052604090206001015482900361029257600083815260026020908152604082206009018054600181018255908352912001819055505050565b6040517f08c379a000000000000000000000000000000000000000000000000000000000815260206004820152602660248201527f5573657220646f6573206e6f74206861766520636f7272656374207065726d6960448201527f7373696f6e73000000000000000000000000000000000000000000000000000060648201526084015b60405180910390fd5b505050565b60036020526000908152604090208054600182018054919291610346906119c8565b80601f0160208091040260200160405190810160405280929190818152602001828054610372906119c8565b80156103bf5780601f10610394576101008083540402835291602001916103bf565b820191906000526020600020905b8154815290600101906020018083116103a257829003601f168201915b50505060029093015491925050600160a060020a031683565b6103e0611257565b6002600083815260200190815260200160002060405180610100016040529081600082015481526020016001820154815260200160028201604051806060016040529081600082018054610433906119c8565b80601f016020809104026020016040519081016040528092919081815260200182805461045f906119c8565b80156104ac5780601f10610481576101008083540402835291602001916104ac565b820191906000526020600020905b81548152906001019060200180831161048f57829003601f168201915b505050505081526020016001820180546104c5906119c8565b80601f01602080910402602001604051908101604052809291908181526020018280546104f1906119c8565b801561053e5780601f106105135761010080835404028352916020019161053e565b820191906000526020600020905b81548152906001019060200180831161052157829003601f168201915b50505050508152602001600282018054610557906119c8565b80601f0160208091040260200160405190810160405280929190818152602001828054610583906119c8565b80156105d05780601f106105a5576101008083540402835291602001916105d0565b820191906000526020600020905b8154815290600101906020018083116105b357829003601f168201915b50505091909252505050815260058201546020820152600682015460ff161515604082015260078201805460609092019161060a906119c8565b80601f0160208091040260200160405190810160405280929190818152602001828054610636906119c8565b80156106835780601f1061065857610100808354040283529160200191610683565b820191906000526020600020905b81548152906001019060200180831161066657829003601f168201915b5050505050815260200160088201805461069c906119c8565b80601f01602080910402602001604051908101604052809291908181526020018280546106c8906119c8565b80156107155780601f106106ea57610100808354040283529160200191610715565b820191906000526020600020905b8154815290600101906020018083116106f857829003601f168201915b505050505081526020016009820180548060200260200160405190810160405280929190818152602001828054801561076d57602002820191906000526020600020905b815481526020019060010190808311610759575b5050505050815250509050919050565b6107b1604051806080016040528060008152602001606081526020016000600160a060020a03168152602001606081525090565b60036000838152602001908152602001600020604051806080016040529081600082015481526020016001820180546107e9906119c8565b80601f0160208091040260200160405190810160405280929190818152602001828054610815906119c8565b80156108625780601f1061083757610100808354040283529160200191610862565b820191906000526020600020905b81548152906001019060200180831161084557829003601f168201915b50505091835250506002820154600160a060020a0316602080830191909152600383018054604080518285028101850182528281529401939283018282801561076d5760200282019190600052602060002090815481526020019060010190808311610759575050505050815250509050919050565b600080546001908101808355604080516101008101825282815260208082018a81528284018a8152606084018c9052608084018790528451808401865288815260a085015260c084018a905260e08401899052858852600280845294882084518155915196820196909655945180518051959693959394919391850192610964928492909101906112c0565b50602082810151805161097d92600185019201906112c0565b50604082015180516109999160028401916020909101906112c0565b50505060608201516005820155608082015160068201805460ff191691151591909117905560a082015180516109d99160078401916020909101906112c0565b5060c082015180516109f59160088401916020909101906112c0565b5060e08201518051610a11916009840191602090910190611344565b5050506000868152600360208181526040832090910180546001810182559083529120018190555b95945050505050565b610a76604051806080016040528060008152602001606081526020016000600160a060020a03168152602001606081525090565b60005b6001548111610c1f5782604051602001610a939190611a05565b60408051601f198184030181528282528051602091820120600085815260038352929092209192610ac8926001019101611a21565b6040516020818303038152906040528051906020012003610c0d576003600082815260200190815260200160002060405180608001604052908160008201548152602001600182018054610b1b906119c8565b80601f0160208091040260200160405190810160405280929190818152602001828054610b47906119c8565b8015610b945780601f10610b6957610100808354040283529160200191610b94565b820191906000526020600020905b815481529060010190602001808311610b7757829003601f168201915b50505091835250506002820154600160a060020a03166020808301919091526003830180546040805182850281018501825282815294019392830182828015610bfc57602002820191906000526020600020905b815481526020019060010190808311610be8575b505050505081525050915050919050565b80610c1781611ad8565b915050610a79565b6040517f08c379a000000000000000000000000000000000000000000000000000000000815260206004820152600960248201527f4e6f7420666f756e6400000000000000000000000000000000000000000000006044820152606401610316565b60018054906000610c9183611ad8565b909155505060408051608081018252600180548083526020808401878152600160a060020a0387168587015260608581018190526000938452600383529590922084518155915180519293610cee939085019291909101906112c0565b50604082015160028201805473ffffffffffffffffffffffffffffffffffffffff1916600160a060020a0390921691909117905560608201518051610d3d916003840191602090910190611344565b505050505050565b600083815260026020526040902060050154829003610292576000838152600260205260409020600501819055610d7c8284611107565b6000908152600360208181526040832090910180546001810182559083529120019190915550565b60008381526002602052604090206001015482900361029257600083815260026020908152604090912060068101805460ff191690558251610dee926007909201918401906112c0565b50505050565b60026020819052600091825260409182902080546001820154845160608101909552928201805491949182908290610e2b906119c8565b80601f0160208091040260200160405190810160405280929190818152602001828054610e57906119c8565b8015610ea45780601f10610e7957610100808354040283529160200191610ea4565b820191906000526020600020905b815481529060010190602001808311610e8757829003601f168201915b50505050508152602001600182018054610ebd906119c8565b80601f0160208091040260200160405190810160405280929190818152602001828054610ee9906119c8565b8015610f365780601f10610f0b57610100808354040283529160200191610f36565b820191906000526020600020905b815481529060010190602001808311610f1957829003601f168201915b50505050508152602001600282018054610f4f906119c8565b80601f0160208091040260200160405190810160405280929190818152602001828054610f7b906119c8565b8015610fc85780601f10610f9d57610100808354040283529160200191610fc8565b820191906000526020600020905b815481529060010190602001808311610fab57829003601f168201915b50505091909252505050600582015460068301546007840180549394929360ff9092169291610ff6906119c8565b80601f0160208091040260200160405190810160405280929190818152602001828054611022906119c8565b801561106f5780601f106110445761010080835404028352916020019161106f565b820191906000526020600020905b81548152906001019060200180831161105257829003601f168201915b505050505090806008018054611084906119c8565b80601f01602080910402602001604051908101604052809291908181526020018280546110b0906119c8565b80156110fd5780601f106110d2576101008083540402835291602001916110fd565b820191906000526020600020905b8154815290600101906020018083116110e057829003601f168201915b5050505050905087565b60005b6000838152600360208190526040909120015481101561031f578160036000858152602001908152602001600020600301828154811061114c5761114c611af1565b90600052602060002001540361124557600083815260036020819052604090912001805461117c90600190611b0a565b8154811061118c5761118c611af1565b90600052602060002001546003600085815260200190815260200160002060030182815481106111be576111be611af1565b6000918252602080832090910192909255848152600391829052604090200180546111eb90600190611b0a565b815481106111fb576111fb611af1565b90600052602060002001600090556003600084815260200190815260200160002060030180548061122e5761122e611b21565b600190038181906000526020600020016000905590555b8061124f81611ad8565b91505061110a565b604051806101000160405280600081526020016000815260200161129560405180606001604052806060815260200160608152602001606081525090565b8152602001600081526020016000151581526020016060815260200160608152602001606081525090565b8280546112cc906119c8565b90600052602060002090601f0160209004810192826112ee5760008555611334565b82601f1061130757805160ff1916838001178555611334565b82800160010185558215611334579182015b82811115611334578251825591602001919060010190611319565b5061134092915061137e565b5090565b8280548282559060005260206000209081019282156113345791602002820182811115611334578251825591602001919060010190611319565b5b80821115611340576000815560010161137f565b6000806000606084860312156113a857600080fd5b505081359360208301359350604090920135919050565b6000602082840312156113d157600080fd5b5035919050565b60005b838110156113f35781810151838201526020016113db565b83811115610dee5750506000910152565b6000815180845261141c8160208601602086016113d8565b601f01601f19169290920160200192915050565b8381526060602082015260006114496060830185611404565b9050600160a060020a0383166040830152949350505050565b60008151606084526114776060850182611404565b9050602083015184820360208601526114908282611404565b91505060408301518482036040860152610a398282611404565b600081518084526020808501945080840160005b838110156114da578151875295820195908201906001016114be565b509495945050505050565b60208152815160208201526020820151604082015260006040830151610100806060850152611518610120850183611462565b915060608501516080850152608085015161153760a086018215159052565b5060a0850151601f19808685030160c08701526115548483611404565b935060c08701519150808685030160e08701526115718483611404565b935060e087015191508086850301838701525061158e83826114aa565b9695505050505050565b602081528151602082015260006020830151608060408401526115be60a0840182611404565b9050600160a060020a0360408501511660608401526060840151601f19848303016080850152610a3982826114aa565b60e060020a634e487b7102600052604160045260246000fd5b6040516060810167ffffffffffffffff8111828210171561162a5761162a6115ee565b60405290565b604051601f8201601f1916810167ffffffffffffffff81118282101715611659576116596115ee565b604052919050565b600082601f83011261167257600080fd5b813567ffffffffffffffff81111561168c5761168c6115ee565b61169f601f8201601f1916602001611630565b8181528460208386010111156116b457600080fd5b816020850160208301376000918101602001919091529392505050565b600082601f8301126116e257600080fd5b8135602067ffffffffffffffff8211156116fe576116fe6115ee565b80820261170c828201611630565b928352848101820192828101908785111561172657600080fd5b83870192505b848310156117455782358252918301919083019061172c565b979650505050505050565b6000806000806080858703121561176657600080fd5b84359350602085013567ffffffffffffffff8082111561178557600080fd5b908601906060828903121561179957600080fd5b6117a1611607565b8235828111156117b057600080fd5b6117bc8a828601611661565b8252506020830135828111156117d157600080fd5b6117dd8a828601611661565b6020830152506040830135828111156117f557600080fd5b6118018a828601611661565b60408301525080955050604087013591508082111561181f57600080fd5b61182b88838901611661565b9350606087013591508082111561184157600080fd5b5061184e878288016116d1565b91505092959194509250565b60006020828403121561186c57600080fd5b813567ffffffffffffffff81111561188357600080fd5b61188f84828501611661565b949350505050565b600080604083850312156118aa57600080fd5b823567ffffffffffffffff8111156118c157600080fd5b6118cd85828601611661565b9250506020830135600160a060020a03811681146118ea57600080fd5b809150509250929050565b6000806040838503121561190857600080fd5b50508035926020909101359150565b60008060006060848603121561192c57600080fd5b8335925060208401359150604084013567ffffffffffffffff81111561195157600080fd5b61195d86828701611661565b9150509250925092565b87815286602082015260e06040820152600061198660e0830188611462565b866060840152851515608084015282810360a08401526119a68186611404565b905082810360c08401526119ba8185611404565b9a9950505050505050505050565b6002810460018216806119dc57607f821691505b6020821081036119ff5760e060020a634e487b7102600052602260045260246000fd5b50919050565b60008251611a178184602087016113d8565b9190910192915050565b8154600090819060028104600180831680611a3d57607f831692505b60208084108203611a5f5760e060020a634e487b710286526022600452602486fd5b818015611a735760018114611a8457611ab1565b60ff19861689528489019650611ab1565b60008a81526020902060005b86811015611aa95781548b820152908501908301611a90565b505084890196505b509498975050505050505050565b60e060020a634e487b7102600052601160045260246000fd5b600060018201611aea57611aea611abf565b5060010190565b60e060020a634e487b7102600052603260045260246000fd5b600082821015611b1c57611b1c611abf565b500390565b60e060020a634e487b7102600052603160045260246000fdfea264697066735822122078affdb3344e4af3f5c73dee12349dce7ea729ee1bb76d4192cc646c1b25046964736f6c634300080d0033",
  "immutableReferences": {},
  "source": "pragma solidity >=0.4.22 <0.9.0;\n\nimport '../node_modules/@openzeppelin/contracts/token/ERC721/ERC721.sol';\nimport '../node_modules/@openzeppelin/contracts/utils/Counters.sol';\n\ncontract Users{\n    struct User{\n        uint id;\n        string username;\n        address walletAddress;\n        uint256[] credentialIds;\n    }\n\n    struct CredentialData{\n        string fileName;\n        string assetHash;\n        string metadataUrl;\n    }\n\n    struct Credential{\n        uint id;\n        uint256 createdBy;\n        CredentialData data;\n        uint256 currentOwner;\n        bool isValid;\n        string revocationReason;\n        string createdAt;\n        uint256[] viewers;\n    }\n\n    using Counters for Counters.Counter;\n    Counters.Counter private _credentialIds;\n    uint public userCount = 0;\n\n    mapping(uint256 => Credential) public credentials;\n    mapping(uint => User) public users;\n    \n\n    // * User functions\n    function createNewUser(string memory username, address walletAddress) public {\n        userCount++;\n        uint256[] memory credentialIds;\n        users[userCount] = User(userCount, username, walletAddress, credentialIds);\n    }\n\n    function addCredentialToUser(uint id, uint256 credentialId) public {\n        users[id].credentialIds.push(credentialId);\n    }\n\n    function removeCredentialFromUser(uint id, uint256 credentialId) public {\n        uint256 i = 0;\n        for(i; i < users[id].credentialIds.length; i++){\n            if(users[id].credentialIds[i] == credentialId){\n                users[id].credentialIds[i] = users[id].credentialIds[users[id].credentialIds.length - 1];\n                delete users[id].credentialIds[users[id].credentialIds.length-1];\n                users[id].credentialIds.pop();\n            }\n        }\n    }\n\n    function getUserById(uint id) public view returns (User memory){\n        return users[id];\n    }\n\n    function getUserByUsername(string memory username) public view returns (User memory){\n        uint i = 0;\n        for(i; i<=userCount; i++){\n            if(keccak256(abi.encodePacked(users[i].username)) == keccak256(abi.encodePacked(username))){\n                return users[i];\n            }\n        }\n        revert(\"Not found\");\n    }\n\n    \n    // * Credential functions\n    // * Add credential to credential List and user Credentials\n    function addCredential(uint256 createdBy, CredentialData memory data, string memory createdAt, uint256[] memory viewers) public returns (uint256){\n        _credentialIds.increment();\n        uint256 newItemId = _credentialIds.current();\n        credentials[newItemId] = Credential(newItemId, createdBy, data, createdBy, true, '', createdAt, viewers );\n        addCredentialToUser(createdBy, newItemId);\n        return newItemId;\n    }\n\n    function getCredentialById(uint256 id) public view returns (Credential memory){\n        return credentials[id];\n    }\n\n    function transferCredential(uint256 id, uint256 fromId, uint256 toId) public {\n        if(credentials[id].currentOwner == fromId){\n            credentials[id].currentOwner = toId;\n            removeCredentialFromUser(fromId, id);\n            addCredentialToUser(toId, id);\n        }else{\n            revert(\"User does not have correct permissions\");\n        }\n    }\n\n    function revokeCredential(uint256 id, uint256 fromId, string memory reason) public {\n        if(credentials[id].createdBy == fromId){\n            credentials[id].isValid = false;\n            credentials[id].revocationReason = reason;\n        }\n        else{\n            revert(\"User does not have correct permissions\");\n        }\n    }\n\n    function addViewerToCredential(uint256 id, uint256 fromId, uint256 viewerId) public {\n        if(credentials[id].createdBy == fromId){\n            credentials[id].viewers.push(viewerId);\n        }\n        else{\n            revert(\"User does not have correct permissions\");\n        }\n    }\n\n}",
  "sourcePath": "/Users/siddharthagarwal/Desktop/Projects/FYP21050/server/blockchain/contracts/Users.sol",
  "compiler": {
    "name": "solc",
    "version": "0.8.13+commit.abaa5c0e.Emscripten.clang"
  },
  "schemaVersion": "3.4.6",
  "updatedAt": "2022-04-13T12:36:57.009Z",
  "networkType": "ethereum",
  "devdoc": {
    "kind": "dev",
    "methods": {},
    "version": 1
  },
  "userdoc": {
    "kind": "user",
    "methods": {},
    "version": 1
  }
}