{
  "contractName": "Users",
  "abi": [
    {
      "inputs": [
        {
          "internalType": "uint256",
          "name": "",
          "type": "uint256"
        }
      ],
      "name": "credentials",
      "outputs": [
        {
          "internalType": "uint256",
          "name": "id",
          "type": "uint256"
        },
        {
          "components": [
            {
              "internalType": "string",
              "name": "fileName",
              "type": "string"
            },
            {
              "internalType": "string",
              "name": "assetHash",
              "type": "string"
            },
            {
              "internalType": "string",
              "name": "metadataUrl",
              "type": "string"
            }
          ],
          "internalType": "struct Users.CredentialData",
          "name": "data",
          "type": "tuple"
        },
        {
          "internalType": "uint256",
          "name": "createdBy",
          "type": "uint256"
        },
        {
          "internalType": "uint256",
          "name": "currentOwner",
          "type": "uint256"
        },
        {
          "internalType": "bool",
          "name": "isValid",
          "type": "bool"
        },
        {
          "internalType": "string",
          "name": "revocationReason",
          "type": "string"
        },
        {
          "internalType": "string",
          "name": "createdAt",
          "type": "string"
        }
      ],
      "stateMutability": "view",
      "type": "function",
      "constant": true
    },
    {
      "inputs": [],
      "name": "userCount",
      "outputs": [
        {
          "internalType": "uint256",
          "name": "",
          "type": "uint256"
        }
      ],
      "stateMutability": "view",
      "type": "function",
      "constant": true
    },
    {
      "inputs": [
        {
          "internalType": "uint256",
          "name": "",
          "type": "uint256"
        }
      ],
      "name": "users",
      "outputs": [
        {
          "internalType": "uint256",
          "name": "id",
          "type": "uint256"
        },
        {
          "internalType": "string",
          "name": "username",
          "type": "string"
        },
        {
          "internalType": "address",
          "name": "walletAddress",
          "type": "address"
        }
      ],
      "stateMutability": "view",
      "type": "function",
      "constant": true
    },
    {
      "inputs": [
        {
          "internalType": "string",
          "name": "username",
          "type": "string"
        },
        {
          "internalType": "address",
          "name": "walletAddress",
          "type": "address"
        }
      ],
      "name": "createNewUser",
      "outputs": [],
      "stateMutability": "nonpayable",
      "type": "function"
    },
    {
      "inputs": [
        {
          "internalType": "uint256",
          "name": "id",
          "type": "uint256"
        },
        {
          "internalType": "uint256",
          "name": "credentialId",
          "type": "uint256"
        }
      ],
      "name": "addCredentialToUser",
      "outputs": [],
      "stateMutability": "nonpayable",
      "type": "function"
    },
    {
      "inputs": [
        {
          "internalType": "uint256",
          "name": "id",
          "type": "uint256"
        },
        {
          "internalType": "uint256",
          "name": "credentialId",
          "type": "uint256"
        }
      ],
      "name": "removeCredentialFromUser",
      "outputs": [],
      "stateMutability": "nonpayable",
      "type": "function"
    },
    {
      "inputs": [
        {
          "internalType": "uint256",
          "name": "id",
          "type": "uint256"
        }
      ],
      "name": "getUserById",
      "outputs": [
        {
          "components": [
            {
              "internalType": "uint256",
              "name": "id",
              "type": "uint256"
            },
            {
              "internalType": "string",
              "name": "username",
              "type": "string"
            },
            {
              "internalType": "address",
              "name": "walletAddress",
              "type": "address"
            },
            {
              "internalType": "uint256[]",
              "name": "credentialIds",
              "type": "uint256[]"
            }
          ],
          "internalType": "struct Users.User",
          "name": "",
          "type": "tuple"
        }
      ],
      "stateMutability": "view",
      "type": "function",
      "constant": true
    },
    {
      "inputs": [
        {
          "internalType": "string",
          "name": "username",
          "type": "string"
        }
      ],
      "name": "getUserByUsername",
      "outputs": [
        {
          "components": [
            {
              "internalType": "uint256",
              "name": "id",
              "type": "uint256"
            },
            {
              "internalType": "string",
              "name": "username",
              "type": "string"
            },
            {
              "internalType": "address",
              "name": "walletAddress",
              "type": "address"
            },
            {
              "internalType": "uint256[]",
              "name": "credentialIds",
              "type": "uint256[]"
            }
          ],
          "internalType": "struct Users.User",
          "name": "",
          "type": "tuple"
        }
      ],
      "stateMutability": "view",
      "type": "function",
      "constant": true
    },
    {
      "inputs": [
        {
          "internalType": "uint256",
          "name": "createdBy",
          "type": "uint256"
        },
        {
          "components": [
            {
              "internalType": "string",
              "name": "fileName",
              "type": "string"
            },
            {
              "internalType": "string",
              "name": "assetHash",
              "type": "string"
            },
            {
              "internalType": "string",
              "name": "metadataUrl",
              "type": "string"
            }
          ],
          "internalType": "struct Users.CredentialData",
          "name": "data",
          "type": "tuple"
        },
        {
          "internalType": "string",
          "name": "createdAt",
          "type": "string"
        },
        {
          "internalType": "uint256[]",
          "name": "viewers",
          "type": "uint256[]"
        }
      ],
      "name": "addCredential",
      "outputs": [
        {
          "internalType": "uint256",
          "name": "",
          "type": "uint256"
        }
      ],
      "stateMutability": "nonpayable",
      "type": "function"
    },
    {
      "inputs": [
        {
          "internalType": "uint256",
          "name": "id",
          "type": "uint256"
        }
      ],
      "name": "getCredentialById",
      "outputs": [
        {
          "components": [
            {
              "internalType": "uint256",
              "name": "id",
              "type": "uint256"
            },
            {
              "components": [
                {
                  "internalType": "string",
                  "name": "fileName",
                  "type": "string"
                },
                {
                  "internalType": "string",
                  "name": "assetHash",
                  "type": "string"
                },
                {
                  "internalType": "string",
                  "name": "metadataUrl",
                  "type": "string"
                }
              ],
              "internalType": "struct Users.CredentialData",
              "name": "data",
              "type": "tuple"
            },
            {
              "internalType": "uint256",
              "name": "createdBy",
              "type": "uint256"
            },
            {
              "internalType": "uint256",
              "name": "currentOwner",
              "type": "uint256"
            },
            {
              "internalType": "bool",
              "name": "isValid",
              "type": "bool"
            },
            {
              "internalType": "string",
              "name": "revocationReason",
              "type": "string"
            },
            {
              "internalType": "string",
              "name": "createdAt",
              "type": "string"
            },
            {
              "internalType": "uint256[]",
              "name": "viewers",
              "type": "uint256[]"
            }
          ],
          "internalType": "struct Users.Credential",
          "name": "",
          "type": "tuple"
        }
      ],
      "stateMutability": "view",
      "type": "function",
      "constant": true
    },
    {
      "inputs": [
        {
          "internalType": "uint256",
          "name": "id",
          "type": "uint256"
        },
        {
          "internalType": "uint256",
          "name": "fromId",
          "type": "uint256"
        },
        {
          "internalType": "uint256",
          "name": "toId",
          "type": "uint256"
        }
      ],
      "name": "transferCredential",
      "outputs": [],
      "stateMutability": "nonpayable",
      "type": "function"
    },
    {
      "inputs": [
        {
          "internalType": "uint256",
          "name": "id",
          "type": "uint256"
        },
        {
          "internalType": "uint256",
          "name": "fromId",
          "type": "uint256"
        },
        {
          "internalType": "string",
          "name": "reason",
          "type": "string"
        }
      ],
      "name": "revokeCredential",
      "outputs": [],
      "stateMutability": "nonpayable",
      "type": "function"
    },
    {
      "inputs": [
        {
          "internalType": "uint256",
          "name": "id",
          "type": "uint256"
        },
        {
          "internalType": "uint256",
          "name": "fromId",
          "type": "uint256"
        },
        {
          "internalType": "uint256",
          "name": "viewerId",
          "type": "uint256"
        }
      ],
      "name": "addViewerToCredential",
      "outputs": [],
      "stateMutability": "nonpayable",
      "type": "function"
    }
  ],
  "bytecode": "0x6080604052600060015534801561001557600080fd5b50611b6d806100256000396000f3fe608060405234801561001057600080fd5b50600436106100ec576000357c0100000000000000000000000000000000000000000000000000000000900480639f42af63116100a9578063aff804c611610083578063aff804c6146101f1578063b702a6bc14610204578063e0574e3f14610217578063ecd8bf2d1461023d57600080fd5b80639f42af63146101975780639fbc1c85146101aa578063ad25be98146101bd57600080fd5b806307973ccf146100f15780631b4aab181461010d578063365b98b2146101225780633ef39e2a146101445780636ed6da9e146101645780639036603914610184575b600080fd5b6100fa60015481565b6040519081526020015b60405180910390f35b61012061011b366004611390565b610250565b005b6101356101303660046113bc565b610324565b6040516101049392919061142d565b6101576101523660046113bc565b6103d8565b60405161010491906114e2565b6101776101723660046113bc565b61077d565b6040516101049190611595565b6100fa61019236600461174d565b6108d8565b6101776101a5366004611857565b610a3f565b6101206101b8366004611894565b610c7e565b6101206101cb3660046118f2565b600091825260036020818152604084209091018054600181018255908452922090910155565b6101206101ff366004611390565b610d42565b610120610212366004611914565b610da1565b61022a6102253660046113bc565b610df1565b6040516101049796959493929190611964565b61012061024b3660046118f2565b611104565b60008381526002602052604090206004015482900361029257600083815260026020908152604082206009018054600181018255908352912001819055505050565b6040517f08c379a000000000000000000000000000000000000000000000000000000000815260206004820152602660248201527f5573657220646f6573206e6f74206861766520636f7272656374207065726d6960448201527f7373696f6e73000000000000000000000000000000000000000000000000000060648201526084015b60405180910390fd5b505050565b60036020526000908152604090208054600182018054919291610346906119c5565b80601f0160208091040260200160405190810160405280929190818152602001828054610372906119c5565b80156103bf5780601f10610394576101008083540402835291602001916103bf565b820191906000526020600020905b8154815290600101906020018083116103a257829003601f168201915b50505060029093015491925050600160a060020a031683565b6103e0611254565b60026000838152602001908152602001600020604051806101000160405290816000820154815260200160018201604051806060016040529081600082018054610429906119c5565b80601f0160208091040260200160405190810160405280929190818152602001828054610455906119c5565b80156104a25780601f10610477576101008083540402835291602001916104a2565b820191906000526020600020905b81548152906001019060200180831161048557829003601f168201915b505050505081526020016001820180546104bb906119c5565b80601f01602080910402602001604051908101604052809291908181526020018280546104e7906119c5565b80156105345780601f1061050957610100808354040283529160200191610534565b820191906000526020600020905b81548152906001019060200180831161051757829003601f168201915b5050505050815260200160028201805461054d906119c5565b80601f0160208091040260200160405190810160405280929190818152602001828054610579906119c5565b80156105c65780601f1061059b576101008083540402835291602001916105c6565b820191906000526020600020905b8154815290600101906020018083116105a957829003601f168201915b5050509190925250505081526004820154602082015260058201546040820152600682015460ff161515606082015260078201805460809092019161060a906119c5565b80601f0160208091040260200160405190810160405280929190818152602001828054610636906119c5565b80156106835780601f1061065857610100808354040283529160200191610683565b820191906000526020600020905b81548152906001019060200180831161066657829003601f168201915b5050505050815260200160088201805461069c906119c5565b80601f01602080910402602001604051908101604052809291908181526020018280546106c8906119c5565b80156107155780601f106106ea57610100808354040283529160200191610715565b820191906000526020600020905b8154815290600101906020018083116106f857829003601f168201915b505050505081526020016009820180548060200260200160405190810160405280929190818152602001828054801561076d57602002820191906000526020600020905b815481526020019060010190808311610759575b5050505050815250509050919050565b6107b1604051806080016040528060008152602001606081526020016000600160a060020a03168152602001606081525090565b60036000838152602001908152602001600020604051806080016040529081600082015481526020016001820180546107e9906119c5565b80601f0160208091040260200160405190810160405280929190818152602001828054610815906119c5565b80156108625780601f1061083757610100808354040283529160200191610862565b820191906000526020600020905b81548152906001019060200180831161084557829003601f168201915b50505091835250506002820154600160a060020a0316602080830191909152600383018054604080518285028101850182528281529401939283018282801561076d5760200282019190600052602060002090815481526020019060010190808311610759575050505050815250509050919050565b600080546001908101808355604080516101008101825282815260208082018981528284018b9052606083018b9052608083018690528351808301855287815260a084015260c0830189905260e083018890528487526002825292862082518155925180518051959693959193850192610957928492909101906112bd565b50602082810151805161097092600185019201906112bd565b506040820151805161098c9160028401916020909101906112bd565b5050506040820151600482015560608201516005820155608082015160068201805460ff191691151591909117905560a082015180516109d69160078401916020909101906112bd565b5060c082015180516109f29160088401916020909101906112bd565b5060e08201518051610a0e916009840191602090910190611341565b5050506000868152600360208181526040832090910180546001810182559083529120018190555b95945050505050565b610a73604051806080016040528060008152602001606081526020016000600160a060020a03168152602001606081525090565b60005b6001548111610c1c5782604051602001610a909190611a02565b60408051601f198184030181528282528051602091820120600085815260038352929092209192610ac5926001019101611a1e565b6040516020818303038152906040528051906020012003610c0a576003600082815260200190815260200160002060405180608001604052908160008201548152602001600182018054610b18906119c5565b80601f0160208091040260200160405190810160405280929190818152602001828054610b44906119c5565b8015610b915780601f10610b6657610100808354040283529160200191610b91565b820191906000526020600020905b815481529060010190602001808311610b7457829003601f168201915b50505091835250506002820154600160a060020a03166020808301919091526003830180546040805182850281018501825282815294019392830182828015610bf957602002820191906000526020600020905b815481526020019060010190808311610be5575b505050505081525050915050919050565b80610c1481611ad5565b915050610a76565b6040517f08c379a000000000000000000000000000000000000000000000000000000000815260206004820152600960248201527f4e6f7420666f756e6400000000000000000000000000000000000000000000006044820152606401610316565b60018054906000610c8e83611ad5565b909155505060408051608081018252600180548083526020808401878152600160a060020a0387168587015260608581018190526000938452600383529590922084518155915180519293610ceb939085019291909101906112bd565b50604082015160028201805473ffffffffffffffffffffffffffffffffffffffff1916600160a060020a0390921691909117905560608201518051610d3a916003840191602090910190611341565b505050505050565b600083815260026020526040902060050154829003610292576000838152600260205260409020600501819055610d798284611104565b6000908152600360208181526040832090910180546001810182559083529120019190915550565b60008381526002602052604090206004015482900361029257600083815260026020908152604090912060068101805460ff191690558251610deb926007909201918401906112bd565b50505050565b60026020526000908152604090819020805482516060810190935260018201805491939182908290610e22906119c5565b80601f0160208091040260200160405190810160405280929190818152602001828054610e4e906119c5565b8015610e9b5780601f10610e7057610100808354040283529160200191610e9b565b820191906000526020600020905b815481529060010190602001808311610e7e57829003601f168201915b50505050508152602001600182018054610eb4906119c5565b80601f0160208091040260200160405190810160405280929190818152602001828054610ee0906119c5565b8015610f2d5780601f10610f0257610100808354040283529160200191610f2d565b820191906000526020600020905b815481529060010190602001808311610f1057829003601f168201915b50505050508152602001600282018054610f46906119c5565b80601f0160208091040260200160405190810160405280929190818152602001828054610f72906119c5565b8015610fbf5780601f10610f9457610100808354040283529160200191610fbf565b820191906000526020600020905b815481529060010190602001808311610fa257829003601f168201915b5050509190925250505060048201546005830154600684015460078501805494959394929360ff90921692610ff3906119c5565b80601f016020809104026020016040519081016040528092919081815260200182805461101f906119c5565b801561106c5780601f106110415761010080835404028352916020019161106c565b820191906000526020600020905b81548152906001019060200180831161104f57829003601f168201915b505050505090806008018054611081906119c5565b80601f01602080910402602001604051908101604052809291908181526020018280546110ad906119c5565b80156110fa5780601f106110cf576101008083540402835291602001916110fa565b820191906000526020600020905b8154815290600101906020018083116110dd57829003601f168201915b5050505050905087565b60005b6000838152600360208190526040909120015481101561031f578160036000858152602001908152602001600020600301828154811061114957611149611aee565b90600052602060002001540361124257600083815260036020819052604090912001805461117990600190611b07565b8154811061118957611189611aee565b90600052602060002001546003600085815260200190815260200160002060030182815481106111bb576111bb611aee565b6000918252602080832090910192909255848152600391829052604090200180546111e890600190611b07565b815481106111f8576111f8611aee565b90600052602060002001600090556003600084815260200190815260200160002060030180548061122b5761122b611b1e565b600190038181906000526020600020016000905590555b8061124c81611ad5565b915050611107565b6040518061010001604052806000815260200161128b60405180606001604052806060815260200160608152602001606081525090565b815260200160008152602001600081526020016000151581526020016060815260200160608152602001606081525090565b8280546112c9906119c5565b90600052602060002090601f0160209004810192826112eb5760008555611331565b82601f1061130457805160ff1916838001178555611331565b82800160010185558215611331579182015b82811115611331578251825591602001919060010190611316565b5061133d92915061137b565b5090565b8280548282559060005260206000209081019282156113315791602002820182811115611331578251825591602001919060010190611316565b5b8082111561133d576000815560010161137c565b6000806000606084860312156113a557600080fd5b505081359360208301359350604090920135919050565b6000602082840312156113ce57600080fd5b5035919050565b60005b838110156113f05781810151838201526020016113d8565b83811115610deb5750506000910152565b600081518084526114198160208601602086016113d5565b601f01601f19169290920160200192915050565b8381526060602082015260006114466060830185611401565b9050600160a060020a0383166040830152949350505050565b60008151606084526114746060850182611401565b90506020830151848203602086015261148d8282611401565b91505060408301518482036040860152610a368282611401565b600081518084526020808501945080840160005b838110156114d7578151875295820195908201906001016114bb565b509495945050505050565b60208152815160208201526000602083015161010080604085015261150b61012085018361145f565b91506040850151606085015260608501516080850152608085015161153460a086018215159052565b5060a0850151601f19808685030160c08701526115518483611401565b935060c08701519150808685030160e087015261156e8483611401565b935060e087015191508086850301838701525061158b83826114a7565b9695505050505050565b602081528151602082015260006020830151608060408401526115bb60a0840182611401565b9050600160a060020a0360408501511660608401526060840151601f19848303016080850152610a3682826114a7565b60e060020a634e487b7102600052604160045260246000fd5b6040516060810167ffffffffffffffff81118282101715611627576116276115eb565b60405290565b604051601f8201601f1916810167ffffffffffffffff81118282101715611656576116566115eb565b604052919050565b600082601f83011261166f57600080fd5b813567ffffffffffffffff811115611689576116896115eb565b61169c601f8201601f191660200161162d565b8181528460208386010111156116b157600080fd5b816020850160208301376000918101602001919091529392505050565b600082601f8301126116df57600080fd5b8135602067ffffffffffffffff8211156116fb576116fb6115eb565b80820261170982820161162d565b928352848101820192828101908785111561172357600080fd5b83870192505b8483101561174257823582529183019190830190611729565b979650505050505050565b6000806000806080858703121561176357600080fd5b84359350602085013567ffffffffffffffff8082111561178257600080fd5b908601906060828903121561179657600080fd5b61179e611604565b8235828111156117ad57600080fd5b6117b98a82860161165e565b8252506020830135828111156117ce57600080fd5b6117da8a82860161165e565b6020830152506040830135828111156117f257600080fd5b6117fe8a82860161165e565b60408301525080955050604087013591508082111561181c57600080fd5b6118288883890161165e565b9350606087013591508082111561183e57600080fd5b5061184b878288016116ce565b91505092959194509250565b60006020828403121561186957600080fd5b813567ffffffffffffffff81111561188057600080fd5b61188c8482850161165e565b949350505050565b600080604083850312156118a757600080fd5b823567ffffffffffffffff8111156118be57600080fd5b6118ca8582860161165e565b9250506020830135600160a060020a03811681146118e757600080fd5b809150509250929050565b6000806040838503121561190557600080fd5b50508035926020909101359150565b60008060006060848603121561192957600080fd5b8335925060208401359150604084013567ffffffffffffffff81111561194e57600080fd5b61195a8682870161165e565b9150509250925092565b87815260e06020820152600061197d60e083018961145f565b876040840152866060840152851515608084015282810360a08401526119a38186611401565b905082810360c08401526119b78185611401565b9a9950505050505050505050565b6002810460018216806119d957607f821691505b6020821081036119fc5760e060020a634e487b7102600052602260045260246000fd5b50919050565b60008251611a148184602087016113d5565b9190910192915050565b8154600090819060028104600180831680611a3a57607f831692505b60208084108203611a5c5760e060020a634e487b710286526022600452602486fd5b818015611a705760018114611a8157611aae565b60ff19861689528489019650611aae565b60008a81526020902060005b86811015611aa65781548b820152908501908301611a8d565b505084890196505b509498975050505050505050565b60e060020a634e487b7102600052601160045260246000fd5b600060018201611ae757611ae7611abc565b5060010190565b60e060020a634e487b7102600052603260045260246000fd5b600082821015611b1957611b19611abc565b500390565b60e060020a634e487b7102600052603160045260246000fdfea2646970667358221220199efb76fe513b20f249e3bf83fef74724d61079366826bc822eb7eb6acafd5b64736f6c634300080d0033",
  "immutableReferences": {},
  "source": "pragma solidity >=0.4.22 <0.9.0;\n\nimport '../node_modules/@openzeppelin/contracts/token/ERC721/ERC721.sol';\nimport '../node_modules/@openzeppelin/contracts/utils/Counters.sol';\n\ncontract Users{\n    struct User{\n        uint id;\n        string username;\n        address walletAddress;\n        uint256[] credentialIds;\n    }\n\n    struct CredentialData{\n        string fileName;\n        string assetHash;\n        string metadataUrl;\n    }\n\n    struct Viewer{\n        uint id;\n        string fileName;\n        string assetHash;\n        string assetUrl;\n        bool transfer;\n    }\n\n    struct Credential{\n        uint id;\n        CredentialData data;\n        uint256 createdBy;\n        uint256 currentOwner;\n        bool isValid;\n        string revocationReason;\n        string createdAt;\n        uint256[] viewers;\n    }\n\n    using Counters for Counters.Counter;\n    Counters.Counter private _credentialIds;\n    uint public userCount = 0;\n\n    mapping(uint256 => Credential) public credentials;\n    mapping(uint => User) public users;\n    \n\n    // * User functions * //\n\n    // * Register new user\n    function createNewUser(string memory username, address walletAddress) public {\n        userCount++;\n        uint256[] memory credentialIds;\n        users[userCount] = User(userCount, username, walletAddress, credentialIds);\n    }\n\n    // * Add credential to user's credentials list \n    function addCredentialToUser(uint id, uint256 credentialId) public {\n        users[id].credentialIds.push(credentialId);\n    }\n\n    //  * Remove credential from user's credentials list\n    function removeCredentialFromUser(uint id, uint256 credentialId) public {\n        uint256 i = 0;\n        for(i; i < users[id].credentialIds.length; i++){\n            if(users[id].credentialIds[i] == credentialId){\n                users[id].credentialIds[i] = users[id].credentialIds[users[id].credentialIds.length - 1];\n                delete users[id].credentialIds[users[id].credentialIds.length-1];\n                users[id].credentialIds.pop();\n            }\n        }\n    }\n\n    // * Fetch user by Id\n    function getUserById(uint id) public view returns (User memory){\n        return users[id];\n    }\n\n    // * Fetch user by username\n    function getUserByUsername(string memory username) public view returns (User memory){\n        uint i = 0;\n        for(i; i<=userCount; i++){\n            if(keccak256(abi.encodePacked(users[i].username)) == keccak256(abi.encodePacked(username))){\n                return users[i];\n            }\n        }\n        revert(\"Not found\");\n    }\n\n    \n    // * Credential functions\n\n    // * Add credential to credential List and user Credentials\n    function addCredential(uint256 createdBy, CredentialData memory data, string memory createdAt, uint256[] memory viewers) public returns (uint256){\n        _credentialIds.increment();\n        uint256 newItemId = _credentialIds.current();\n        credentials[newItemId] = Credential(newItemId, data, createdBy, createdBy, true, '', createdAt, viewers );\n        addCredentialToUser(createdBy, newItemId);\n        return newItemId;\n    }\n\n    // * Fetch credential by credentialId\n    function getCredentialById(uint256 id) public view returns (Credential memory){\n        return credentials[id];\n    }\n\n    // * Transfer credential from FROM to TO\n    function transferCredential(uint256 id, uint256 fromId, uint256 toId) public {\n        if(credentials[id].currentOwner == fromId){\n            credentials[id].currentOwner = toId;\n            removeCredentialFromUser(fromId, id);\n            addCredentialToUser(toId, id);\n        }else{\n            revert(\"User does not have correct permissions\");\n        }\n    }\n\n    // * Revoke Credential status\n    function revokeCredential(uint256 id, uint256 fromId, string memory reason) public {\n        if(credentials[id].createdBy == fromId){\n            credentials[id].isValid = false;\n            credentials[id].revocationReason = reason;\n        }\n        else{\n            revert(\"User does not have correct permissions\");\n        }\n    }\n\n    // * Add viewer to list of viewers\n    function addViewerToCredential(uint256 id, uint256 fromId, uint256 viewerId) public {\n        if(credentials[id].createdBy == fromId){\n            credentials[id].viewers.push(viewerId);\n        }\n        else{\n            revert(\"User does not have correct permissions\");\n        }\n    }\n\n}",
  "sourcePath": "/Users/siddharthagarwal/Desktop/Projects/FYP21050/server/blockchain/contracts/Users.sol",
  "compiler": {
    "name": "solc",
    "version": "0.8.13+commit.abaa5c0e.Emscripten.clang"
  },
  "schemaVersion": "3.4.6",
  "updatedAt": "2022-04-14T12:34:35.768Z",
  "networkType": "ethereum",
  "devdoc": {
    "kind": "dev",
    "methods": {},
    "version": 1
  },
  "userdoc": {
    "kind": "user",
    "methods": {},
    "version": 1
  }
}